:100000000C9424050C940E210C94E7200C94C02031
:100010000C9499200C944C050C944C050C94722073
:100020000C944C050C944C050C94871D0C94F61DF7
:100030000C944C050C944C050C944C050C944C05FC
:100040000C944C050C944C050C944C050C944C05EC
:100050000C944C050C944C050C944C050C942820E5
:100060000C944C050C944C050C944C050C944C05CC
:100070000C944C050C944C050C944C050C944C05BC
:100080000C944C050C944C050C944C050C944C05AC
:100090000C9435210C944C050C944C050C944C0597
:1000A0000C944C050C944C050C944C05084AD73B19
:1000B0003BCE016E84BCBFFDC12F3D6C74319ABD37
:1000C00056833DDA3D00C77F11BED9E4BB4C3E915B
:1000D0006BAAAABE000000803F0001B202FFFF0130
:1000E00090040923A135016A02060001600800009E
:1000F00000000000000000600440000000016202F7
:10010000000000600400400000037B034CCD6C0342
:10011000AB0336567600680402CB47A202180400EF
:10012000058BC1010C0400000000037F060CC92CE4
:10013000979797038903264666006C0220000240C9
:100140000400000000024404000000000248040013
:10015000000000024C0400000000025004000000F7
:1001600000025404000000000258040000000002D5
:100170005C040000000002BC040000000001EC046C
:1001800000004000037F060CC92C979797040203D8
:100190000D355D040904872D353D00A301000000E5
:1001A0000001078601FE074105F120283038077E4F
:1001B00001300746019A074704F1283038076C04DC
:1001C000F12830380216020002FB00003E000B004E
:1001D00036000100020003000000650054FFEF003C
:1001E00000FA80000B1282000100020000000000F3
:1001F00000000000000000000000280000FFFF4594
:1002000081FFFFFA7200000000000003E800000018
:100210000100017FFFFFFE8001001B0000000000C5
:10022000000000000000000000003E03304000001D
:100230000002CAE3093E8000002000000000000028
:1002400000400000006000000041FF000000000BC3
:100250002A0000165500002182FD872650FD8000EF
:1002600000001F00000005800000000000000100E9
:100270000000020000000300004000000000000435
:100280006F0002653200005EC04000000000000008
:10029000000000000000000000FB8C6F5DFD5D08A9
:1002A000D9007C733B006C12CC3200139D3200D01D
:1002B000D632000800400001F4FFE6807902000019
:1002C000000000D0D600002710FB00000040000016
:1002D000000000000000000000000000010000001D
:1002E0000000000100010000000000FA36FFBC30F1
:1002F0008E0005FBF0FFD95BC8FFD09ABE0000104E
:10030000A9FFF41EB200CEBBF70000000100000000
:1003100004000200020200000CFFC2800000018005
:100320000000CF800040000000000000010000003D
:1003300000000006000000001400000000000000A3
:1003400000000000000000000000000000000000AD
:10035000000000000000000000000000000000009D
:1003600000000000000000000000000000033F68E3
:10037000B6793528BCC67ED16C80000000400000F4
:10038000000000B26A000000000000000000000051
:100390000000003FF00000003000000000000000FE
:1003A000000000000000000000000000000000004D
:1003B0000000000000000000000000254D002F702C
:1003C0006D000005AE000C02D000000000006500CA
:1003D00054FFEF0000000000000000010000440096
:1003E0000000000C0000000100000000000065009B
:1003F0000000540000FFEF000000000000000000BB
:1004000000000000000000000040000000000000AC
:10041000000000000000000000400000000000009C
:1004200000000000000000000000000001000000CB
:1004300002000000000000000000000000000000BA
:1004400000000000000000000000000000000000AC
:10045000000000000000000000001B000000000081
:10046000000000000000000000000000000000008C
:10047000000000000000000000000000000000007C
:10048000000000000040000000001B000000000011
:10049000000000000000000000000000000000005C
:1004A000000000000000000000000000000000004C
:1004B000000000000000000000000000000000003C
:1004C000000000000000000000D8DCBAA2F1DEB29B
:1004D000B8B4A88191F74A907F916AF3F9DBA8F943
:1004E000B0BAA080F2CE81F3C2F1C1F2C3F3CCA2C4
:1004F000B280F1C6D880BAA7DFDFDFF2A7C3CBC5D1
:10050000B6F087A2942448703C95406834589B7894
:10051000A2F183922D557DD8B1B4B8A1D09180F2CB
:1005200070F370F27C80A8F101B09887D943D88627
:10053000C988BAA1F20EB89780F1A9DFDFDFAADF80
:10054000DFDFF2AAC5CDC7A90CC92C97979797F101
:10055000A989264666B0B4BA80ACDEF2CAF1B28C84
:1005600002A9B69800890E161EB8A9B4992C547C1D
:10057000B08AA896365676F1B9AFB4B083C0B8A8A1
:100580009711B18F98B9AFF0240844106418F1A303
:1005900029557DAF83B593AFF0002850F1A3869F16
:1005A00061A6DADEDFD9FAA38696DB31A6D9F8DFB9
:1005B000BAA68FC2C5C7B28CC1B8A2DFDFDFA3DF86
:1005C000DFDFD8D8F1B8A8B286B4980D355DB8AAE7
:1005D00098B0872D353DB2B6BAAF8C96198F9FA7CC
:1005E0000E161EB49AB8AA872C547CB9A3DEDFDF9E
:1005F000A3B180F2C4CDC9F1B8A9B499830D355D1A
:1006000089B9A32D557DB593A30E161EA92C547C34
:10061000B8B4B0F19783A81184A50998A383F0DA40
:10062000240844106418D8F1A529557DA5859502A4
:100630001A2E3A565A4048F9F3A3D9F8F098832471
:1006400008441064189782A8F111F098A224084475
:10065000106418DAF3DED883A59401D9A302F1A2BD
:10066000C3C5C7D8F18492A24DDA2AD84869D92ADD
:10067000D86855DA32D85071D932D8705DDA3AD8A4
:100680005879D93AD87893A34DDA2AD84869D92A23
:10069000D86855DA32D85071D932D8705DDA3AD884
:1006A0005879D93AD878A88A9AF02850789EF38851
:1006B00018F19F1D98A8D908D8C89F129EF315A8B5
:1006C000DA1210D8F1AFC8978734B5B994A421F3E2
:1006D000D922D8F22DF3D92AD8F235F3D932D881DC
:1006E000A4606061D961D86C6869D969D874707187
:1006F000D971D8B1A384193D5DA3831A3E5E9310CE
:1007000030811011B8B0AF8F94F2DA3ED8B49AA805
:100710008729DAF8D8879A35DAF8D8879A3DDAF84F
:10072000D8B1B9A49885022E56A581000C14A397C0
:10073000B08AF12DD928D84DD948D86DD968D8B10B
:10074000840DDA0ED8A32983DA2C0ED8A38449832A
:10075000DA2C4C0ED8B8B0A88A9AF520AADADFD8DD
:10076000A840AAD0DADED8A860AADAD0DFD8F197FC
:1007700086A8319B069907AB9728889BF00C20141C
:1007800040B8B0B4A88C9CF0042851791D301438BE
:10079000B282ABD0982C505078789BF11AB0F08A86
:1007A0009CA82951798B2951798A2470598B20581A
:1007B000718A4469388B3940688A6448318B304982
:1007C00060A588200971584468113964493019F1CD
:1007D000AC002C547CF08CA804285078F188972623
:1007E000A85998AC8C02264666F0899CA8295179B4
:1007F000247059446938644831A98809205970AB7C
:1008000011384069A8193148608CA83C415C207CB3
:1008100000F187981986A86E767EA999882D557D56
:100820009EB9A38A228A6E8A568A5E9FB183062663
:1008300046660E2E4E6E9DB8AD002C547CF2B18CE7
:10084000B499B9A32D557D8191AC38AD3AB583915A
:10085000AC2DD928D84DD948D86DD968D88C9DAE43
:1008600029D904AED851D904AED879D904D881F3A6
:100870009DAD008DAE1981ADD901D8F2AEDA26D882
:100880008E912983A7D9ADADADADF32AD8D8F1B0FB
:10089000AC89913E5E76F3AC2E2EF1B18C5A9CACB5
:1008A0002C2828289CAC3018A8988128343C972400
:1008B000A728343C9C24F2B089AC912C4C6C8A9BC8
:1008C0002DD9D8D851D9D8D879D9D8D8F19E88A3DC
:1008D00031DAD8D8912DD928D84DD948D86DD968D2
:1008E000D8B18393353D8025DAD8D88569DAD8D850
:1008F000B49381A328343CF3AB8BF8A391B609B42D
:10090000D9ABDEFAB0879CB9A3DDF1A3A3A3A3956D
:10091000F1A3A3A39DF1A3A3A3A3F2A3B49080F298
:10092000A3A3A3A3A3A3A3A3A3A3B2A3A3A3A3A388
:10093000A3B087B599F1A3A3A398F1A3A3A3A39709
:10094000A3A3A3A3F39BA3A3DCB9A7F1262626D8D0
:10095000D8FF00000000240027002A002D003000EE
:1009600000000000250028002B002E0031000000B0
:1009700000002300260029002C002F00040404049A
:100980000403040502020202040302020202060634
:10099000060606060404020202040404080201100A
:1009A00040804010204080408008020401804020A8
:1009B00010020110801020404020000000020009B9
:1009C0000F0000030401000C000000000000000004
:1009D000000000000000000000080B0002020200FE
:1009E00000090400000102020000052400100105B6
:1009F00024010101042402060524060001070581E3
:100A00000310004009040100020A0000000705026B
:100A1000024000000705830240000004030904129D
:100A2000010002EF02014041233680000101020370
:100A30000141726475696E6F204C4C430048616ED1
:100A40006462656C6C005B2211241FBECFEFDAE09C
:100A5000DEBFCDBF13E0A0E0B1E0E0E1FCE502C005
:100A600005900D92A03DB107D9F726E0A0EDB3E0C7
:100A700001C01D92A330B207E1F715E0C4E2D5E052
:100A800004C02197FE010E94BD2BC332D107C9F7D4
:100A90000E94A5220C94062E0C94000091E09093E5
:100AA00018058093170510921605109215050895E4
:100AB000FC018091F404882311F13FB7F89482E09F
:100AC0008093E9002091F200822F90E01816190619
:100AD00014F481E090E0882339F0289844E64093AC
:100AE000F3044091F1004083222339F02091F20079
:100AF000211103C02BE62093E8003FBF08958FEF3C
:100B00009FEF08950895089540919F045091A00487
:100B100020919D0430919E0442175307B4F49091A4
:100B2000E8009570E1F39091E80092FD19C0809380
:100B3000F10080919F049091A00401968F739927F2
:100B4000892B19F48EEF8093E80080919F04909197
:100B5000A00401969093A00480939F0481E00895DF
:100B600080E00895EF92FF920F931F93CF93DF934E
:100B7000F82E192FE62E042F81E0860F880F0E9491
:100B8000840583E00E948405CF2DD12FEC0EFD2E2D
:100B9000F11CCE15DF05B9F007FF13C0FE018491EB
:100BA0000E948405182F80E00E94840581232196ED
:100BB0008111EFCFDF91CF911F910F91FF90EF90B7
:100BC00008958881EDCF81E0F5CFDF92EF92FF921B
:100BD0000F931F93CF93DF93D82E8A01EB017B01F4
:100BE000E40EF51ECE15DF0559F0D7FE12C0FE014A
:100BF00084910E94840521968111F4CF0FEF1FEF9D
:100C0000C801DF91CF911F910F91FF90EF90DF907E
:100C100008958881EECF2FB7F89487708093E9000C
:100C20009091E800892F807295FF04C09091F200A6
:100C300080E4891B2FBF0895615030F02091F100AE
:100C4000FC0120830196F8CF289884E68093F30472
:100C500008958091950481110DC082E080939104E4
:100C600084E080939204109294041092930481E0A3
:100C70008093950481E994E008950F931F93CF9397
:100C8000DF931F92CDB7DEB782E0898342E450E064
:100C900069ED79E080E80E94E5050E942906DC0103
:100CA00012960D911C910115110589F0D801ED9155
:100CB000FC910280F381E02DBE016F5F7F4FC80180
:100CC000099597FD04C0F80100851185ECCF898155
:100CD0000F90DF91CF911F910F910895CF93DF93E4
:100CE0001F92CDB7DEB76983DC01ED91FC910280E4
:100CF000F381E02D41E050E0BE016F5F7F4F099529
:100D00000F90DF91CF91089583E08093E900809167
:100D1000F200882319F08AE38093E800089583E0C5
:100D20000E940B0690E00895CF93DF931F92CDB7FA
:100D3000DEB7FC018485958597FD08C02FEF3FEF56
:100D4000358724870F90DF91CF910895CE010196CA
:100D50000E945805019719F4898190E0F3CF8FEF35
:100D60009FEFF0CF0F931F93CF93DF931F92CDB7D9
:100D7000DEB78C01FC018485958597FF0BC0CE0101
:100D800001960E945805019771F4898190E0F8015D
:100D900095878487F801848595850F90DF91CF91A1
:100DA0001F910F9108958FEF9FEFF1CFFC01848584
:100DB000958597FD0BC09FB7F89482E08093E9007A
:100DC0008091F2009FBF90E0019608959FB7F8943C
:100DD00082E08093E9008091F2009FBF90E0089547
:100DE00081508F3008F047C0E82FF0E0E650F94F0F
:100DF0000C94BD2B17071B0709070F0713073B07A9
:100E00003B073B071E07240728072C0732073B0731
:100E10003607809180008F778093800008958091BD
:100E200080008F7DF9CF80918000877FF5CF84B5DA
:100E30008F7784BD089584B58F7DFBCF809190001E
:100E40008F77809390000895809190008F7DF9CFE7
:100E500080919000877FF5CF8091C0008F7780933D
:100E6000C00008958091C0008F7DF9CF8091C200AD
:100E7000877F8093C2000895CF93DF93282F30E0BF
:100E8000F901E654F64F8491F901E556F64FD491F5
:100E9000F901E458F64FC491CC23A1F081110E94CE
:100EA000F006EC2FF0E0EE0FFF1FE259F64FA59190
:100EB000B491EC91ED2381E090E009F480E0DF91C2
:100EC000CF91089580E090E0FACF1F93CF93DF9306
:100ED000282F30E0F901E654F64F8491F901E556E8
:100EE000F64FD491F901E458F64FC491CC23A9F000
:100EF000162F81110E94F006EC2FF0E0EE0FFF1F7D
:100F0000E05AF64FA591B4918FB7F894EC91111176
:100F100008C0D095DE23DC938FBFDF91CF911F9166
:100F20000895DE2BF8CFCF93DF9390E0FC01E556D8
:100F3000F64F24918458964FFC0184918823D1F078
:100F400090E0880F991FFC01EE5AF64FA591B491DD
:100F5000FC01E05AF64FC591D491623071F49FB70D
:100F6000F8943C91822F809583238C93E8812E2BDB
:100F700028839FBFDF91CF9108958FB7F894EC91AC
:100F80002E2B2C938FBFF6CF3FB7F89480918D0412
:100F900090918E04A0918F04B091900426B5A89BE7
:100FA00005C02F3F19F00196A11DB11D3FBFBA2FFB
:100FB000A92F982F8827BC01CD01620F711D811DBB
:100FC000911D42E0660F771F881F991F4A95D1F740
:100FD00008958F929F92AF92BF92CF92DF92EF923D
:100FE000FF924B015C010E94C4076B017C010E94CF
:100FF000C4076C197D098E099F09683E73408105FD
:101000009105A8F321E0821A9108A108B10888EEA1
:10101000C80E83E0D81EE11CF11C81149104A104C8
:10102000B10429F7FF90EF90DF90CF90BF90AF9081
:101030009F908F9008957F928F929F92AF92BF92D0
:10104000CF92DF92EF92FF920F931F93CF93DF9394
:10105000C82E8B017A018091F404811110C08FEFAA
:101060009FEFDF91CF911F910F91FF90EF90DF9055
:10107000CF90BF90AF909F908F907F900895809178
:10108000A30480FF05C08091E00082608093E000AF
:10109000CE2DDF2DD12C8AEFB82E8C2D8770982E77
:1010A0008C2D8072882E8C2D8074782E9AE3A92E38
:1010B000209719F4DD2009F452C08C2D0E940B06F4
:1010C00081110AC0BA94BB2051F261E070E080E067
:1010D00090E00E94E907ECCF8C171D0611F00CF090
:1010E0008C2F9FB7F8949092E9002091E80025FD9D
:1010F00002C09FBFDDCF282F30E0C21BD30B88205A
:1011000029F08150A0F01092F100FBCFF801C7FC4C
:101110000AC0815050F041914093F100FACF4491C0
:101120004093F10031968150D0F7020F131FDD205C
:1011300021F0A092E800D12CDCCF8091E80085FD61
:1011400007C0A092E800DD24D394209791F2F3CF5A
:10115000209779F6772069F2A092E800CACF5D98CF
:1011600084E68093A204C7017CCFCF93DF93EC0188
:1011700080911C01882331F083E00E941B0818161F
:10118000190634F081E090E09B838A8380E090E050
:10119000DF91CF9108952FB7F894609189047091F1
:1011A0008A0480918B0490918C042FBF0895089538
:1011B0008091C1049091C204891B990B08952091DC
:1011C0006504260F3327331F21323105ECF42091BB
:1011D0005F05FC0190E080E0243069F082E0089532
:1011E000A09165042191AC014B5B5B4FA40FB52F1F
:1011F000B11D2C930196861798F380916504680FB2
:101200006093650480E0089581E0089510925F0581
:1012100081E080933E051092390561E082E00E94F2
:10122000650761E083E00E946507E9EBF0E08081FB
:101230008E7F808380818D7F808388E48093B80057
:1012400085E48093BC000895CF93DF9391E0909361
:1012500044048823B9F0C091B800D091BA008091BD
:10126000BC008A7B8093BC0060E082E00E9465073E
:1012700060E083E00E9465070E940609D093BA00EF
:10128000C093B800DF91CF9108958F929F92AF9253
:10129000BF92CF92DF92EF92FF920F931F93CF9363
:1012A000DF93D82FC62F142F613208F09CC00E9404
:1012B000C4076B017C0180915F0581116FC081E0E3
:1012C00080935F0510933E059FEF90933D0510922C
:1012D0003C059C0F90933B0580933A0580913A051D
:1012E000DD0FD82BD0933A0580913905813009F074
:1012F0007CC0109239050E94C4076B017C0180916B
:101300003A058093BB008091610590916205A091A0
:101310006305B0916405892B8A2B8B2BA1F00E9469
:10132000C407009161051091620520916305309119
:1013300064056C197D098E099F0906171707280790
:10134000390708F44CC08091BC0083FDD8CF85ECF0
:101350008093BC000E94C4076B017C0180915F05F3
:10136000813009F444C080913C058C1710F4C09181
:101370003C05E9E1F5E0AFE3B5E080E08C1359C04E
:101380008C2FDF91CF911F910F91FF90EF90DF9005
:10139000CF90BF90AF909F908F90089580916105FE
:1013A00090916205A0916305B0916405892B8A2B09
:1013B0008B2B09F480CF0E94C40780906105909028
:1013C0006205A0906305B09064056C197D098E09D3
:1013D0009F0986169706A806B90608F06CCF80917B
:1013E00060050E942409C0E0CBCF85EEB1CF80918B
:1013F000610590916205A0916305B0916405892B08
:101400008A2B8B2B09F4AACF0E94C4070091610597
:101410001091620520916305309164056C197D0976
:101420008E099F09061717072807390708F096CF76
:10143000D6CF91919D938F5FA1CFCF92DF92EF9204
:10144000FF920F931F93CF93DF93D091150581E007
:10145000D13208F09CC0C09117050E94C4076B01EF
:101460007C0180915F0581116CC082E080935F05F3
:1014700081E080933E058FEF80933D0510923C05FF
:10148000D0933B05A5EFB4E0E9E1F5E080E0D813A7
:101490008DC010923A0580913A05CC0FC82BC093AD
:1014A0003A0580913905813009F084C010923905E0
:1014B0000E94C4076B017C0180913A058093BB00B8
:1014C0008091610590916205A0916305B0916405DA
:1014D000892B8A2B8B2BA1F00E94C40700916105F8
:1014E0001091620520916305309164056C197D09A6
:1014F0008E099F09061717072807390708F442C005
:101500008091BC0083FDD8CF85EC8093BC000E9405
:10151000C4076B017C0180915F05823009F44CC0E7
:1015200080913D058F3F09F469C080913D0580326F
:1015300009F466C080913D05803309F463C084E0FE
:1015400026C08091610590916205A0916305B091DC
:101550006405892B8A2B8B2B09F483CF0E94C40747
:101560000091610510916205209163053091640539
:101570006C197D098E099F09061717072807390777
:1015800008F06FCF809160050E94240985E01092D9
:1015900016051092150510921805DF91CF911F9135
:1015A0000F91FF90EF90DF90CF9008959D919193D0
:1015B0008F5F6DCF85EEA9CF809161059091620517
:1015C000A0916305B0916405892B8A2B8B2B09F4BC
:1015D000A2CF0E94C407009161051091620520917D
:1015E0006305309164056C197D098E099F09061702
:1015F00017072807390708F08ECFC4CF80E0C7CF80
:1016000082E0C5CF83E0C3CF0895E091C20480910A
:10161000C104E81730F4F0E0E15CFA4F808190E01B
:1016200008958FEF9FEF08959091C2048091C104B7
:101630002FEF3FEF981748F4E92FF0E0E15CFA4F05
:10164000208130E09F5F9093C204C9010895CF923A
:10165000DF92EF92FF920F931F93CF93DF937C0162
:10166000CB018A0120911805222389F0EB016B013F
:10167000C40ED51ECC15DD0569F06991D701ED9139
:10168000FC910190F081E02DC7010995F3CF642F03
:101690000E94DF08C801DF91CF911F910F91FF9049
:1016A000EF90DF90CF900895CF93DF931F92CDB747
:1016B000DEB76983209118052223F9F020911505E2
:1016C000203258F021E030E0FC013383228390E0A7
:1016D00080E00F90DF91CF91089580911605E82F5B
:1016E000F0E0EB50FB4F998190838F5F809316055C
:1016F0008093150581E090E0ECCF61E0CE0101968A
:101700000E94DF08F7CF682F85EB95E00C94540B0F
:10171000FF920F931F93CF93DF93C62F042FF22EC8
:10172000132F0E944E056C2F85EB95E00E94540B01
:10173000CF2DD12F0C0F1D2F111DC017D10731F048
:10174000699185EB95E00E94540BF7CF0E941D0A2A
:1017500091E0811190E0892FDF91CF911F910F913E
:10176000FF900895CF93DF931F92CDB7DEB74983E3
:101770009E012F5F3F4F41E00E94880B0F90DF9149
:10178000CF910895482F6EE68091C1050C94B20B5D
:101790001F93CF93DF93162FEA010E944E05612F0E
:1017A00085EB95E00E94540B6D2F85EB95E00E9430
:1017B000540B6C2F85EB95E00E94540B0E941D0A80
:1017C00091E0811190E0892FDF91CF911F910895D1
:1017D00090E080E0089581E0809343040895CF92E3
:1017E000DF92EF92FF920F931F93CF93DF93E70166
:1017F0006901F8012017310714F06801F90190E040
:1018000080E06623A1F1CA014C155D050CF4C60108
:10181000BF018E179F070CF4BC010217130734F4A5
:10182000CF01861B970BBC016C0D7D1D0D2C000C90
:10183000EE08FF08072E000C880B990B6C197D0928
:101840008E099F092AE0660F771F881F991F2A9526
:10185000D1F79F01FF0F440B550B2C193D094E0981
:101860005F090E9458282883398382E090E0DF9145
:10187000CF911F910F91FF90EF90DF90CF9008953F
:101880000F931F93CF93DF938C01EB01FC018281B7
:101890000E944E058DE290E00E94830B88E090E06C
:1018A0000E94830B0E941D0AF80182810E944E054E
:1018B00081E390E00E94830B90E080E00E94830B24
:1018C0000E941D0A20E03EEF3BA32AA38FEF91E088
:1018D0009DA38CA33FA32EA399A788A73BA72AA7C4
:1018E0009DA78CA7DF91CF911F910F91089583E061
:1018F00090E0089582E090E00895DC01FB011296EB
:101900002C911297848195812817190641F49181B1
:101910008081813A31F49D7F81E0913009F080E04F
:1019200008958132E1F79B3029F482811F968C93D0
:1019300081E008959A3099F7828150968C93F8CF80
:10194000DC01FB0188E4808389E4818384E4828371
:101950001D969C911D979F709F5B93831D968D9103
:101960009C9124E0969587952A95E1F78F708F5B7F
:10197000848385E00895EF92FF920F931F93CF9396
:10198000DF93FB012081213889F52381223271F513
:10199000DC0112964C91248135814217130631F5F2
:1019A0008C01FC01C385D485F12CE12C209791F0AA
:1019B0004C815D816A817B818E81811180E80E94EA
:1019C000E5058F3F980759F0E80EF91E0990D88178
:1019D000C02DECCF81E0D8011F968C93C701DF9119
:1019E000CF911F910F91FF90EF90089590E080E0CC
:1019F000F6CFCF93DF93CDB7DEB769970FB6F894E4
:101A0000DEBF0FBECDBFFC01DB018C918F5F8C93DD
:101A10009E012D5F3F4F8DE0D9011D928A95E9F718
:101A200029E0298384E08A8391E09D8383E08E838B
:101A30002A8721E22B879C879D879F8722E2288B1C
:101A400027E02B8B25E02C8B8E8B20E430E0388F29
:101A50002F8B998F82818B8395858685998B8A8B35
:101A6000838180688D8B49E150E0BE016F5F7F4FBD
:101A700080E00E94E50569960FB6F894DEBF0FBEC0
:101A8000CDBFDF91CF910895CF93DF938091ED0388
:101A9000811167C081E08093E0038093E10326EE2B
:101AA00033E03093E3032093E2031092E5031092B6
:101AB000E40327E231E03093DD032093DC0310924E
:101AC000E8031092E7031092EA031092E90380936F
:101AD000EB038093EC0381EC8093E6030E942906DC
:101AE000FC0181819091E003482F490F5527551F34
:101AF000483051059CF5A281B381109709F52CED72
:101B000033E03383228320812093DE038093DF033D
:101B10008091E103820F80832091E203A22FB09194
:101B2000E3038A2F821B8917C8F481813D91C82F56
:101B3000D0E0C65FDE4F38838F5F8183F2CFD9015B
:101B400018962D913C91199721153105C1F72CED6F
:101B500033E019963C932E931897D5CF81E080936C
:101B6000ED038CED93E0DF91CF910895FC0101909E
:101B70000020E9F73197AF01481B590BBC0185E6FE
:101B800095E00C94B508CF93DF930E94B60DEC015D
:101B900087E691E00E94B60D8C0F9D1FDF91CF91DB
:101BA00008950C94B60D8F929F92AF92BF92CF92F0
:101BB000DF92EF92FF920F931F93CF93DF93CDB7F6
:101BC000DEB7A1970FB6F894DEBF0FBECDBF6C0194
:101BD000990FEE08FF08F7FE41C06DE285E695E03B
:101BE0000E946E068C0122273327A9012C193D097A
:101BF0004E095F0919A2CE0181967C019AE0892ED7
:101C0000912CA12CB12CCA01B901A50194010E940B
:101C10007728605DF70162937F0121153105410549
:101C2000510589F790E080E0309719F0CF010E94CC
:101C3000B60D800F911FA1960FB6F894DEBF0FBEB0
:101C4000CDBFDF91CF911F910F91FF90EF90DF906B
:101C5000CF90BF90AF909F908F900895A70196016D
:101C600019A28E010F5D1F4F8AE0C82ED12CE12CE6
:101C7000F12CCA01B901A70196010E947728605D85
:101C8000F80162938F01211531054105510589F74E
:101C900090E080E0309779F2CF010E94B60DCBCF73
:101CA0002F923F924F925F926F927F928F929F926C
:101CB000AF92BF92CF92DF92EF92FF920F931F935A
:101CC000CF93DF9300D000D0CDB7DEB7782E662E4D
:101CD0004C833A8329830E94CB086B017C01512CF1
:101CE0001B822C81222E312C4801B12CA12C8C81FD
:101CF000581608F048C0872D0E944E05662D85EBCA
:101D000095E00E94540B0E941D0A872D0E944E05EB
:101D1000B101651971096132710514F060E270E07A
:101D2000613208F060E241E0872D0E944509482EAB
:101D30001092C2048093C1048091C2044816E9F055
:101D40000115110579F485EB95E00E94140BE981EA
:101D5000FA819B81E90FF11D97FDFA9580839F5FC2
:101D60009B83EACF0E94CB086C197D098E099F09DD
:101D7000681579058A059B0530F38C81813208F05E
:101D800080E2580EB4CF01151105C1F00E94CB08B6
:101D90006C197D098E099F0930E020E060177107FA
:101DA0008207930758F02B81822F220F990B2C81E9
:101DB0002817190619F014F08FEF8B838B810F9081
:101DC0000F900F900F90DF91CF911F910F91FF9087
:101DD000EF90DF90CF90BF90AF909F908F907F90CB
:101DE0006F905F904F903F902F9008950F931F93A7
:101DF000CF93DF93C1ECD5E008EE13E022EC35E0A1
:101E000041E06AE388810E94500E8981DF91CF9181
:101E10001F910F910895EF92FF920F931F93CF930D
:101E2000DF931F92CDB7DEB77A0189019E012F5F44
:101E30003F4F41E00E94500E882339F029812E77D0
:101E400030E035952795F70120830F90DF91CF91F2
:101E50001F910F91FF90EF9008950F931F93462FBE
:101E600008EE13E09C0164E78091C1050E94500ECA
:101E70001F910F9108950F931F93CF93DF93C1ECA0
:101E8000D5E008EE13E022EC35E042E062E788811D
:101E90000E94500E89819A81982789279827DF917F
:101EA000CF911F910F910895BF92CF92DF92EF9241
:101EB000FF920F931F93CF93DF931F92CDB7DEB79F
:101EC000F82EE62EC42EB22ED02E08EE13E09E0180
:101ED0002F5F3F4F41E00E94500E882371F18C2DFF
:101EE0008B19990BAC014F5F5F4F81E090E002C00E
:101EF000880F991FBA94E2F70197042E01C0880F4A
:101F00000A94EAF70D2D01C0000F4A95EAF7482F11
:101F10004095998149238023482B49836E2D8F2D2D
:101F20000E94B20B0F90DF91CF911F910F91FF9004
:101F3000EF90DF90CF90BF90089580E0F3CFCF92E5
:101F4000DF92EF92FF920F931F93CF93DF931F9235
:101F5000CDB7DEB7F82EE62EC42ED22E08EE13E053
:101F60009E012F5F3F4F41E00E94500E81E090E0C4
:101F700001C0880FCA94EAF74981DD2081F0482B1F
:101F800049836E2D8F2D0E94B20B0F90DF91CF9160
:101F90001F910F91FF90EF90DF90CF900895809563
:101FA0004823EECF0F93CF93DF93EC0101E023E0C2
:101FB00042E06BE688810E94540F00E022E044E09A
:101FC0006BE188810E94540F22E044E06CE188813B
:101FD0000E94540F20E046E06BE68881DF91CF91AC
:101FE0000F910C949F0F2F923F924F925F926F929E
:101FF0007F928F929F92AF92BF92CF92DF92EF9299
:10200000FF920F931F93CF93DF93CDB7DEB76A97FD
:102010000FB6F894DEBF0FBECDBF412C512C32015C
:102020001D8A1E8A1F8A188E198A1A8A1B8A1C8A80
:102030001D861E861F86188A19861A861B861C8690
:102040001D821E821F821886812C912C540188EEDD
:10205000C82E83E0D82EE12CF12C08EE13E021EFFE
:1020600035E04EE06BE38091F0050E94500EA091A8
:10207000F105B091F205BA27AB27BA27B093DB037D
:10208000A093DA03E091F305F091F405FE27EF2722
:10209000FE27F093D903E093D8036091F505709182
:1020A000F6057627672776277093D7036093D603C4
:1020B0004091F9055091FA0554274527542750932C
:1020C000D5034093D4032091FB053091FC05322EBB
:1020D000232E3092D3032092D2038091FD0590915C
:1020E000FE05182F092F1A8F098F1093D103009323
:1020F000D00315E681169104A104B1040CF4A8C024
:102100008D01BB0F220B330B8D819E81AF81B88572
:10211000800F911FA21FB31F8D839E83AF83B8874B
:102120008F01FF0F220B330B89859A85AB85BC8508
:10213000800F911FA21FB31F89879A87AB87BC8727
:102140008B01770F220B330B8D859E85AF85B88968
:10215000800F911FA21FB31F8D879E87AF87B88BFB
:10216000052E000C660B770B09891A892B893C898F
:10217000040F151F261F371F098B1A8B2B8B3C8BC7
:102180009101330C440B550B8D899E89AF89B88D15
:10219000820F931FA41FB51F8D8B9E8BAF8BB88FA3
:1021A000098D1A8DC801110FAA0BBB0B480E591EC1
:1021B0006A1E7B1E1CE4811614E09106A104B10482
:1021C00009F046C06D817E818F819885A7019601B7
:1021D0000E9458283093B0042093AF0469857A8513
:1021E0008B859C85A70196010E9458283093AE04E8
:1021F0002093AD046D857E858F859889A701960112
:102200000E9458283093AC042093AB0469897A89E2
:102210008B899C89A70196010E9458283093AA04B3
:102220002093A9046D897E898F89988DA7019601D5
:102230000E9458283093A8042093A704C301B20138
:10224000A70196010E9458283093A6042093A50464
:102250002FEF821A920AA20AB20A62E070E080E0CE
:1022600090E00E94E9073DE4831634E09306A10460
:10227000B10409F0F2CE6A960FB6F894DEBF0FBE35
:10228000CDBFDF91CF911F910F91FF90EF90DF9025
:10229000CF90BF90AF909F908F907F906F905F9006
:1022A0004F903F902F9008958F929F92AF92BF9240
:1022B000CF92DF92EF92FF920F931F93CF93DF9312
:1022C000CDB7DEB7C659D1090FB6F894DEBF0FBE41
:1022D000CDBF5C01DC015B961C921E925A975E9604
:1022E0001C925E9793961C921E9292978FEF93E0AA
:1022F00095969C938E93949797961C921E92969780
:1023000099969C938E9398979B961C921E929A975F
:102310009D969C938E939C979F961C921E929E973F
:10232000D1969C938E93D097D3961C921E92D2975F
:10233000D5969C938E93D497D7961C921E92D6973F
:10234000D9969C938E93D897DB961C921E92DA971F
:10235000DD969C938E93DC97DF961C921E92DE97FF
:10236000F501E05CFF4F91838083329611821082E9
:1023700032969183808332961182108232969183B5
:1023800080833296118210823296918380833296B6
:1023900083E0808382E0F501858F178E411101C0B3
:1023A00080E0862B94E0211101C090E0892B98E019
:1023B000011101C090E0892B90E1E11001C090E093
:1023C000892B90E2C11001C090E0892BD501909635
:1023D0008C93909791961C921E2D1C0D100F120F2E
:1023E000140F160F75E0798381E08A8399E09B834F
:1023F000A4E0AC83F1EAFD838E8335E83F83B3E04C
:10240000B88779879A8739E13B878C8739E23D879E
:10241000E2E0EE8735E13F87188A35E2398B8A8B17
:1024200055E75B8B8C8B35E93D8BEE8B0F2EF5E5FD
:10243000FF2EF02DFF8A188E0F2EF5E6FF2EF02DC1
:10244000F98E1A8E0F2EF1E8FF2EF02DFB8EEC8FF9
:102450005D8F8E8F3F8FE6E0E8A3F9A2BAA3112328
:1024600009F427C17BA38CA39DA38EA386E18FA330
:1024700018A619A686E28AA71BA6ACA75DA780E1CD
:102480008EA73FA718ABF9AB1AAA662309F40EC1B1
:102490009BAB80E38CAB64E370E0442391F0E1E01C
:1024A000F0E0EC0FFD1FE60FF71F89E08083E2E00C
:1024B000F0E0EC0FFD1FE60FF71F81E380836E5FF6
:1024C0007F4F222391F0E1E0F0E0EC0FFD1FE60FDB
:1024D000F71F89E08083E2E0F0E0EC0FFD1FE60FDC
:1024E000F71F82E380836E5F7F4F002391F0E1E06E
:1024F000F0E0EC0FFD1FE60FF71F89E08083E2E0BC
:10250000F0E0EC0FFD1FE60FF71F83E380836E5FA3
:102510007F4FEE2091F0E1E0F0E0EC0FFD1FE60FC1
:10252000F71F89E08083E2E0F0E0EC0FFD1FE60F8B
:10253000F71F84E380836E5F7F4FCC2091F0E1E052
:10254000F0E0EC0FFD1FE60FF71F89E08083E2E06B
:10255000F0E0EC0FFD1FE60FF71F85E380836E5F51
:102560007F4FE1E0F0E0EC0FFD1FE60FF71F81E881
:102570008083E2E0F0E0EC0FFD1FE60FF71F82E042
:102580008083CB0103966C0F7D1F20ECFB0123831E
:10259000E1E0F0E0EC0FFD1FE80FF91F20EC2083D5
:1025A0006C01FFEFCF1ADF0AC6010E94D72B4C0146
:1025B000A601BE016F5F7F4F0E94C62D87E090E0AD
:1025C0000E94D72B7C01DC0111961C921E9213965F
:1025D0009C928E9212971596DC92CE921497169634
:1025E0001C920E94440DFC01A385B485109709F04C
:1025F00064C0F486E38685859685D70114962D916F
:102600003C91820F931F96878587F501958D892FC1
:10261000869586958695977009F057C0868FF50147
:10262000068D802F90E00E94D72BD5015B969C935E
:102630008E935A97F501E15BFF4F110F100F81E068
:102640005F969C91911101C080E0180F1083F501F5
:1026500011821082138212821582148217821682CE
:10266000118610861386128615861486178616869E
:10267000118A108A138A128A158A148A8FEF9FEFA3
:10268000978B868B918F808F90E080E0D5015E964E
:102690002C915E9728171906D9F0D4F05A96ED912F
:1026A000FC91E80FF91F10820196F0CF62E370E011
:1026B000F4CE82E290E06CCFDC018D919C91119779
:1026C0000097D1F7ED92FC9296CF8F5F868FA7CFC0
:1026D000CA56DF4F0FB6F894DEBF0FBECDBFDF91F5
:1026E000CF911F910F91FF90EF90DF90CF90BF900F
:1026F000AF909F908F9008952F923F924F925F924C
:102700006F927F928F929F92AF92BF92CF92DF9201
:10271000EF92FF920F931F93CF93DF933C015B01E6
:10272000242E522E302E4F716DE68091C1050E94ED
:10273000B20B852D0E94C20B80E190E00E94D72B46
:102740006C01002329F080E190E00E94D72B7C01EE
:10275000D0E0C0E0CA15DB0508F080C0CE0140968D
:10276000A816B906E8F44A2C4C1A80E091E08519C5
:1027700091094816190619F014F0452C419433209C
:1027800091F0D70190E080E093012C0F3D1F84155C
:1027900068F4F901E80FF91FE491ED930196F7CF82
:1027A00080E1482EE2CF7301EC0EFD1E9701442D0F
:1027B0006FE68091C1050E94880B842C912CC11476
:1027C000D104B9F1422D4F716DE68091C1050E948F
:1027D000B20B852D0E94C20B08EE13E09601442D2A
:1027E0006FE68091C1050E94500EA401B601C70199
:1027F0000E94B92D892BE9F0C6010E94732C332069
:1028000021F0C7010E94732C312C832DDF91CF91D1
:102810001F910F91FF90EF90DF90CF90BF90AF90FE
:102820009F908F907F906F905F904F903F902F90F0
:102830000895C80DD91D540CCA15DB0508F08ACFC0
:10284000511001C02394422D4F716DE68091C10556
:102850000E94B20B852D0E94C20B7CCFC6010E9444
:10286000732C332021F0C7010E94732CCECF332468
:102870003394CBCF85ED8093BC008091610590911E
:102880006205A0916305B09164050796A11DB11D75
:1028900023E0B695A795979587952A95D1F720912E
:1028A000BC0024FD03C010925F05089540916105AE
:1028B000509162056091630570916405452B462B2C
:1028C000472B69F30097A105B10541F025E32A954F
:1028D000F1F700000197A109B109E1CF80916005EE
:1028E0000C9424092F923F924F925F926F927F92A5
:1028F0008F929F92AF92BF92CF92DF92EF92FF9210
:102900000F931F93CF93DF93CDB7DEB7C259D10991
:102910000FB6F894DEBF0FBECDBF6B014A0181EC4C
:1029200095E00E94D20F64EF71E080E090E00E9499
:10293000E90721E047E06BE68091C1050E949F0F07
:102940006EE170E080E090E00E94E90720E046E060
:102950006BE68091C1050E949F0F40E76DE6809174
:10296000C1050E94B20B86E00E94C20B08EE13E084
:1029700022EC35E041E06FE68091C1050E94500EE7
:1029800040E06DE68091C1050E94B20B9E012F5F71
:102990003F4F41E060E08091C1050E94500E898167
:1029A00081708093C20528EE33E042EC55E060E090
:1029B0008091C1050E940B0F3090C20528EE33E0D4
:1029C00042EC55E061E08091C1050E940B0F409000
:1029D000C20528EE33E042EC55E062E08091C1058B
:1029E0000E940B0F5090C2054FE765E28091C10530
:1029F0000E94B20B20E045E06AE68091C1050E948A
:102A00009F0F48E665E28091C1050E94B20B21E06C
:102A100041E06AE68091C1050E949F0F64E170E089
:102A200080E090E00E94E90701E020E040E069E8F2
:102A300077E089EC91E00E947C13882309F449C077
:102A400088E090E00E94D72B3C0110E000E0F80104
:102A5000E75FFE4F8491CF56DF4F8883C159D04046
:102A6000F801E65FFE4F2490780193E0E90EF11C37
:102A7000F801E55FFE4FE491EE2309F4B2C0AE2EFB
:102A8000B12CE33028F0B501C3010E94FC2C3C01BD
:102A9000D30190E080E0045F1E4FF801E80FF91FBA
:102AA000E491ED9301968A159B05B8F300E0222D81
:102AB000CF56DF4F4881C159D040B501C3010E94B4
:102AC0007C1387010A0D1B1D81119AC0C3010E944E
:102AD000732CF4014085518566E08091C1050E9408
:102AE000C80BF4014285538568E08091C1050E94BE
:102AF000C80BF401448555856AE08091C1050E94A8
:102B0000C80BF4014685578563E18091C1050E9499
:102B1000C80BF4014089518965E18091C1050E948B
:102B2000C80BF4014289538967E18091C1050E9475
:102B3000C80B21E047E06AE68091C1050E949F0F23
:102B40008BEE9BE0909301018093000180916900DE
:102B5000836080936900E89A0E94F60E8091C30515
:102B60009091C405909342048093410420E030EC9E
:102B7000F60133A322A38FEF9FE395A384A337A38A
:102B800026A391A780A733A722A795A784A72CE403
:102B90003FEF37A726A784EB90E091AB80AB33AB38
:102BA00022AB95AB84AB37AB26AB91AF80AFCE56A3
:102BB000DF4F0FB6F894DEBF0FBECDBFDF91CF91D0
:102BC0001F910F91FF90EF90DF90CF90BF90AF904B
:102BD0009F908F907F906F905F904F903F902F903D
:102BE00008950C5F1F4FF701E75FFE4FE49180915E
:102BF000C105E13009F06ACF42E368E30E94B20BFD
:102C0000003C110508F423CFC3010E94732C03E09C
:102C100023E042E06BE68091C1050E94540F42E13F
:102C200068E38091C1050E94B20B44E069E18091A4
:102C3000C1050E94B20B01E023E045E06AE180910A
:102C4000C1050E94540F03E023E042E06AE1809155
:102C5000C1050E94540F22E044E06BE18091C10560
:102C60000E94540F43E060E78091C1050E94B20BBF
:102C700040E061E78091C1050E94B20B20E040E096
:102C800060E08091C1050E949F0F032D26E046E081
:102C900060E08091C1050E94540F042D26E046E0BB
:102CA00061E08091C1050E94540F052D26E046E0A9
:102CB00062E08091C1050E94540FF12CE12CF701D4
:102CC000E652FF4FE491A1E8B0E0AC0FBD1FAE0D9E
:102CD000B11DEC9381E08E0DEFEFEE1AFE0AF3E0EA
:102CE000FE1568F7CD57DF4F6881C358D04070E0BC
:102CF0009B012E5F3F4F8217130609F304F300E098
:102D0000CE57DF4F2881C258D040CF57DF4F488180
:102D1000C158D04081E890E08C0F9D1F03960E941F
:102D20007C1380E0F701E652FF4FE491A1E8B0E0A8
:102D3000AC0FBD1FA80FB11DEC938F5F9FEFE91A79
:102D4000F90A282F30E0843068F3CD57DF4F6881CF
:102D5000C358D04070E0AB014E5F5F4F421753073E
:102D60000CF700E0CE57DF4F2881C258D040CF5734
:102D7000DF4F4881C158D04081E890E08C0F9D1F03
:102D800003960E947C130E9454220E943B0F682FDE
:102D9000CE0101960E942D0F42E06FE18091C105A6
:102DA0000E94B20B4CE961E28091C1050E94B20B16
:102DB00040E560E28091C1050E94B20B40E062E212
:102DC0008091C1050E94B20B0E94542221E046E08E
:102DD0006AE68091C1050E949F0F21E047E06AE604
:102DE0008091C1050E949F0F21E043E06AE6809137
:102DF000C1050E949F0F80E0F701E652FF4FE4916A
:102E0000A1E8B0E0AC0FBD1FA80FB11DEC938F5F20
:102E1000EFEFEE1AFE0A282F30E0843068F3CD572A
:102E2000DF4F6881C358D04070E0AB014E5F5F4F09
:102E3000421753070CF700E0CE57DF4F2881C258E6
:102E4000D040CF57DF4F4881C158D04081E890E053
:102E50008C0F9D1F03960E947C1380E0F701E652C1
:102E6000FF4FE491A1E8B0E0AC0FBD1FA80FB11D6A
:102E7000EC938F5FFFEFEF1AFF0A282F30E08430CA
:102E800068F3CD57DF4F6881C358D04070E0AB0185
:102E90004E5F5F4F421753070CF700E0CE57DF4FEE
:102EA0002881C258D040CF57DF4F4881C158D04009
:102EB00081E890E08C0F9D1F03960E947C1380E0B8
:102EC000F701E652FF4FE491A1E8B0E0AC0FBD1F5F
:102ED000A80FB11DEC938F5F9FEFE91AF90A282F15
:102EE00030E0843068F3CD57DF4F6881C358D0405D
:102EF00070E0AB014E5F5F4F421753070CF700E0E5
:102F0000CE57DF4F2881C258D040CF57DF4F48817E
:102F1000C158D04081E890E08C0F9D1F03960E941D
:102F20007C130E943B0F83309105D8F3682FCE01AC
:102F300001960E942D0F0E94F60E80E0F701E652E6
:102F4000FF4FE491A1E8B0E0AC0FBD1FA80FB11D89
:102F5000EC938F5FFFEFEF1AFF0A282F30E08430E9
:102F600068F3CD57DF4FE881C358D040CE56DF4FCE
:102F7000E883C259D0406E2E712CA3014E5F5F4F83
:102F800042175307DCF6CE57DF4F3880C258D04087
:102F9000CF57DF4F8881C158D040CF56DF4F88834D
:102FA000C159D040482F4F716DE68091C1050E94F4
:102FB000B20B832D0E94C20BB12CA12C91E8492E9B
:102FC000512C4C0E5D1E93E0490E511CA614B70403
:102FD00008F044C0C5014096CE56DF4F2880C25944
:102FE000D0402A186816790610F080E1282E80E07B
:102FF00091E0831991092816190619F014F0232C71
:10300000219492012A0D3B1D08EE13E0422D6FE63C
:103010008091C1050E94500EA20CB11C320CA61466
:10302000B704A0F631100BC0CF56DF4FE881C1596D
:10303000D040EF5FCF56DF4FE883C159D040CF5625
:10304000DF4F4881C159D0404F716DE68091C10575
:103050000E94B20B832D0E94C20BB8CF0E943B0F7F
:1030600083309105D8F3682FCE0101960E942D0F71
:103070000E94F60EF701E652FF4F80E09491A1E81E
:10308000B0E0AC0FBD1FA80FB11D9C938F5F282F20
:1030900030E0843060F0CD57DF4F6881C358D040B6
:1030A00070E0AB014E5F5F4F4217530714F031964B
:1030B000E5CF00E0CE57DF4F2881C258D040CF5730
:1030C000DF4F4881C158D04081E890E08C0F9D1FB0
:1030D00003960E947C1320E047E06AE68091C105D8
:1030E0000E949F0F8AE290E09093C4058093C305ED
:1030F0000E9454220E94F60EECCC4F925F926F9287
:103100007F928F929F92AF92BF92CF92DF92EF9277
:10311000FF920F931F93CF93DF93CDB7DEB76C0170
:103120004DB65EB63C012FE4620E711CF301808146
:103130002DB73EB7281B31090FB6F8943EBF0FBE1E
:103140002DBF8DB79EB701964C01F601A68CB12C10
:10315000DC0190E080E0F6018A159B054CF4228D9D
:10316000338DF901E80FF91F20812D930196F3CFDC
:10317000878D882341F18689978928E097FD09C0CA
:1031800068E671E00E94A92B6DE270E00E94A92B15
:10319000262FF601808D918D68E097FD08C068E6C6
:1031A00071E00E94A92B6DE270E00E94A92BF4014E
:1031B000EA0DFB1D30E1639FB0011124262B208313
:1031C000C50101965C017401EA0CFB1CF60104A127
:1031D00015A122A133A14081518160A16170C60176
:1031E0000E94EF0BA80EB91E7401EA0CFB1CF6013D
:1031F00000A511A526A137A14281538160A1669542
:103200006170C6010E94EF0BA80EB91E7401EA0C92
:10321000FB1CF60104A515A522A533A54481558103
:1032200060A162FB662760F9C6010E94EF0BA80E41
:10323000B91E7401EA0CFB1CF60100A911A926A510
:1032400037A54681578160A163FB662760F9C601F7
:103250000E94EF0BA80EB91E7401EA0CFB1CF601CC
:1032600004A915A922A933A94085518560A16295B9
:103270006170C6010E94EF0BA80EB91E7401EA0C22
:10328000FB1CF60100AD11AD26A937A94285538577
:1032900060A165FB662760F9C6010E94EF0BA80ECE
:1032A000B91E7401EA0CFB1CF60104AD15AD22AD8C
:1032B00033AD4685578561A16170C6010E94EF0B51
:1032C000A80EB91E7401EA0CFB1CF601E05CFF4F6E
:1032D00000811181F60126AD37AD4485558561A188
:1032E00066956170C6010E94EF0BA80EB91E7401AD
:1032F000EA0CFB1CF601EC5BFF4F00811181329759
:1033000020813181F6014089518961A162FB6627E4
:1033100060F9C6010E94EF0BA80EB91E7401EA0CF9
:10332000FB1CF601E85BFF4F008111813297208181
:103330003181F6014289538961A163FB662760F9F7
:10334000C6010E94EF0B8A0D9B1D7401E80EF91E49
:10335000F601E45BFF4F00811181329720813181BA
:10336000F6014489558961A162956170C6010E9488
:10337000EF0B0E94440D5C01F3014081F601E25B1A
:10338000FF4F808150E07A01FFEFEF1AFF0A2DB75F
:103390003EB72E193F090FB6F8943EBF0FBE2DBFA2
:1033A0000DB71EB70F5F1F4FEDB7FEB78183B40196
:1033B000C80101960E94C62DF5018381A701B801BD
:1033C00080640E941B080FB6F8945EBE0FBE4DBE0F
:1033D000DF91CF911F910F91FF90EF90DF90CF90F1
:1033E000BF90AF909F908F907F906F905F904F9025
:1033F00008952F923F924F925F926F927F928F9299
:103400009F92AF92BF92CF92DF92EF92FF920F9373
:103410001F93CF93DF93CDB7DEB768970FB6F894BD
:10342000DEBF0FBECDBF1B01109243040E94F60EFB
:103430000E943B0F609141047091420486179707E8
:10344000B8F381E094E00E942D0F20912104822F97
:1034500090E0B82FAA2780912204A80FB11DBA834B
:10346000A9838091250490E0982F88270091260455
:10347000080F192F111D80911D0490E0982F8827A7
:1034800020911E04820F911DF10191838083848D10
:10349000882319F0C1010E947D18E981FA81D101C8
:1034A0001396FC93EE9312975C968C91882319F0F7
:1034B000C1010E947D18D10115961C930E9314979B
:1034C0005C968C91882319F0C1010E947D18B091FF
:1034D0001504EB2FF0E03E2F222780911604280FD1
:1034E000311D3A8329838091190490E0982F882711
:1034F00000911A04080F192F111D8091110490E0FA
:10350000982F882720911204820F911DD1011796C0
:103510009C938E9316975C968C91882319F0C10129
:103520000E947D1829813A81F10131872087848D9D
:10353000882319F0C1010E947D18D1011B961C93AC
:103540000E931A975C968C91882319F0C1010E9402
:103550007D18A09005046A2D70E0762F6627A09054
:103560000604A60EB72EB11C00910904602F70E06E
:10357000762F662700910A04060F172F111DB091B0
:103580000D046B2F70E0762F6627E0910E042E2F2E
:10359000260F372F311D3E832D8360910104862F26
:1035A00090E0982F882760910204680F792F711D91
:1035B000072E000C880B990B0E94222A20E030E095
:1035C00040E858E30E94DD2A6B017C01C092E005CF
:1035D000D092E105E092E205F092E305B501BB0C63
:1035E000880B990B0E94222A20E030E040E858E343
:1035F0000E94DD2A2B013C014092E4055092E50532
:103600006092E6057092E705B801110F880B990BDF
:103610000E94222A20E030E040E858E30E94DD2AA0
:1036200069837A838B839C836093E8057093E905B3
:103630008093EA059093EB05AD81BE81BD01BB0F80
:10364000880B990B0E94222A20E030E040E858E3E2
:103650000E94DD2A6D837E838F8398876093EC05BB
:103660007093ED058093EE059093EF059B01AC01FF
:10367000C301B2010E94DD2A4B015C0129813A811C
:103680004B815C81C701B6010E94DD2A9B01AC0120
:10369000C501B4010E9499289B01AC010E949A289F
:1036A00069877A878B879C876093D4057093D5054B
:1036B0008093D6059093D705A3019201C701B60167
:1036C0000E94DD2A4B015C012D813E814F8158858E
:1036D00069817A818B819C810E94DD2A9B01AC01EA
:1036E000C501B4010E949A289B01AC010E949A284E
:1036F0006D877E878F87988B6093D8057093D905E7
:103700008093DA059093DB05A7019601C701B60106
:103710000E94DD2A4B015C01A3019201C301B201A9
:103720000E94DD2A9B01AC01C501B4010E949928C9
:103730004B015C0129813A814B815C81CA01B9014D
:103740000E94DD2A9B01AC01C501B4010E949928A9
:103750004B015C012D813E814F815885CA01B90121
:103760000E94DD2A9B01AC01C501B4010E949A2888
:103770004B015C018092DC059092DD05A092DE0594
:10378000B092DF05A7019601C701B6010E949A28F1
:10379000698B7A8B8B8B9C8BA3019201C301B20145
:1037A0000E949A286D8B7E8B8F8B988FA701960134
:1037B00069897A898B899C890E94DD2A6B017C0149
:1037C000A30192016D897E898F89988D0E94DD2ADF
:1037D0009B01AC01C701B6010E949A2820E030E0AD
:1037E00040E85FE30E9499286B017C0129813A81BE
:1037F0004B815C816D897E898F89988D0E94DD2A3D
:103800002B013C012D813E814F81588569897A8940
:103810008B899C890E94DD2A9B01AC01C301B20106
:103820000E949928A70196010E9419296B017C0129
:10383000C092F503D092F603E092F703F092F803FA
:10384000A5019401C501B4010E94DD2A4B015C0170
:103850002D853E854F855889CA01B9010E94DD2A10
:10386000A50194010E949A280E94502B9B01AC0153
:1038700069857A858B859C850E9478290E944929D3
:103880006093F9037093FA038093FB039093FC0316
:1038900029853A854B855C85CA01B9010E94DD2ADC
:1038A000A50194010E949A280E94502B9B01AC0113
:1038B0006D857E858F8598890E9478290E94492987
:1038C0006093FD037093FE038093FF0390930004C5
:1038D00020E030E044E353E4C701B6010E94DD2A52
:1038E0002BED3FE049E450E40E9478290E94EA2948
:1038F000F10177836683848D882319F0C1010E94CA
:103900007D1820E030E044E353E46091F9037091C6
:10391000FA038091FB039091FC030E94DD2A2BEDBA
:103920003FE049E450E40E9478290E94EA29D1014D
:1039300019967C936E9318975C968C91882319F056
:10394000C1010E947D1820E030E044E353E460911F
:10395000FD037091FE038091FF03909100040E948B
:10396000DD2A2BED3FE049E450E40E9478290E94D3
:10397000EA29F10173876287848D8823D9F0C10118
:1039800068960FB6F894DEBF0FBECDBFDF91CF9122
:103990001F910F91FF90EF90DF90CF90BF90AF906D
:1039A0009F908F907F906F905F904F903F902F905F
:1039B0000C947D1868960FB6F894DEBF0FBECDBF8D
:1039C000DF91CF911F910F91FF90EF90DF90CF90FB
:1039D000BF90AF909F908F907F906F905F904F902F
:1039E0003F902F900895CF92DF92EF92FF920F9326
:1039F0001F93CF93DF938C01EB01FC0182810E9426
:103A00004E0582E390E00E94830B0E941D0A41E074
:103A100066E0F80182810E9445091092C2048093F9
:103A2000C10485EB95E00E94140B8C0185EB95E0B9
:103A30000E94140BE12CF82EE02AF12A85EB95E088
:103A40000E94140B6C0185EB95E00E94140B20E0A2
:103A5000C22AD82A85EB95E00E94140B8C0185EBD5
:103A600095E00E94140B20E0022B182BF982E882CB
:103A70008C8D882319F0CE010E947D18DB82CA82CA
:103A80008C8D882319F0CE010E947D181D830C8334
:103A90008C8D882359F0CE01DF91CF911F910F912A
:103AA000FF90EF90DF90CF900C947D18DF91CF9135
:103AB0001F910F91FF90EF90DF90CF900895FF92AC
:103AC0000F931F93CF93DF9388E0EAE6F1E0A9EC30
:103AD000B4E001900D928A95E1F709EC14E0D0E092
:103AE000C0E0F801F1908F01CE010E944228F81643
:103AF00021F06F2DCE010E944A282196C431D105B4
:103B000081F7DF91CF911F910F91FF9008951F9240
:103B10000F920FB60F9211248F939F938091E10023
:103B20009091E100937F9093E10083FF0FC010928A
:103B3000E90091E09093EB001092EC0092E39093F7
:103B4000ED001092F40498E09093F00082FF22C000
:103B500093E09093E9009091F200992319F09AE391
:103B60009093E8009091A204992341F09091A204CF
:103B700091509093A204911101C05D9A9091F30429
:103B8000992341F09091F30491509093F304911193
:103B900001C0289A84FF18C08091E2008E7E816067
:103BA0008093E2008091E1008F7E8093E10080911C
:103BB000A3048E7E80618093A3049F918F910F90C8
:103BC0000FBE0F901F90189580FFF7CF8091E200F5
:103BD0008E7E80618093E2008091E1008E7E8093F2
:103BE000E1008091A3048E7E8160E5CF1F920F9249
:103BF0000FB60F921124CF92DF92EF92FF920F93A4
:103C00001F932F933F934F935F936F937F938F9364
:103C10009F93AF93BF93EF93FF93CF93DF93CDB772
:103C2000DEB76C97DEBFCDBF1092E9008091E8004F
:103C300083FF25C068E0CE0145960E941C0682EFF6
:103C40008093E8008D8987FF39C09091E80090FF4C
:103C5000FCCF982F907609F034C19E894F89588DFA
:103C60002F89F88C911131C0803861F58091A404BE
:103C70008093F1001092F1008EEF8093E8006C9633
:103C80000FB6F894DEBF0FBECDBFDF91CF91FF918D
:103C9000EF91BF91AF919F918F917F916F915F91C4
:103CA0004F913F912F911F910F91FF90EF90DF90D7
:103CB000CF900F900FBE0F901F9018959EEF90938E
:103CC000E800C7CF1092F100D5CF913059F481119F
:103CD000D3CF4130510581F68091A4048D7F80932C
:103CE000A404CACF933049F48111C6CF41305105A5
:103CF00019F68091A4048260F2CF953041F480914E
:103D0000E80080FFFCCF20682093E300B5CF963019
:103D100009F0A9C00B8D1C8D22E01092E9001092D1
:103D2000A00410929F04F2122EC010929E041092D2
:103D30009D040E943D061F8299E09983FA8291E0DA
:103D40009E8390EA98879AEF998720919F043091FB
:103D5000A004275F3F4F3C832B838D831092E900A3
:103D60001092A00410929F0410939E0400939D044F
:103D700049E050E0BE016F5F7F4F80E00E94E505A3
:103D80000E943D0679CF10939E0400939D040E94EB
:103D90002906DC0112960D911C910115110509F4FB
:103DA00051C1D801ED91FC910480F581E02DBE0157
:103DB0006B5E7F4FC8010995009709F03EC1F8017D
:103DC00000851185EACFF3E0FF120EC08F898823AA
:103DD00009F440C0823061F440E868E08DE39AE085
:103DE0000E94B205811148CF81E28093EB0047CF5A
:103DF000813029F440E86BE081E39AE0F1CF833031
:103E000099F70E942906DC011296ED90FC908E0134
:103E10000F5F1F4F6801E114F10479F0D701ED91B4
:103E2000FC910680F781E02DB801C7010995080FC4
:103E3000111DF701E084F184EECFD8011C92F60148
:103E400001900020E9F73197BF016C197D0940E02E
:103E5000C601C6CF6BE17AE0FB01449150E080E8F7
:103E60000E94E50509CF973009F4BECF983021F4C0
:103E700081E08093F10000CF993009F0FDCE83708E
:103E800009F0B2CFEBE0F1E081E031E096E321917F
:103E9000222371F08093E9003093EB00DF0111974A
:103EA0002C912093EC009093ED008F5F873079F791
:103EB0008EE78093EA001092EA008F898093F404E1
:103EC000DBCE8B8D9C8D1092E9001092A004109295
:103ED0009F0490939E0480939D04898D811192C0CC
:103EE0008E899D89913A49F4813209F07DCF47E06E
:103EF00050E065E171E080E0B3CF913209F074CF1A
:103F0000833269F48F89988DB0E0A0E0809311012D
:103F100090931201A0931301B0931401ADCE80329F
:103F200069F48091E80082FFFCCF67E085E191E0D1
:103F30000E941C068BEF8093E8009ECE823209F02F
:103F40009BCE8F8980931C01EEEFFFE785919491C2
:103F50008B3F9C4D51F1E0E0F8E08091150190918C
:103F60001601A0911701B0911801803B9440A10562
:103F7000B105F1F480911C0180FD1AC0EE3F8AE08A
:103F8000F80789F587E797E7918380838091600040
:103F90008093A10488E19BE00FB6F894A8958093E4
:103FA00060000FBE9093600067CEEEEFFAE0D5CFD1
:103FB000808191818737974709F05ECEA8958091DF
:103FC00060008861809360008091A104809360000C
:103FD000EE3F2AE0F20789F08091FE0A9091FF0AF5
:103FE0009183808349CE808191818737980751F2F0
:103FF0009093FF0A8093FE0AC5CF1092FF0A109299
:10400000FE0A3ACE0E942906DC0112960D911C91FF
:104010000115110509F4E8CED801ED91FC9101904C
:10402000F081E02DBE016B5E7F4FC80109958111C3
:1040300023CEF80100851185EBCF181619060CF474
:104040001BCED2CEF1E0FF12BECE6FE17AE004CFFC
:104050001F920F920FB60F9211242F933F938F93BD
:104060009F93AF93BF938091890490918A04A0910C
:104070008B04B0918C043091880423E0230F2D37FA
:1040800058F50196A11DB11D2093880480938904E1
:1040900090938A04A0938B04B0938C0480918D0438
:1040A00090918E04A0918F04B09190040196A11D6F
:1040B000B11D80938D0490938E04A0938F04B093D0
:1040C0009004BF91AF919F918F913F912F910F904D
:1040D0000FBE0F901F90189526E8230F0296A11D82
:1040E000B11DD2CF1F920F920FB60F9211242F93B2
:1040F0003F934F935F936F937F938F939F93AF9370
:10410000BF93EF93FF93E0910801F09109010995A6
:10411000FF91EF91BF91AF919F918F917F916F919F
:104120005F914F913F912F910F900FBE0F901F9075
:1041300018951F920F920FB60F9211242F933F9351
:104140004F935F936F937F938F939F93AF93BF939F
:10415000EF93FF93E0910601F09107010995FF911C
:10416000EF91BF91AF919F918F917F916F915F91EF
:104170004F913F912F910F900FBE0F901F90189568
:104180001F920F920FB60F9211242F933F934F93CC
:104190005F936F937F938F939F93AF93BF93EF93AF
:1041A000FF93E0910401F09105010995FF91EF91D2
:1041B000BF91AF919F918F917F916F915F914F913F
:1041C0003F912F910F900FBE0F901F9018951F9247
:1041D0000F920FB60F9211242F933F934F935F933B
:1041E0006F937F938F939F93AF93BF93EF93FF93BF
:1041F000E0910201F09103010995FF91EF91BF91C8
:10420000AF919F918F917F916F915F914F913F916E
:104210002F910F900FBE0F901F9018951F920F9225
:104220000FB60F9211242F933F934F935F936F9389
:104230007F938F939F93AF93BF93EF93FF93E091FF
:104240000001F09101010995FF91EF91BF91AF91AC
:104250009F918F917F916F915F914F913F912F919E
:104260000F900FBE0F901F9018951F920F920FB6D0
:104270000F9211242F933F934F935F936F937F93EC
:104280008F939F93AF93BF93EF93FF938091B90068
:10429000887F803609F44AC0F0F5883209F4A7C057
:1042A00018F5803109F49BC0B8F4882309F4F9C0EB
:1042B000883009F494C0FF91EF91BF91AF919F9125
:1042C0008F917F916F915F914F913F912F910F90BF
:1042D0000FBE0F901F901895883109F488C0803266
:1042E00051F780933D0514C0803409F49DC040F41B
:1042F0008033B9F38833F9F680933D0585ECB0C07F
:10430000803509F485C0883509F496C0883499F65B
:104310000E943A14D0CF883909F48CC038F5883718
:1043200029F050F4883611F0803729F683E0809325
:104330005F051092870457C0883809F47BC0803924
:1043400019F0803809F0B7CF80918704803208F0E7
:1043500071C0E091870481E08E0F80938704809183
:10436000BB00F0E0E959FB4F80833DC0803B39F052
:10437000E0F4803A09F479C0883A09F09CCF84E0EF
:1043800080935F051092660410926504E091BD046D
:10439000F091BE0409958091650481110FC081E000
:1043A000809365041092450409C0803C09F4A6CFAF
:1043B000883C09F4A3CF883B09F07DCFE0916604E7
:1043C00081E08E0F80936604F0E0EB5BFB4F808111
:1043D0008093BB00909166048091650429C0809110
:1043E0003A058093BB0085EC8093BC0064CF90912C
:1043F0003C0580913B05981758F5E0913C0581E01C
:104400008E0F80933C05F0E0E75EFA4F8081E9CFA4
:10441000E0913C0581E08E0F80933C058091BB00CC
:10442000F0E0E75EFA4F808390913C0580913B0578
:104430009817C8F285E8D8CFE0913C0581E08E0F4F
:1044400080933C058091BB00F0E0E75EFA4F8083EB
:1044500080913E0581115CCF81E08093390584EA2B
:104460008093BC0010925F0526CF85EC8093BC0042
:1044700010925F0580918704803230F4E0918704C8
:10448000F0E0E959FB4F10826091870470E0E09101
:10449000BF04F091C00487E694E009951092870468
:1044A0000ACF10923D0534CF21E042E06AE68091C8
:1044B000C1050C949F0FE5E6F5E01382128288EEA9
:1044C00093E0A0E0B0E084839583A683B78327E4DC
:1044D00031E0318320832FEF3FEF35872487E5EBF1
:1044E000F5E01382128284839583A683B78389E5DE
:1044F00091E091838083E0EEF5E080E090E0A0E839
:10450000BFE380839183A283B383148215821682D2
:1045100017821086118612861386148615861686D3
:104520001786E4EDF5E01082118212821382148264
:10453000158216821782108611861286138688E6E7
:104540008093C1058093F0050895789484B58260C6
:1045500084BD84B5816084BD85B5826085BD85B527
:10456000816085BD80916E00816080936E001092A5
:104570008100809181008260809381008091810020
:1045800081608093810080918000816080938000B1
:104590008091910082608093910080919100816070
:1045A0008093910080919000816080939000809131
:1045B000C10084608093C1008091C10082608093BB
:1045C000C1008091C10081608093C1008091C300CF
:1045D00081608093C3008091C00082608093C0009E
:1045E0008091C20081608093C20080917A008460D3
:1045F00080937A0080917A00826080937A00809123
:104600007A00816080937A0080917A00806880933C
:104610007A001092F4041092A4041092A3048091E2
:10462000D70081608093D70080EA8093D80089B555
:10463000806189BD89B5826089BD09B400FEFDCF66
:1046400061E070E080E090E00E94E9078091D8008E
:104650008F7C80618093D8008091E000807F809380
:10466000E0008091E1008E7E8093E1008DE08093F8
:10467000E200559A209A1092C2041092C10410923E
:104680001605109215050E94060982E895E09093A0
:10469000BE048093BD0483E895E09093C0048093AA
:1046A000BF0409EC14E0D0E0C0E0CE010E94422833
:1046B000D8018D938D012196C431D105B1F748E021
:1046C00050E06AE671E089EC94E00E94B92D892BF4
:1046D00049F0E9ECF4E084E1DF011D928A95E9F705
:1046E0000E945F1D62E089E00E94930762E08AE019
:1046F0000E94930761E081E10E949307C8E0D0E047
:104700008C2F0E944E050E941D0A811107C0C335DF
:10471000D105F9F054F4CD31D105D9F02196C8373F
:10472000D10571F790E080E01FC0CE018856910955
:104730000297A0F784E090E00E94D72B23E331E0BA
:10474000DC0111963C932E931396DC93CE93129733
:104750000BC084E090E00E94D72B2DE331E0FC01F8
:1047600031832083D383C2839093F2048093F10436
:10477000009709F4DAC2DC01ED91FC910190F0811F
:10478000E02D099501E0029709F000E080E590E056
:104790000E94D72BEC01C02EE02E21E041E061E029
:1047A0000E945411D093F004C093EF048091F1045F
:1047B0009091F204DC01ED91FC910280F381E02DF7
:1047C00049EC54E0BE0109958091EF049091F0040A
:1047D000FC01148E0E947D186AE070E080E090E099
:1047E0000E94E907E12C00E4F02E88248A94982C9A
:1047F00054018091DD04882309F4E9C28091C30447
:104800009091C404892B91F48BEA91E00E94C30D2E
:104810000E94F30F21E030E03093C4042093C304DE
:1048200068EE73E080E090E00E94E9078091C304A5
:104830009091C404019709F032C18EEC91E00E947E
:10484000C30D8091AF049091B00497FD079613E0DB
:10485000959587951A95E1F7919581959109909392
:10486000BC048093BB048091AD049091AE0497FD8D
:104870000796D3E095958795DA95E1F7919581951F
:1048800091099093BA048093B9048091AB049091FC
:10489000AC04D701A81BB90BCD01B7FD0796C3E047
:1048A00095958795CA95E1F79093B8048093B704DE
:1048B0008091A9049091AA0497FD039695958795F8
:1048C000959587959195819591099093B6048093DC
:1048D000B5048091A7049091A80497FD039695953F
:1048E0008795959587959195819591099093B404B5
:1048F0008093B3048091A5049091A60497FD03963C
:104900009595879595958795919581959109909322
:10491000B2048093B1040091BB041091BC04A801BF
:1049200066E08091F0050E94C80BC091B904D09157
:10493000BA04AE0168E08091F0050E94C80BC090F7
:10494000B704D090B804A6016AE08091F0050E94F7
:10495000C80B2090B5043090B604A10163E18091AA
:10496000F0050E94C80B4090B3045090B404A2011B
:1049700065E18091F0050E94C80B6090B1047090D1
:10498000B204A30167E18091F0050E94C80B0E9468
:10499000F30F8AEC91E00E94C30D8091AF049091D7
:1049A000B0049C0197FF04C022273327281B390B32
:1049B000293031050CF4CBC197FD0796E3E09595BE
:1049C0008795EA95E1F7081B190B1093BC04009337
:1049D000BB0430E020E08091AD049091AE04AC01C6
:1049E00097FF04C044275527481B590B49305105F0
:1049F0000CF0B0C12F5F3F4F4091AB045091AC041D
:104A0000C701841B950B5054181619060CF4AC0101
:104A1000493051050CF0ACC12F5F3F4F8091A90484
:104A20009091AA04AC0197FF04C044275527481B66
:104A3000590B423051050CF0A9C12F5F3F4F8091B7
:104A4000A7049091A804AC0197FF04C04427552700
:104A5000481B590B423051050CF0A3C12F5F3F4F4B
:104A60008091A5049091A604AC0197FF04C044274F
:104A70005527481B590B423051050CF09DC125307C
:104A8000310509F048CFE2E0F0E0F093C404E09390
:104A9000C30468EE73E080E090E00E94E907809133
:104AA000C3049091C404029709F096C20E94F30FC8
:104AB00086EE91E00E94C30D81EF91E00E94D10D3E
:104AC0008091AF049091B0040E94D30D8FE092E0EA
:104AD0000E94D10D8091AD049091AE040E94D30D3F
:104AE0008FE092E00E94D10D8091AB049091AC04D4
:104AF0000E94D30D8FE092E00E94D10D8091A90415
:104B00009091AA040E94D30D8FE092E00E94D10DF3
:104B10008091A7049091A8040E94D30D8FE092E0A9
:104B20000E94D10D8091A5049091A6040E94D30DFE
:104B300087E691E00E94B60D81E192E00E94D10DDE
:104B40008091BB049091BC040E94D30D8FE092E051
:104B50000E94D10D8091B9049091BA040E94D30DA6
:104B60008FE092E00E94D10D8091B7049091B8043B
:104B70000E94D30D8FE092E00E94D10D8091B50488
:104B80009091B6040E94D30D8FE092E00E94D10D67
:104B90008091B3049091B4040E94D30D8FE092E011
:104BA0000E94D10D8091B1049091B2040E94D30D66
:104BB00087E691E00E94B60D80E292E00E94C30D6C
:104BC00089E592E00E94C30D86E992E00E94C30D40
:104BD0008091BB049091BC049093D2048093D10443
:104BE0008091B9049091BA049093D4048093D30433
:104BF0008091B7049091B8049093D6048093D50423
:104C00008091B5049091B6049093D8048093D70412
:104C10008091B3049091B4049093DA048093D90402
:104C20008091B1049091B2049093DC048093DB04F2
:104C30000E945F1D1092DD048091DD048111CCC1C2
:104C40008091F1049091F204009759F06091EF0483
:104C50007091F004DC01ED91FC910480F581E02D70
:104C60000995C091EF04D091F0048AE00E943C07BE
:104C70006C0181E0C114D10409F080E08093ED045F
:104C800089E00E943C078C0181E00115110509F0C3
:104C900080E08093EE048D8DCD2809F450C18823E7
:104CA00009F4E4C1EA8DFB8D80818E7F80838C8D39
:104CB000882319F0CE010E947D18012B09F4D9C177
:104CC0008D8D823058F0EA8DFB8D80818D7F8083C1
:104CD0008C8D882319F0CE010E947D180E94CB088C
:104CE000AB01BC018091E9049091EA04A091EB042E
:104CF000B091EC048C509E4FAF4FBF4F8417950777
:104D0000A607B70708F062C14093E9045093EA048C
:104D10006093EB047093EC048091E804882309F419
:104D200016C11092E80461E04EC180E590E00E9457
:104D3000D72BEC01C12CE12C00E020E040E060E04A
:104D40000E945411D093F004C093EF043DCD21E0B4
:104D500030E041CE97FD079673E0959587957A955B
:104D6000E1F7C81BD90BD093BA04C093B90444CE61
:104D700097FD079663E0959587956A95E1F78C0D09
:104D80009D1D9093B8048093B70448CE97FD01967B
:104D900095958795281A390A3092B6042092B50461
:104DA0004ECE97FD019695958795481A590A5092CF
:104DB000B4044092B30454CE97FD0196959587951F
:104DC000681A790A7092B2046092B104A4CD0E946C
:104DD000CB08AB01BC018091ED04882309F4A6C087
:104DE0008091EE04882309F4A1C08091C5049091BC
:104DF000C604A091C704B091C804805E914BAF4F28
:104E0000BF4F84179507A607B70708F019CFF1E041
:104E1000F093DD041092C2041092C10410921605A2
:104E2000109215050E94060922E835E03093BE0471
:104E30002093BD0483E895E09093C0048093BF0461
:104E400098E19093B800AFEFBFEFB0937205A093D5
:104E5000710580EF95E00E94D20F85E695E00E94F3
:104E6000D606892B31F085E695E00E949406892BC1
:104E7000A1F78CE293E00E94C30D60ED77E080E043
:104E800090E00E94E90788E493E00E94C30D68EB7C
:104E90007BE080E090E00E94E90728EE33E041EFFC
:104EA00055E065E78091F0050E940B0F8091F105B8
:104EB0008433C9F583E791E00E94C30D68EE73E087
:104EC00080E090E00E94E90750E040E066E08091D9
:104ED000F0050E94C80B50E040E068E08091F005CA
:104EE0000E94C80B50E040E06AE08091F0050E940B
:104EF000C80B50E040E063E18091F0050E94C80BD0
:104F000050E040E065E18091F0050E94C80B50E060
:104F100040E067E18091F0050E94C80B1092C40444
:104F20001092C30489CE81E991E0C6CF4093C504B5
:104F30005093C6046093C7047093C8047DCE882341
:104F400009F494C0EA8DFB8D80818160AFCE4091E1
:104F5000E4045091E5046091E6047091E704473061
:104F600051056105710508F078C0FA01E654F84D65
:104F70000C94BD2BC127F427FD270D281D28C82719
:104F8000C8279D8D992321F0EA8DFB8D808181704A
:104F90004091E4045091E5046091E6047091E704C7
:104FA0004F5F5F4F6F4F7F4F4093E4045093E50492
:104FB0006093E6047093E704B1E0B093E80460E026
:104FC000882309F4B0CE81E10E9465078091EF0447
:104FD0009091F0040E947D18E0E0F0E0EF2B09F4DE
:104FE00008CC0E94000005CC9D8D923088F2EA8D9D
:104FF000FB8D808186958170CBCF2881398181E0BE
:105000004091E2045091E3044217530709F480E011
:105010003093E3042093E204BBCF2A813B8181E0FB
:105020004091E0045091E1044217530709F480E0F5
:105030003093E1042093E004ABCF2C813D8181E0EB
:105040004091DE045091DF044217530709F480E0D9
:105050003093DF042093DE049BCF8092E40490928F
:10506000E504A092E604B092E70492CF012B09F088
:1050700035CE8D8D823008F431CEEA8DFB8D808166
:10508000826025CEF999FECF92BD81BDF89A99270D
:1050900080B50895262FF999FECF1FBA92BD81BD24
:1050A00020BD0FB6F894FA9AF99A0FBE01960895AA
:1050B000052E97FB1EF400940E946F2857FD07D021
:1050C0000E94772807FC03D04EF40C946F2850956B
:1050D0004095309521953F4F4F4F5F4F08959095E4
:1050E0008095709561957F4F8F4F9F4F0895A1E2F6
:1050F0001A2EAA1BBB1BFD010DC0AA1FBB1FEE1F52
:10510000FF1FA217B307E407F50720F0A21BB30B9C
:10511000E40BF50B661F771F881F991F1A9469F718
:1051200060957095809590959B01AC01BD01CF0174
:1051300008955058BB27AA270E94B1280C949B2A97
:105140000E948D2A38F00E94942A20F039F49F3F63
:1051500019F426F40C94632A0EF4E095E7FB0C9402
:105160005D2AE92F0E94AC2A58F3BA176207730729
:105170008407950720F079F4A6F50C94CE2A0EF456
:10518000E0950B2EBA2FA02D0B01B90190010C0157
:10519000CA01A0011124FF27591B99F0593F50F46F
:1051A000503E68F11A16F040A22F232F342F4427C7
:1051B000585FF3CF469537952795A795F0405395BF
:1051C000C9F77EF41F16BA0B620B730B840BBAF08F
:1051D0009150A1F0FF0FBB1F661F771F881FC2F7FA
:1051E0000EC0BA0F621F731F841F48F4879577950E
:1051F0006795B795F7959E3F08F0B0CF9395880FC8
:1052000008F09927EE0F9795879508950E948D2AAB
:1052100060F080E891E009F49EEF0E94942A28F063
:1052200040E851E071F45EEF0CC00C94632A0C94DA
:10523000CE2AE92FE0780E94AC2A40F3092E052AF5
:10524000B1F3261737074807590738F00E2E07F82D
:10525000E02569F0E025E0640AC0EF6307F80094F8
:1052600007FADB01B9019D01DC01CA01AD01EF9331
:105270000E948F290E949B2A0E9449295F915523F1
:1052800039F02BED3FE049E450FD49EC0C949A28AD
:105290000895DF93DD27B92FBF7740E85FE3161647
:1052A000170648075B0718F4D92F0E94D52A9F9349
:1052B0008F937F936F930E94902BECEAF0E00E9413
:1052C000662A0E949B2A2F913F914F915F910E94E5
:1052D000F02ADD2351F09058A2EA2AED3FE049EC94
:1052E0005FE3D0785D270E94B128DF910C949B2A60
:1052F0000E948C290C949B2A0E94942A58F00E94A8
:105300008D2A40F029F45F3F29F00C945D2A511159
:105310000C94CF2A0C94632A0E94AC2A68F3992338
:10532000B1F3552391F3951B550BBB27AA276217A1
:105330007307840738F09F5F5F4F220F331F441FAE
:10534000AA1FA9F335D00E2E3AF0E0E832D09150E2
:105350005040E695001CCAF72BD0FE2F29D0660FCF
:10536000771F881FBB1F261737074807AB07B0E812
:1053700009F0BB0B802DBF01FF2793585F4F3AF018
:105380009E3F510578F00C945D2A0C94CF2A5F3F24
:10539000E4F3983ED4F3869577956795B795F7959E
:1053A0009F5FC9F7880F911D9695879597F9089586
:1053B000E1E0660F771F881FBB1F62177307840722
:1053C000BA0720F0621B730B840BBA0BEE1F88F731
:1053D000E09508950E94F1296894B1110C94CF2AA8
:1053E00008950E94B42A88F09F5798F0B92F992702
:1053F000B751B0F0E1F0660F771F881F991F1AF0C0
:10540000BA95C9F714C0B13091F00E94CE2AB1E02C
:1054100008950C94CE2A672F782F8827B85F39F02B
:10542000B93FCCF3869577956795B395D9F73EF458
:1054300090958095709561957F4F8F4F9F4F089500
:10544000E89409C097FB3EF490958095709561951E
:105450007F4F8F4F9F4F9923A9F0F92F96E9BB27D4
:105460009395F695879577956795B795F111F8CF50
:10547000FAF4BB0F11F460FF1BC06F5F7F4F8F4FBB
:105480009F4F16C0882311F096E911C0772321F0B1
:105490009EE8872F762F05C0662371F096E8862F49
:1054A00070E060E02AF09A95660F771F881FDAF7A0
:1054B000880F9695879597F9089597F99F6780E8E3
:1054C00070E060E008959FEF80EC0895DF93CF9344
:1054D0001F930F93FF92EF92DF927B018C016894F0
:1054E00006C0DA2EEF010E94F02AFE01E894A59191
:1054F0002591359145915591A6F3EF010E94B12870
:10550000FE019701A801DA9469F7DF90EF90FF9010
:105510000F911F91CF91DF91089500240A941616E0
:10552000170618060906089500240A941216130691
:10553000140605060895092E0394000C11F488231F
:1055400052F0BB0F40F4BF2B11F460FF04C06F5F3B
:105550007F4F8F4F9F4F089557FD9058440F551F11
:1055600059F05F3F71F04795880F97FB991F61F0E5
:105570009F3F79F087950895121613061406551F5C
:10558000F2CF4695F1DF08C0161617061806991FC8
:10559000F1CF86957105610508940895E894BB27BD
:1055A00066277727CB0197F908959B01AC0160E04E
:1055B00070E080E89FE30C9478290E94F02A0C9414
:1055C0009B2A0E948D2A38F00E94942A20F095236D
:1055D00011F00C945D2A0C94632A11240C94CF2AA8
:1055E0000E94AC2A70F3959FC1F3950F50E0551FB0
:1055F000629FF001729FBB27F00DB11D639FAA2728
:10560000F00DB11DAA1F649F6627B00DA11D661F76
:10561000829F2227B00DA11D621F739FB00DA11D97
:10562000621F839FA00D611D221F749F3327A00D51
:10563000611D231F849F600D211D822F762F6A2FED
:1056400011249F5750409AF0F1F088234AF0EE0F52
:10565000FF1FBB1F661F771F881F91505040A9F77F
:105660009E3F510580F00C945D2A0C94CF2A5F3F39
:10567000E4F3983ED4F3869577956795B795F795BB
:10568000E7959F5FC1F7FE2B880F911D9695879533
:1056900097F9089519F416F40C94632A0C94942B3A
:1056A0000E94B42AB8F39923C9F3B6F39F57550B58
:1056B00087FF0E94A22B0024A0E640EA90018058B8
:1056C0005695979528F4805C660F771F881F20F009
:1056D00026173707480730F4621B730B840B202909
:1056E00031294A2BA69517940794202531254A275E
:1056F00058F7660F771F881F20F0261737074807CF
:1057000030F4620B730B840B200D311D411DA095ED
:1057100081F7B901842F9158880F96958795089540
:105720009B01AC010C94DD2A9F3F31F0915020F495
:10573000879577956795B795880F911D969587956D
:1057400097F9089591505040660F771F881FD2F740
:10575000089597FB072E16F4009407D077FD09D023
:105760000E94C32B07FC05D03EF4909581959F4F76
:105770000895709561957F4F0895EE0FFF1F059076
:10578000F491E02D0994AA1BBB1B51E107C0AA1F8D
:10579000BB1FA617B70710F0A61BB70B881F991FD2
:1057A0005A95A9F780959095BC01CD0108950F9366
:1057B0001F93CF93DF938230910510F482E090E045
:1057C000E0910106F091020630E020E0B0E0A0E0B8
:1057D000309799F42115310509F44AC0281B390B7B
:1057E00024303105D8F58A819B816115710589F1D5
:1057F000FB0193838283FE0111C0408151810281AC
:10580000138148175907E0F04817590799F4109782
:1058100061F012960C93129713961C933296CF0157
:10582000DF91CF911F910F9108950093010610937E
:105830000206F4CF2115310551F04217530738F015
:10584000A901DB019A01BD01DF01F801C1CFEF0120
:10585000F9CF9093020680930106CDCFFE01E20FAF
:10586000F31F819391932250310939832883D7CF35
:105870002091FF0530910006232B41F420911F0158
:1058800030912001309300062093FF0520911D01E7
:1058900030911E012115310541F42DB73EB74091DD
:1058A000210150912201241B350BE091FF05F0915D
:1058B0000006E217F307A0F42E1B3F0B2817390749
:1058C00078F0AC014E5F5F4F2417350748F04E0F5C
:1058D0005F1F509300064093FF05819391939FCFE4
:1058E000F0E0E0E09CCFCF93DF930097E9F0FC017C
:1058F000329713821282A0910106B0910206ED0147
:1059000030E020E01097A1F420813181820F931FB5
:105910002091FF05309100062817390709F061C072
:10592000F0930006E093FF05DF91CF910895EA011F
:10593000CE17DF07E8F54A815B819E0141155105CD
:10594000B1F7E901FB83EA8349915991C40FD51F4F
:10595000EC17FD0761F4808191810296840F951FF9
:10596000E90199838883828193819B838A83F0E014
:10597000E0E012968D919C9113970097B9F52D91C7
:105980003C911197CD010296820F931F2091FF0544
:10599000309100062817390739F6309751F51092E3
:1059A000020610920106B0930006A093FF05BCCF3B
:1059B000D383C28340815181840F951FC817D907B3
:1059C00061F44E5F5F4F88819981480F591F518361
:1059D00040838A819B81938382832115310509F05D
:1059E000B0CFF0930206E09301069ECFFD01DC01EB
:1059F000C0CF13821282D7CFB0E0A0E0E2E0FDE298
:105A00000C94D12D8C01009751F4CB010E94D72B1F
:105A10008C01C801CDB7DEB7E0E10C94ED2DFC019F
:105A2000E60FF71F9C0122503109E217F30708F433
:105A30009DC0D901CD91DC911197C617D70798F079
:105A4000C530D10530F3CE0104978617970708F3C8
:105A5000C61BD70B2297C193D1936D937C93CF0133
:105A60000E94732CD6CF5B01AC1ABD0A4C018C0E80
:105A70009D1EA0910106B0910206512C412CF12CE3
:105A8000E12C109731F58091FF0590910006881563
:105A9000990509F05CC04616570608F058C0809179
:105AA0001D0190911E01009741F48DB79EB7409162
:105AB000210150912201841B950BE817F90708F08A
:105AC00055C0F0930006E093FF05F90171836083F0
:105AD000A0CF8D919C91119712966C90129713966E
