:100000000C9428050C94751E0C944E1E0C94271EFF
:100010000C94001E0C9450050C9450050C94D91DA2
:100020000C9450050C9450050C949C1E0C940B1FC2
:100030000C9450050C9450050C9450050C945005EC
:100040000C9450050C9450050C9450050C945005DC
:100050000C9450050C9450050C9450050C948F1D75
:100060000C9450050C9450050C9450050C945005BC
:100070000C9450050C9450050C9450050C945005AC
:100080000C9450050C9450050C9450050C9450059C
:100090000C943D210C9450050C9450050C94500583
:1000A0000C9450050C9450050C945005084AD73B0D
:1000B0003BCE016E84BCBFFDC12F3D6C74319ABD37
:1000C00056833DDA3D00C77F11BED9E4BB4C3E915B
:1000D0006BAAAABE000000803F0001B202FFFF0130
:1000E00090040923A135016A02060001600800009E
:1000F00000000000000000600440000000016202F7
:10010000000000600400400000037B034CCD6C0342
:10011000AB0336567600680402CB47A202180400EF
:10012000058BC1010C0400000000037F060CC92CE4
:10013000979797038903264666006C0220000240C9
:100140000400000000024404000000000248040013
:10015000000000024C0400000000025004000000F7
:1001600000025404000000000258040000000002D5
:100170005C040000000002BC040000000001EC046C
:1001800000004000037F060CC92C979797040203D8
:100190000D355D040904872D353D00A301000000E5
:1001A0000001078601FE074105F120283038077E4F
:1001B00001300746019A074704F1283038076C04DC
:1001C000F12830380216020002FB00003E000B004E
:1001D00036000100020003000000650054FFEF003C
:1001E00000FA80000B1282000100020000000000F3
:1001F00000000000000000000000280000FFFF4594
:1002000081FFFFFA7200000000000003E800000018
:100210000100017FFFFFFE8001001B0000000000C5
:10022000000000000000000000003E03304000001D
:100230000002CAE3093E8000002000000000000028
:1002400000400000006000000041FF000000000BC3
:100250002A0000165500002182FD872650FD8000EF
:1002600000001F00000005800000000000000100E9
:100270000000020000000300004000000000000435
:100280006F0002653200005EC04000000000000008
:10029000000000000000000000FB8C6F5DFD5D08A9
:1002A000D9007C733B006C12CC3200139D3200D01D
:1002B000D632000800400001F4FFE6807902000019
:1002C000000000D0D600002710FB00000040000016
:1002D000000000000000000000000000010000001D
:1002E0000000000100010000000000FA36FFBC30F1
:1002F0008E0005FBF0FFD95BC8FFD09ABE0000104E
:10030000A9FFF41EB200CEBBF70000000100000000
:1003100004000200020200000CFFC2800000018005
:100320000000CF800040000000000000010000003D
:1003300000000006000000001400000000000000A3
:1003400000000000000000000000000000000000AD
:10035000000000000000000000000000000000009D
:1003600000000000000000000000000000033F68E3
:10037000B6793528BCC67ED16C80000000400000F4
:10038000000000B26A000000000000000000000051
:100390000000003FF00000003000000000000000FE
:1003A000000000000000000000000000000000004D
:1003B0000000000000000000000000254D002F702C
:1003C0006D000005AE000C02D000000000006500CA
:1003D00054FFEF0000000000000000010000440096
:1003E0000000000C0000000100000000000065009B
:1003F0000000540000FFEF000000000000000000BB
:1004000000000000000000000040000000000000AC
:10041000000000000000000000400000000000009C
:1004200000000000000000000000000001000000CB
:1004300002000000000000000000000000000000BA
:1004400000000000000000000000000000000000AC
:10045000000000000000000000001B000000000081
:10046000000000000000000000000000000000008C
:10047000000000000000000000000000000000007C
:10048000000000000040000000001B000000000011
:10049000000000000000000000000000000000005C
:1004A000000000000000000000000000000000004C
:1004B000000000000000000000000000000000003C
:1004C000000000000000000000D8DCBAA2F1DEB29B
:1004D000B8B4A88191F74A907F916AF3F9DBA8F943
:1004E000B0BAA080F2CE81F3C2F1C1F2C3F3CCA2C4
:1004F000B280F1C6D880BAA7DFDFDFF2A7C3CBC5D1
:10050000B6F087A2942448703C95406834589B7894
:10051000A2F183922D557DD8B1B4B8A1D09180F2CB
:1005200070F370F27C80A8F101B09887D943D88627
:10053000C988BAA1F20EB89780F1A9DFDFDFAADF80
:10054000DFDFF2AAC5CDC7A90CC92C97979797F101
:10055000A989264666B0B4BA80ACDEF2CAF1B28C84
:1005600002A9B69800890E161EB8A9B4992C547C1D
:10057000B08AA896365676F1B9AFB4B083C0B8A8A1
:100580009711B18F98B9AFF0240844106418F1A303
:1005900029557DAF83B593AFF0002850F1A3869F16
:1005A00061A6DADEDFD9FAA38696DB31A6D9F8DFB9
:1005B000BAA68FC2C5C7B28CC1B8A2DFDFDFA3DF86
:1005C000DFDFD8D8F1B8A8B286B4980D355DB8AAE7
:1005D00098B0872D353DB2B6BAAF8C96198F9FA7CC
:1005E0000E161EB49AB8AA872C547CB9A3DEDFDF9E
:1005F000A3B180F2C4CDC9F1B8A9B499830D355D1A
:1006000089B9A32D557DB593A30E161EA92C547C34
:10061000B8B4B0F19783A81184A50998A383F0DA40
:10062000240844106418D8F1A529557DA5859502A4
:100630001A2E3A565A4048F9F3A3D9F8F098832471
:1006400008441064189782A8F111F098A224084475
:10065000106418DAF3DED883A59401D9A302F1A2BD
:10066000C3C5C7D8F18492A24DDA2AD84869D92ADD
:10067000D86855DA32D85071D932D8705DDA3AD8A4
:100680005879D93AD87893A34DDA2AD84869D92A23
:10069000D86855DA32D85071D932D8705DDA3AD884
:1006A0005879D93AD878A88A9AF02850789EF38851
:1006B00018F19F1D98A8D908D8C89F129EF315A8B5
:1006C000DA1210D8F1AFC8978734B5B994A421F3E2
:1006D000D922D8F22DF3D92AD8F235F3D932D881DC
:1006E000A4606061D961D86C6869D969D874707187
:1006F000D971D8B1A384193D5DA3831A3E5E9310CE
:1007000030811011B8B0AF8F94F2DA3ED8B49AA805
:100710008729DAF8D8879A35DAF8D8879A3DDAF84F
:10072000D8B1B9A49885022E56A581000C14A397C0
:10073000B08AF12DD928D84DD948D86DD968D8B10B
:10074000840DDA0ED8A32983DA2C0ED8A38449832A
:10075000DA2C4C0ED8B8B0A88A9AF520AADADFD8DD
:10076000A840AAD0DADED8A860AADAD0DFD8F197FC
:1007700086A8319B069907AB9728889BF00C20141C
:1007800040B8B0B4A88C9CF0042851791D301438BE
:10079000B282ABD0982C505078789BF11AB0F08A86
:1007A0009CA82951798B2951798A2470598B20581A
:1007B000718A4469388B3940688A6448318B304982
:1007C00060A588200971584468113964493019F1CD
:1007D000AC002C547CF08CA804285078F188972623
:1007E000A85998AC8C02264666F0899CA8295179B4
:1007F000247059446938644831A98809205970AB7C
:1008000011384069A8193148608CA83C415C207CB3
:1008100000F187981986A86E767EA999882D557D56
:100820009EB9A38A228A6E8A568A5E9FB183062663
:1008300046660E2E4E6E9DB8AD002C547CF2B18CE7
:10084000B499B9A32D557D8191AC38AD3AB583915A
:10085000AC2DD928D84DD948D86DD968D88C9DAE43
:1008600029D904AED851D904AED879D904D881F3A6
:100870009DAD008DAE1981ADD901D8F2AEDA26D882
:100880008E912983A7D9ADADADADF32AD8D8F1B0FB
:10089000AC89913E5E76F3AC2E2EF1B18C5A9CACB5
:1008A0002C2828289CAC3018A8988128343C972400
:1008B000A728343C9C24F2B089AC912C4C6C8A9BC8
:1008C0002DD9D8D851D9D8D879D9D8D8F19E88A3DC
:1008D00031DAD8D8912DD928D84DD948D86DD968D2
:1008E000D8B18393353D8025DAD8D88569DAD8D850
:1008F000B49381A328343CF3AB8BF8A391B609B42D
:10090000D9ABDEFAB0879CB9A3DDF1A3A3A3A3956D
:10091000F1A3A3A39DF1A3A3A3A3F2A3B49080F298
:10092000A3A3A3A3A3A3A3A3A3A3B2A3A3A3A3A388
:10093000A3B087B599F1A3A3A398F1A3A3A3A39709
:10094000A3A3A3A3F39BA3A3DCB9A7F1262626D8D0
:10095000D8FF080B00020202000009040000010297
:1009600002000005240010010524010101042402F5
:100970000605240600010705810310004009040153
:1009800000020A000000070502024000000705837C
:10099000024000000403090412010002EF020140BA
:1009A0004123368000010102030141726475696EC2
:1009B0006F204C4C430048616E6462656C6C0000B3
:1009C0006000000000000000000000240027002A52
:1009D000002D00300000000000250028002B002E14
:1009E000003100000000002300260029002C002F09
:1009F00000040404040403040502020202040302C6
:100A000002020206060606060604040202020404A6
:100A100004080201104080401020408040800802FD
:100A2000040180402010020110801020404020006E
:100A300000000200090F0000030401000C00000088
:100A40000000000000000000000000000000632221
:100A500011241FBECFEFDAE0DEBFCDBF13E0A0E070
:100A6000B1E0E4E1FCE502C005900D92A03DB107C4
:100A7000D9F726E0A0EDB3E001C01D92A330B20784
:100A8000E1F715E0C8E2D5E004C02197FE010E941D
:100A9000BF2BC732D107C9F70E94AD220C94082E94
:100AA0000C94000091E09093180580931705109224
:100AB0001605109215050895FC018091F404882311
:100AC00011F13FB7F89482E08093E9002091F200A1
:100AD000822F90E01816190614F481E090E0882324
:100AE00039F0289844E64093F3044091F1004083A4
:100AF000222339F02091F200211103C02BE620932C
:100B0000E8003FBF08958FEF9FEF089581508F3029
:100B100008F047C0E82FF0E0E057FA4F0C94BF2BE5
:100B2000AD05B1059F05A505A905D105D105D105DF
:100B3000B405BA05BE05C205C805D105CC0580912E
:100B400080008F77809380000895809180008F7D52
:100B5000F9CF80918000877FF5CF84B58F7784BDF2
:100B6000089584B58F7DFBCF809190008F7780931F
:100B700090000895809190008F7DF9CF8091900032
:100B8000877FF5CF8091C0008F778093C000089554
:100B90008091C0008F7DF9CF8091C200877F8093C4
:100BA000C2000895CF93DF93282F30E0F901E15D73
:100BB000F54F8491F901E05FF54FD491F901EF50C1
:100BC000F64FC491CC23A1F081110E948605EC2F31
:100BD000F0E0EE0FFF1FED51F64FA591B491EC91AF
:100BE000ED2381E090E009F480E0DF91CF9108955A
:100BF00080E090E0FACF1F93CF93DF93282F30E06F
:100C0000F901E15DF54F8491F901E05FF54FD49171
:100C1000F901EF50F64FC491CC23A9F0162F8111A2
:100C20000E948605EC2FF0E0EE0FFF1FEB52F64F0F
:100C3000A591B4918FB7F894EC91111108C0D0959B
:100C4000DE23DC938FBFDF91CF911F910895DE2BC0
:100C5000F8CFCF93DF9390E0FC01E05FF54F249154
:100C60008F50964FFC0184918823D1F090E0880F3B
:100C7000991FFC01E953F64FA591B491FC01EB5289
:100C8000F64FC591D491623071F49FB7F8943C91BE
:100C9000822F809583238C93E8812E2B28839FBFFE
:100CA000DF91CF9108958FB7F894EC912E2B2C9370
:100CB0008FBFF6CF3FB7F8948091EF049091F00486
:100CC000A091F104B091F20426B5A89B05C02F3F76
:100CD00019F00196A11DB11D3FBFBA2FA92F982F62
:100CE0008827BC01CD01620F711D811D911D42E05D
:100CF000660F771F881F991F4A95D1F708958F9225
:100D00009F92AF92BF92CF92DF92EF92FF924B01F0
:100D10005C010E945A066B017C010E945A066C1904
:100D20007D098E099F09683E734081059105A8F3EE
:100D300021E0821A9108A108B10888EEC80E83E06C
:100D4000D81EE11CF11C81149104A104B10429F7FF
:100D5000FF90EF90DF90CF90BF90AF909F908F90DB
:100D600008952FB7F8946091EB047091EC04809192
:100D7000ED049091EE042FBF08950895089508950D
:100D800040919604509197042091940430919504D9
:100D900042175307B4F49091E8009570E1F39091F5
:100DA000E80092FD19C08093F10080919604909123
:100DB000970401968F739927892B19F48EEF8093EE
:100DC000E80080919604909197040196909397047F
:100DD0008093960481E0089580E00895EF92FF9259
:100DE0000F931F93CF93DF93F82E192FE62E042F26
:100DF00081E0860F880F0E94C00683E00E94C00633
:100E0000CF2DD12FEC0EFD2EF11CCE15DF05B9F044
:100E100007FF13C0FE0184910E94C006182F80E0D6
:100E20000E94C006812321968111EFCFDF91CF91DF
:100E30001F910F91FF90EF9008958881EDCF81E091
:100E4000F5CFDF92EF92FF920F931F93CF93DF9333
:100E5000D82E8A01EB017B01E40EF51ECE15DF05CD
:100E600059F0D7FE12C0FE0184910E94C00621965F
:100E70008111F4CF0FEF1FEFC801DF91CF911F91C8
:100E80000F91FF90EF90DF9008958881EECF2FB7FC
:100E9000F89487708093E9009091E800892F807220
:100EA00095FF04C09091F20080E4891B2FBF089544
:100EB0007F928F929F92AF92BF92CF92DF92EF92EA
:100EC000FF920F931F93CF93DF93C82E8B017A016C
:100ED0008091F404811110C08FEF9FEFDF91CF91CB
:100EE0001F910F91FF90EF90DF90CF90BF90AF9048
:100EF0009F908F907F90089580919A0480FF05C005
:100F00008091E00082608093E000CE2DDF2DD12C17
:100F10008AEFB82E8C2D8770982E8C2D8072882E9B
:100F20008C2D8074782E9AE3A92E209719F4DD2059
:100F300009F452C08C2D0E94470781110AC0BA944F
:100F4000BB2051F261E070E080E090E00E947F06FB
:100F5000ECCF8C171D0611F00CF08C2F9FB7F89476
:100F60009092E9002091E80025FD02C09FBFDDCFEF
:100F7000282F30E0C21BD30B882029F08150A0F02D
:100F80001092F100FBCFF801C7FC0AC0815050F06D
:100F900041914093F100FACF44914093F100319692
:100FA0008150D0F7020F131FDD2021F0A092E8003E
:100FB000D12CDCCF8091E80085FD07C0A092E8002D
:100FC000DD24D394209791F2F3CF209779F6772000
:100FD00069F2A092E800CACF5D9884E680939904F4
:100FE000C7017CCF615030F02091F100FC012083DB
:100FF0000196F8CF289884E68093F30408958091B1
:101000008C0481110DC082E08093880484E0809379
:10101000890410928B0410928A0481E080938C04DE
:1010200088E894E008950F931F93CF93DF931F9266
:10103000CDB7DEB782E0898342E450E062E579E033
:1010400080E80E9421070E94FF07DC0112960D91A3
:101050001C910115110589F0D801ED91FC910280D8
:10106000F381E02DBE016F5F7F4FC801099597FDA9
:1010700004C0F80100851185ECCF89810F90DF91C4
:10108000CF911F910F910895CF93DF93EC01809141
:101090001201882331F083E00E94580718161906C0
:1010A00034F081E090E09B838A8380E090E0DF91E0
:1010B000CF910895CF93DF931F92CDB7DEB76983A9
:1010C000DC01ED91FC910280F381E02D41E050E0E4
:1010D000BE016F5F7F4F09950F90DF91CF9108950B
:1010E00083E08093E9008091F200882319F08AE37D
:1010F0008093E800089583E00E94470790E00895F8
:10110000CF93DF931F92CDB7DEB7FC018485958521
:1011100097FD08C02FEF3FEF358724870F90DF91B1
:10112000CF910895CE0101960E945C05019719F4B4
:10113000898190E0F3CF8FEF9FEFF0CF0F931F9354
:10114000CF93DF931F92CDB7DEB78C01FC0184856E
:10115000958597FF0BC0CE0101960E945C05019713
:1011600071F4898190E0F80195878487F80184857E
:1011700095850F90DF91CF911F910F9108958FEF7B
:101180009FEFF1CFFC018485958597FD0BC09FB73C
:10119000F89482E08093E9008091F2009FBF90E094
:1011A000019608959FB7F89482E08093E9008091BA
:1011B000F2009FBF90E008958091BA049091BB0423
:1011C000891B990B089520916504260F3327331F3F
:1011D00021323105ECF420915F05FC0190E080E0C4
:1011E000243069F082E00895A09165042191AC015A
:1011F0004B5B5B4FA40FB52FB11D2C930196861747
:1012000098F380916504680F6093650480E0089509
:1012100081E0089510925F0581E080933E05109271
:10122000390561E082E00E94FB0561E083E00E94F5
:10123000FB05E9EBF0E080818E7F808380818D7FEC
:10124000808388E48093B80085E48093BC0008958F
:10125000CF93DF9391E0909344048823B9F0C09139
:10126000B800D091BA008091BC008A7B8093BC000A
:1012700060E082E00E94FB0560E083E00E94FB05E5
:101280000E940A09D093BA00C093B800DF91CF91B1
:1012900008958F929F92AF92BF92CF92DF92EF927A
:1012A000FF920F931F93CF93DF93D82FC62F142F46
:1012B000613208F09CC00E945A066B017C0180914B
:1012C0005F0581116FC081E080935F0510933E053B
:1012D0009FEF90933D0510923C059C0F90933B052A
:1012E00080933A0580913A05DD0FD82BD0933A05CB
:1012F00080913905813009F07CC0109239050E9437
:101300005A066B017C0180913A058093BB00809165
:10131000610590916205A0916305B0916405892BE8
:101320008A2B8B2BA1F00E945A0600916105109127
:10133000620520916305309164056C197D098E0961
:101340009F09061717072807390708F44CC0809132
:10135000BC0083FDD8CF85EC8093BC000E945A0668
:101360006B017C0180915F05813009F444C080915C
:101370003C058C1710F4C0913C05E9E1F5E0AFE3C2
:10138000B5E080E08C1359C08C2FDF91CF911F9175
:101390000F91FF90EF90DF90CF90BF90AF909F9014
:1013A0008F9008958091610590916205A0916305E9
:1013B000B0916405892B8A2B8B2B09F480CF0E9476
:1013C0005A068090610590906205A0906305B090E8
:1013D00064056C197D098E099F0986169706A80673
:1013E000B90608F06CCF809160050E942809C0E022
:1013F000CBCF85EEB1CF8091610590916205A09130
:101400006305B0916405892B8A2B8B2B09F4AACF35
:101410000E945A06009161051091620520916305B2
:10142000309164056C197D098E099F09061717070D
:101430002807390708F096CFD6CF91919D938F5FFB
:10144000A1CFCF92DF92EF92FF920F931F93CF9392
:10145000DF93D091150581E0D13208F09CC0C09196
:1014600017050E945A066B017C0180915F0581116E
:101470006CC082E080935F0581E080933E058FEF32
:1014800080933D0510923C05D0933B05A5EFB4E059
:10149000E9E1F5E080E0D8138DC010923A05809123
:1014A0003A05CC0FC82BC0933A058091390581309D
:1014B00009F084C0109239050E945A066B017C0124
:1014C00080913A058093BB008091610590916205FF
:1014D000A0916305B0916405892B8A2B8B2BA1F019
:1014E0000E945A06009161051091620520916305E2
:1014F000309164056C197D098E099F09061717073D
:101500002807390708F442C08091BC0083FDD8CF7A
:1015100085EC8093BC000E945A066B017C0180918F
:101520005F05823009F44CC080913D058F3F09F47E
:1015300069C080913D05803209F466C080913D0507
:10154000803309F463C084E026C0809161059091E6
:101550006205A0916305B0916405892B8A2B8B2BC2
:1015600009F483CF0E945A0600916105109162052B
:1015700020916305309164056C197D098E099F09DE
:10158000061717072807390708F06FCF8091600505
:101590000E94280985E010921605109215051092F8
:1015A0001805DF91CF911F910F91FF90EF90DF9081
:1015B000CF9008959D9191938F5F6DCF85EEA9CFC8
:1015C0008091610590916205A0916305B0916405D9
:1015D000892B8A2B8B2B09F4A2CF0E945A060091EB
:1015E00061051091620520916305309164056C19C5
:1015F0007D098E099F09061717072807390708F084
:101600008ECFC4CF80E0C7CF82E0C5CF83E0C3CF09
:101610000895E091BB048091BA04E81730F4F0E03B
:10162000E15CFA4F808190E008958FEF9FEF08957D
:101630009091BB048091BA042FEF3FEF981748F4C4
:10164000E92FF0E0E15CFA4F208130E09F5F90935A
:10165000BB04C9010895CF92DF92EF92FF920F93DE
:101660001F93CF93DF937C01CB018A012091180552
:10167000222389F0EB016B01C40ED51ECC15DD05CC
:1016800069F06991D701ED91FC910190F081E02D15
:10169000C7010995F3CF642F0E94E308C801DF91C9
:1016A000CF911F910F91FF90EF90DF90CF90089511
:1016B000CF93DF931F92CDB7DEB7698320911805D2
:1016C0002223F9F020911505203258F021E030E076
:1016D000FC013383228390E080E00F90DF91CF9173
:1016E000089580911605E82FF0E0EB50FB4F9981AB
:1016F00090838F5F809316058093150581E090E0BD
:10170000ECCF61E0CE0101960E94E308F7CF682F8D
:1017100085EB95E00C94580BFF920F931F93CF939A
:10172000DF93C62F042FF22E132F0E9452056C2F29
:1017300085EB95E00E94580BCF2DD12F0C0F1D2F5C
:10174000111DC017D10731F0699185EB95E00E941A
:10175000580BF7CF0E94210A91E0811190E0892F68
:10176000DF91CF911F910F91FF900895CF93DF9359
:101770001F92CDB7DEB749839E012F5F3F4F41E0F7
:101780000E948C0B0F90DF91CF910895482F6EE649
:101790008091C1050C94B60B1F93CF93DF93162F46
:1017A000EA010E945205612F85EB95E00E94580BDB
:1017B0006D2F85EB95E00E94580B6C2F85EB95E023
:1017C0000E94580B0E94210A91E0811190E0892F1C
:1017D000DF91CF911F91089590E080E0089581E01E
:1017E000809343040895CF92DF92EF92FF920F937C
:1017F0001F93CF93DF93E7016901F80120173107A9
:1018000014F06801F90190E080E06623A1F1CA01BB
:101810004C155D050CF4C601BF018E179F070CF433
:10182000BC010217130734F4CF01861B970BBC01D0
:101830006C0D7D1D0D2C000CEE08FF08072E000C12
:10184000880B990B6C197D098E099F092AE0660F98
:10185000771F881F991F2A95D1F79F01FF0F440B0F
:10186000550B2C193D094E095F090E945A282883FF
:10187000398382E090E0DF91CF911F910F91FF902B
:10188000EF90DF90CF9008950F931F93CF93DF9346
:101890008C01EB01FC0182810E9452058DE290E0F7
:1018A0000E94870B88E090E00E94870B0E94210A2B
:1018B000F80182810E94520581E390E00E94870B2B
:1018C00090E080E00E94870B0E94210A20E03EEF1A
:1018D0003BA32AA38FEF91E09DA38CA33FA32EA34C
:1018E00099A788A73BA72AA79DA78CA7DF91CF918F
:1018F0001F910F91089583E090E0089582E090E0B9
:101900000895DC01FB0112962C9112978481958138
:101910002817190641F491818081813A31F49D7F25
:1019200081E0913009F080E008958132E1F79B3049
:1019300029F482811F968C9381E008959A3099F75B
:10194000828150968C93F8CFDC01FB0188E4808380
:1019500089E4818384E482831D969C911D979F7006
:101960009F5B93831D968D919C9124E0969587951E
:101970002A95E1F78F708F5B848385E00895EF925D
:10198000FF920F931F93CF93DF93FB0120812138A8
:1019900089F52381223271F5DC0112964C91248164
:1019A00035814217130631F58C01FC01C385D485BE
:1019B000F12CE12C209791F04C815D816A817B8133
:1019C0008E81811180E80E9421078F3F980759F08E
:1019D000E80EF91E0990D881C02DECCF81E0D80126
:1019E0001F968C93C701DF91CF911F910F91FF90AC
:1019F000EF90089590E080E0F6CFCF93DF93CDB7DE
:101A0000DEB769970FB6F894DEBF0FBECDBFFC01FD
:101A1000DB018C918F5F8C939E012D5F3F4F8DE09A
:101A2000D9011D928A95E9F729E0298384E08A8308
:101A300091E09D8383E08E832A8721E22B879C8718
:101A40009D879F8722E2288B27E02B8B25E02C8B1C
:101A50008E8B20E430E0388F2F8B998F82818B839F
:101A600095858685998B8A8B838180688D8B49E1EA
:101A700050E0BE016F5F7F4F80E00E9421076996B2
:101A80000FB6F894DEBF0FBECDBFDF91CF910895A2
:101A9000CF93DF938091ED03811167C081E0809344
:101AA000E0038093E10326EE33E03093E3032093D9
:101AB000E2031092E5031092E40327E231E0309351
:101AC000DD032093DC031092E8031092E7031092E9
:101AD000EA031092E9038093EB038093EC0381EC1B
:101AE0008093E6030E94FF07FC0181819091E0034F
:101AF000482F490F5527551F483051059CF5A281A5
:101B0000B381109709F52CED33E0338322832081D4
:101B10002093DE038093DF038091E103820F8083B3
:101B20002091E203A22FB091E3038A2F821B891731
:101B3000C8F481813D91C82FD0E0C050DF4F388379
:101B40008F5F8183F2CFD90118962D913C9119971F
:101B500021153105C1F72CED33E019963C932E93F6
:101B60001897D5CF81E08093ED038CED93E0DF9162
:101B7000CF910895FC0101900020E9F73197AF0162
:101B8000481B590BBC0185E695E00C944408CF93A3
:101B9000DF930E94BA0DEC0187E691E00E94BA0D36
:101BA0008C0F9D1FDF91CF9108950C94BA0D8F92E9
:101BB0009F92AF92BF92CF92DF92EF92FF920F93DC
:101BC0001F93CF93DF93CDB7DEB7A1970FB6F894ED
:101BD000DEBF0FBECDBF6C01990FEE08FF08F7FE08
:101BE00041C06DE285E695E00E945A088C012227EB
:101BF0003327A9012C193D094E095F0919A2CE010D
:101C000081967C019AE0892E912CA12CB12CCA01DD
:101C1000B901A50194010E947928605DF7016293E2
:101C20007F01211531054105510589F790E080E0DC
:101C3000309719F0CF010E94BA0D800F911FA19625
:101C40000FB6F894DEBF0FBECDBFDF91CF911F91CD
:101C50000F91FF90EF90DF90CF90BF90AF909F904B
:101C60008F900895A701960119A28E010F5D1F4F55
:101C70008AE0C82ED12CE12CF12CCA01B901A701B0
:101C800096010E947928605DF80162938F01211509
:101C900031054105510589F790E080E0309779F2F0
:101CA000CF010E94BA0DCBCF2F923F924F925F92FD
:101CB0006F927F928F929F92AF92BF92CF92DF925C
:101CC000EF92FF920F931F93CF93DF9300D000D03A
:101CD000CDB7DEB7782E662E4C833A8329830E94D7
:101CE000B1066B017C01512C1B822C81222E312CE0
:101CF0004801B12CA12C8C81581608F048C0872DC2
:101D00000E945205662D85EB95E00E94580B0E94BB
:101D1000210A872D0E945205B101651971096132AE
:101D2000710514F060E270E0613208F060E241E0B9
:101D3000872D0E944909482E1092BB048093BA0453
:101D40008091BB044816E9F00115110579F485EB83
:101D500095E00E94180BE981FA819B81E90FF11D42
:101D600097FDFA9580839F5F9B83EACF0E94B1061F
:101D70006C197D098E099F09681579058A059B05EF
:101D800030F38C81813208F080E2580EB4CF011517
:101D90001105C1F00E94B1066C197D098E099F09D9
:101DA00030E020E0601771078207930758F02B811D
:101DB000822F220F990B2C812817190619F014F085
:101DC0008FEF8B838B810F900F900F900F90DF918F
:101DD000CF911F910F91FF90EF90DF90CF90BF9028
:101DE000AF909F908F907F906F905F904F903F90BB
:101DF0002F9008950F931F93CF93DF93C1ECD5E0FD
:101E000008EE13E022EC35E041E06AE388810E94AD
:101E1000540E8981DF91CF911F910F910895EF9218
:101E2000FF920F931F93CF93DF931F92CDB7DEB72F
:101E30007A0189019E012F5F3F4F41E00E94540EBD
:101E4000882339F029812E7730E035952795F701E1
:101E500020830F90DF91CF911F910F91FF90EF9012
:101E600008950F931F93462F08EE13E09C0164E73B
:101E70008091C1050E94540E1F910F9108950F93F8
:101E80001F93CF93DF93C1ECD5E008EE13E022EC73
:101E900035E042E062E788810E94540E89819A8190
:101EA000982789279827DF91CF911F910F91089547
:101EB000BF92CF92DF92EF92FF920F931F93CF9337
:101EC000DF931F92CDB7DEB7F82EE62EC42EB22ECA
:101ED000D02E08EE13E09E012F5F3F4F41E00E949D
:101EE000540E882371F18C2D8B19990BAC014F5F27
:101EF0005F4F81E090E002C0880F991FBA94E2F72B
:101F00000197042E01C0880F0A94EAF70D2D01C035
:101F1000000F4A95EAF7482F40959981492380237D
:101F2000482B49836E2D8F2D0E94B60B0F90DF91A9
:101F3000CF911F910F91FF90EF90DF90CF90BF90C6
:101F4000089580E0F3CFCF92DF92EF92FF920F934C
:101F50001F93CF93DF931F92CDB7DEB7F82EE62EF7
:101F6000C42ED22E08EE13E09E012F5F3F4F41E0BA
:101F70000E94540E81E090E001C0880FCA94EAF7F5
:101F80004981DD2081F0482B49836E2D8F2D0E94E1
:101F9000B60B0F90DF91CF911F910F91FF90EF90B3
:101FA000DF90CF90089580954823EECF0F93CF9385
:101FB000DF93EC0101E023E042E06BE688810E94C0
:101FC000580F00E022E044E06BE188810E94580F46
:101FD00022E044E06CE188810E94580F20E046E056
:101FE0006BE68881DF91CF910F910C94A30F2F9214
:101FF0003F924F925F926F927F928F929F92AF9299
:10200000BF92CF92DF92EF92FF920F931F93CF93E5
:10201000DF93CDB7DEB76A970FB6F894DEBF0FBE79
:10202000CDBF412C512C32011D8A1E8A1F8A188E69
:10203000198A1A8A1B8A1C8A1D861E861F86188A80
:1020400019861A861B861C861D821E821F82188690
:10205000812C912C540188EEC82E83E0D82EE12CDF
:10206000F12C08EE13E021EF35E04EE06BE38091B8
:10207000F0050E94540EA091F105B091F205BA2727
:10208000AB27BA27B093DB03A093DA03E091F30503
:10209000F091F405FE27EF27FE27F093D903E09394
:1020A000D8036091F5057091F605762767277627A6
:1020B0007093D7036093D6034091F9055091FA05C8
:1020C0005427452754275093D5034093D403209198
:1020D000FB053091FC05322E232E3092D303209243
:1020E000D2038091FD059091FE05182F092F1A8FBC
:1020F000098F1093D1030093D00315E68116910444
:10210000A104B1040CF4A8C08D01BB0F220B330B4A
:102110008D819E81AF81B885800F911FA21FB31F53
:102120008D839E83AF83B8878F01FF0F220B330B04
:1021300089859A85AB85BC85800F911FA21FB31F2F
:1021400089879A87AB87BC878B01770F220B330B6C
:102150008D859E85AF85B889800F911FA21FB31F03
:102160008D879E87AF87B88B052E000C660B770B8B
:1021700009891A892B893C89040F151F261F371FCF
:10218000098B1A8B2B8B3C8B9101330C440B550B19
:102190008D899E89AF89B88D820F931FA41FB51FAB
:1021A0008D8B9E8BAF8BB88F098D1A8DC801110F47
:1021B000AA0BBB0B480E591E6A1E7B1E1CE481161F
:1021C00014E09106A104B10409F046C06D817E813E
:1021D0008F819885A70196010E945A283093A70401
:1021E0002093A60469857A858B859C85A701960135
:1021F0000E945A283093A5042093A4046D857E85FF
:102200008F859889A70196010E945A283093A304CC
:102210002093A20469897A898B899C89A7019601F8
:102220000E945A283093A1042093A0046D897E89CE
:102230008F89988DA70196010E945A2830939F0498
:1022400020939E04C301B201A70196010E945A285F
:1022500030939D0420939C042FEF821A920AA20AC5
:10226000B20A62E070E080E090E00E947F063DE408
:10227000831634E09306A104B10409F0F2CE6A9605
:102280000FB6F894DEBF0FBECDBFDF91CF911F9187
:102290000F91FF90EF90DF90CF90BF90AF909F9005
:1022A0008F907F906F905F904F903F902F90089508
:1022B0008F929F92AF92BF92CF92DF92EF92FF9256
:1022C0000F931F93CF93DF93CDB7DEB7C659D109D4
:1022D0000FB6F894DEBF0FBECDBF5C01DC015B968C
:1022E0001C921E925A975E961C925E9793961C9231
:1022F0001E9292978FEF93E095969C938E9394976E
:1023000097961C921E92969799969C938E93989767
:102310009B961C921E929A979D969C938E939C9747
:102320009F961C921E929E97D1969C938E93D097C7
:10233000D3961C921E92D297D5969C938E93D49747
:10234000D7961C921E92D697D9969C938E93D89727
:10235000DB961C921E92DA97DD969C938E93DC9707
:10236000DF961C921E92DE97F501E05CFF4F918391
:1023700080833296118210823296918380833296C6
:10238000118210823296918380833296118210825C
:10239000329691838083329683E0808382E0F501D8
:1023A000858F178E411101C080E0862B94E02111AA
:1023B00001C090E0892B98E0011101C090E0892BC9
:1023C00090E1E11001C090E0892B90E2C11001C0C2
:1023D00090E0892BD50190968C93909791961C92C2
:1023E0001E2D1C0D100F120F140F160F75E07983A0
:1023F00081E08A8399E09B83A4E0AC83F1EAFD83CA
:102400008E8335E83F83B3E0B88779879A8739E1CF
:102410003B878C8739E23D87E2E0EE8735E13F87F5
:10242000188A35E2398B8A8B55E75B8B8C8B35E9C3
:102430003D8BEE8B0F2EF5E5FF2EF02DFF8A188ECB
:102440000F2EF5E6FF2EF02DF98E1A8E0F2EF1E8E5
:10245000FF2EF02DFB8EEC8F5D8F8E8F3F8FE6E091
:10246000E8A3F9A2BAA3112309F42BC17BA38CA37F
:102470009DA38EA386E18FA318A619A686E28AA73C
:102480001BA6ACA75DA780E18EA73FA718ABF9AB51
:102490001AAA662309F412C19BAB80E38CAB64E3F8
:1024A00070E0442391F0E1E0F0E0EC0FFD1FE60F57
:1024B000F71F89E08083E2E0F0E0EC0FFD1FE60FFC
:1024C000F71F81E380836E5F7F4F222391F0E1E06D
:1024D000F0E0EC0FFD1FE60FF71F89E08083E2E0DC
:1024E000F0E0EC0FFD1FE60FF71F82E380836E5FC5
:1024F0007F4F002391F0E1E0F0E0EC0FFD1FE60FCD
:10250000F71F89E08083E2E0F0E0EC0FFD1FE60FAB
:10251000F71F83E380836E5F7F4FEE2091F0E1E051
:10252000F0E0EC0FFD1FE60FF71F89E08083E2E08B
:10253000F0E0EC0FFD1FE60FF71F84E380836E5F72
:102540007F4FCC2091F0E1E0F0E0EC0FFD1FE60FB3
:10255000F71F89E08083E2E0F0E0EC0FFD1FE60F5B
:10256000F71F85E380836E5F7F4FE1E0F0E0EC0FC3
:10257000FD1FE60FF71F81E88083E2E0F0E0EC0F3B
:10258000FD1FE60FF71F82E08083CB0103966C0FDF
:102590007D1F20ECFB012383E1E0F0E0EC0FFD1F49
:1025A000E80FF91F20EC20836C01FFEFCF1ADF0A40
:1025B000C6010E94D92B4C01A601BE016F5F7F4F5F
:1025C0000E94C82D87E090E00E94D92B7C01DC019D
:1025D00011961C921E9213969C928E9212971596AB
:1025E000DC92CE92149716961C920E94480DFC0124
:1025F000A385B485109709F068C0F486E3868585C5
:102600009685D70114962D913C91820F931F968742
:102610008587F501958D892F869586958695977086
:1026200009F05BC0868FF501068D802F90E0009742
:1026300011F481E090E00E94D92BD5015B969C9328
:102640008E935A97F501E15BFF4F110F100F81E058
:102650005F969C91911101C080E0180F1083F501E5
:1026600011821082138212821582148217821682BE
:10267000118610861386128615861486178616868E
:10268000118A108A138A128A158A148A8FEF9FEF93
:10269000978B868B918F808F90E080E0D5015E963E
:1026A0002C915E9728171906D9F0D4F05A96ED911F
:1026B000FC91E80FF91F10820196F0CF62E370E001
:1026C000F0CE82E290E068CFDC018D919C91119771
:1026D0000097D1F7ED92FC9292CF8F5F868FA3CFB8
:1026E000CA56DF4F0FB6F894DEBF0FBECDBFDF91E5
:1026F000CF911F910F91FF90EF90DF90CF90BF90FF
:10270000AF909F908F9008952F923F924F925F923B
:102710006F927F928F929F92AF92BF92CF92DF92F1
:10272000EF92FF920F931F93CF93DF933C015B01D6
:10273000242E522E302E4F716DE68091C1050E94DD
:10274000B60B852D0E94C60B80E190E00E94D92B2C
:102750006C01002329F080E190E00E94D92B7C01DC
:10276000D0E0C0E0CA15DB0508F080C0CE0140967D
:10277000A816B906E8F44A2C4C1A80E091E08519B5
:1027800091094816190619F014F0452C419433208C
:1027900091F0D70190E080E093012C0F3D1F84154C
:1027A00068F4F901E80FF91FE491ED930196F7CF72
:1027B00080E1482EE2CF7301EC0EFD1E9701442DFF
:1027C0006FE68091C1050E948C0B842C912CC11462
:1027D000D104B9F1422D4F716DE68091C1050E947F
:1027E000B60B852D0E94C60B08EE13E09601442D12
:1027F0006FE68091C1050E94540EA401B601C70185
:102800000E94BB2D892BE9F0C6010E94752C332054
:1028100021F0C7010E94752C312C832DDF91CF91BF
:102820001F910F91FF90EF90DF90CF90BF90AF90EE
:102830009F908F907F906F905F904F903F902F90E0
:102840000895C80DD91D540CCA15DB0508F08ACFB0
:10285000511001C02394422D4F716DE68091C10546
:102860000E94B60B852D0E94C60B7CCFC6010E942C
:10287000752C332021F0C7010E94752CCECF332454
:102880003394CBCF85ED8093BC008091610590910E
:102890006205A0916305B09164050796A11DB11D65
:1028A00023E0B695A795979587952A95D1F720911E
:1028B000BC0024FD03C010925F050895409161059E
:1028C000509162056091630570916405452B462B1C
:1028D000472B69F30097A105B10541F02AE22A953B
:1028E000F1F700C00197A109B109E1CF809160051E
:1028F0000C9428092F923F924F925F926F927F9291
:102900008F929F92AF92BF92CF92DF92EF92FF92FF
:102910000F931F93CF93DF93CDB7DEB7C259D10981
:102920000FB6F894DEBF0FBECDBF6B014A0181EC3C
:1029300095E00E94D60F64EF71E080E090E00E9485
:102940007F0621E047E06BE68091C1050E94A30F5E
:102950006EE170E080E090E00E947F0620E046E0BB
:102960006BE68091C1050E94A30F40E76DE6809160
:10297000C1050E94B60B86E00E94C60B08EE13E06C
:1029800022EC35E041E06FE68091C1050E94540ED3
:1029900040E06DE68091C1050E94B60B9E012F5F5D
:1029A0003F4F41E060E08091C1050E94540E898153
:1029B00081708093C20528EE33E042EC55E060E080
:1029C0008091C1050E940F0F3090C20528EE33E0C0
:1029D00042EC55E061E08091C1050E940F0F4090EC
:1029E000C20528EE33E042EC55E062E08091C1057B
:1029F0000E940F0F5090C2054FE765E28091C1051C
:102A00000E94B60B20E045E06AE68091C1050E9475
:102A1000A30F48E665E28091C1050E94B60B21E054
:102A200041E06AE68091C1050E94A30F64E170E075
:102A300080E090E00E947F0601E020E040E069E84D
:102A400077E089EC91E00E948413882309F449C05F
:102A500088E090E00E94D92B3C0110E000E0F801F2
:102A6000E75FFE4F8491CF56DF4F8883C159D04036
:102A7000F801E65FFE4F2490780193E0E90EF11C27
:102A8000F801E55FFE4FE491EE2309F4B2C0AE2EEB
:102A9000B12CE33028F0B501C3010E94FE2C3C01AB
:102AA000D30190E080E0045F1E4FF801E80FF91FAA
:102AB000E491ED9301968A159B05B8F300E0222D71
:102AC000CF56DF4F4881C159D040B501C3010E94A4
:102AD000841387010A0D1B1D81119AC0C3010E9436
:102AE000752CF4014085518566E08091C1050E94F6
:102AF000CC0BF4014285538568E08091C1050E94AA
:102B0000CC0BF401448555856AE08091C1050E9493
:102B1000CC0BF4014685578563E18091C1050E9485
:102B2000CC0BF4014089518965E18091C1050E9477
:102B3000CC0BF4014289538967E18091C1050E9461
:102B4000CC0B21E047E06AE68091C1050E94A30F0B
:102B50008FEE9BE0909314018093130180916900A4
:102B6000836080936900E89A0E94FA0E8091C30501
:102B70009091C405909342048093410420E030EC8E
:102B8000F60133A322A38FEF9FE395A384A337A37A
:102B900026A391A780A733A722A795A784A72CE4F3
:102BA0003FEF37A726A784EB90E091AB80AB33AB28
:102BB00022AB95AB84AB37AB26AB91AF80AFCE5693
:102BC000DF4F0FB6F894DEBF0FBECDBFDF91CF91C0
:102BD0001F910F91FF90EF90DF90CF90BF90AF903B
:102BE0009F908F907F906F905F904F903F902F902D
:102BF00008950C5F1F4FF701E75FFE4FE49180914E
:102C0000C105E13009F06ACF42E368E30E94B60BE8
:102C1000003C110508F423CFC3010E94752C03E08A
:102C200023E042E06BE68091C1050E94580F42E12B
:102C300068E38091C1050E94B60B44E069E1809190
:102C4000C1050E94B60B01E023E045E06AE18091F6
:102C5000C1050E94580F03E023E042E06AE1809141
:102C6000C1050E94580F22E044E06BE18091C1054C
:102C70000E94580F43E060E78091C1050E94B60BA7
:102C800040E061E78091C1050E94B60B20E040E082
:102C900060E08091C1050E94A30F032D26E046E06D
:102CA00060E08091C1050E94580F042D26E046E0A7
:102CB00061E08091C1050E94580F052D26E046E095
:102CC00062E08091C1050E94580FF12CE12CF701C0
:102CD000E652FF4FE491A1E8B0E0AC0FBD1FAE0D8E
:102CE000B11DEC9381E08E0DEFEFEE1AFE0AF3E0DA
:102CF000FE1568F7CD57DF4F6881C358D04070E0AC
:102D00009B012E5F3F4F8217130609F304F300E087
:102D1000CE57DF4F2881C258D040CF57DF4F488170
:102D2000C158D04081E890E08C0F9D1F03960E940F
:102D3000841380E0F701E652FF4FE491A1E8B0E090
:102D4000AC0FBD1FA80FB11DEC938F5F9FEFE91A69
:102D5000F90A282F30E0843068F3CD57DF4F6881BF
:102D6000C358D04070E0AB014E5F5F4F421753072E
:102D70000CF700E0CE57DF4F2881C258D040CF5724
:102D8000DF4F4881C158D04081E890E08C0F9D1FF3
:102D900003960E9484130E945C220E943F0F682FBA
:102DA000CE0101960E94310F42E06FE18091C10592
:102DB0000E94B60B4CE961E28091C1050E94B60BFE
:102DC00040E560E28091C1050E94B60B40E062E2FE
:102DD0008091C1050E94B60B0E945C2221E046E072
:102DE0006AE68091C1050E94A30F21E047E06AE6F0
:102DF0008091C1050E94A30F21E043E06AE6809123
:102E0000C1050E94A30F80E0F701E652FF4FE49155
:102E1000A1E8B0E0AC0FBD1FA80FB11DEC938F5F10
:102E2000EFEFEE1AFE0A282F30E0843068F3CD571A
:102E3000DF4F6881C358D04070E0AB014E5F5F4FF9
:102E4000421753070CF700E0CE57DF4F2881C258D6
:102E5000D040CF57DF4F4881C158D04081E890E043
:102E60008C0F9D1F03960E94841380E0F701E652A9
:102E7000FF4FE491A1E8B0E0AC0FBD1FA80FB11D5A
:102E8000EC938F5FFFEFEF1AFF0A282F30E08430BA
:102E900068F3CD57DF4F6881C358D04070E0AB0175
:102EA0004E5F5F4F421753070CF700E0CE57DF4FDE
:102EB0002881C258D040CF57DF4F4881C158D040F9
:102EC00081E890E08C0F9D1F03960E94841380E0A0
:102ED000F701E652FF4FE491A1E8B0E0AC0FBD1F4F
:102EE000A80FB11DEC938F5F9FEFE91AF90A282F05
:102EF00030E0843068F3CD57DF4F6881C358D0404D
:102F000070E0AB014E5F5F4F421753070CF700E0D4
:102F1000CE57DF4F2881C258D040CF57DF4F48816E
:102F2000C158D04081E890E08C0F9D1F03960E940D
:102F300084130E943F0F83309105D8F3682FCE0190
:102F400001960E94310F0E94FA0E80E0F701E652CE
:102F5000FF4FE491A1E8B0E0AC0FBD1FA80FB11D79
:102F6000EC938F5FFFEFEF1AFF0A282F30E08430D9
:102F700068F3CD57DF4FE881C358D040CE56DF4FBE
:102F8000E883C259D0406E2E712CA3014E5F5F4F73
:102F900042175307DCF6CE57DF4F3880C258D04077
:102FA000CF57DF4F8881C158D040CF56DF4F88833D
:102FB000C159D040482F4F716DE68091C1050E94E4
:102FC000B60B832D0E94C60BB12CA12C91E8492E83
:102FD000512C4C0E5D1E93E0490E511CA614B704F3
:102FE00008F044C0C5014096CE56DF4F2880C25934
:102FF000D0402A186816790610F080E1282E80E06B
:1030000091E0831991092816190619F014F0232C60
:10301000219492012A0D3B1D08EE13E0422D6FE62C
:103020008091C1050E94540EA20CB11C320CA61452
:10303000B704A0F631100BC0CF56DF4FE881C1595D
:10304000D040EF5FCF56DF4FE883C159D040CF5615
:10305000DF4F4881C159D0404F716DE68091C10565
:103060000E94B60B832D0E94C60BB8CF0E943F0F63
:1030700083309105D8F3682FCE0101960E94310F5D
:103080000E94FA0EF701E652FF4F80E09491A1E80A
:10309000B0E0AC0FBD1FA80FB11D9C938F5F282F10
:1030A00030E0843060F0CD57DF4F6881C358D040A6
:1030B00070E0AB014E5F5F4F4217530714F031963B
:1030C000E5CF00E0CE57DF4F2881C258D040CF5720
:1030D000DF4F4881C158D04081E890E08C0F9D1FA0
:1030E00003960E94841320E047E06AE68091C105C0
:1030F0000E94A30F8AE290E09093C4058093C305D9
:103100000E945C220E94FA0EECCC4F925F926F926A
:103110007F928F929F92AF92BF92CF92DF92EF9267
:10312000FF920F931F93CF93DF93CDB7DEB76C0160
:103130004DB65EB63C012FE4620E711CF301808136
:103140002DB73EB7281B31090FB6F8943EBF0FBE0E
:103150002DBF8DB79EB701964C01F601A68CB12C00
:10316000DC0190E080E0F6018A159B054CF4228D8D
:10317000338DF901E80FF91F20812D930196F3CFCC
:10318000878D882341F18689978928E097FD09C0BA
:1031900068E671E00E94AB2B6DE270E00E94AB2B01
:1031A000262FF601808D918D68E097FD08C068E6B6
:1031B00071E00E94AB2B6DE270E00E94AB2BF4013A
:1031C000EA0DFB1D30E1639FB0011124262B208303
:1031D000C50101965C017401EA0CFB1CF60104A117
:1031E00015A122A133A14081518160A16170C60166
:1031F0000E94F30BA80EB91E7401EA0CFB1CF60129
:1032000000A511A526A137A14281538160A1669531
:103210006170C6010E94F30BA80EB91E7401EA0C7E
:10322000FB1CF60104A515A522A533A544815581F3
:1032300060A162FB662760F9C6010E94F30BA80E2D
:10324000B91E7401EA0CFB1CF60100A911A926A500
:1032500037A54681578160A163FB662760F9C601E7
:103260000E94F30BA80EB91E7401EA0CFB1CF601B8
:1032700004A915A922A933A94085518560A16295A9
:103280006170C6010E94F30BA80EB91E7401EA0C0E
:10329000FB1CF60100AD11AD26A937A94285538567
:1032A00060A165FB662760F9C6010E94F30BA80EBA
:1032B000B91E7401EA0CFB1CF60104AD15AD22AD7C
:1032C00033AD4685578561A16170C6010E94F30B3D
:1032D000A80EB91E7401EA0CFB1CF601E05CFF4F5E
:1032E00000811181F60126AD37AD4485558561A178
:1032F00066956170C6010E94F30BA80EB91E740199
:10330000EA0CFB1CF601EC5BFF4F00811181329748
:1033100020813181F6014089518961A162FB6627D4
:1033200060F9C6010E94F30BA80EB91E7401EA0CE5
:10333000FB1CF601E85BFF4F008111813297208171
:103340003181F6014289538961A163FB662760F9E7
:10335000C6010E94F30B8A0D9B1D7401E80EF91E35
:10336000F601E45BFF4F00811181329720813181AA
:10337000F6014489558961A162956170C6010E9478
:10338000F30B0E94480D5C01F3014081F601E25B02
:10339000FF4F808150E07A01FFEFEF1AFF0A2DB74F
:1033A0003EB72E193F090FB6F8943EBF0FBE2DBF92
:1033B0000DB71EB70F5F1F4FEDB7FEB78183B40186
:1033C000C80101960E94C82DF5018381A701B801AB
:1033D00080640E9458070FB6F8945EBE0FBE4DBEC3
:1033E000DF91CF911F910F91FF90EF90DF90CF90E1
:1033F000BF90AF909F908F907F906F905F904F9015
:1034000008952F923F924F925F926F927F928F9288
:103410009F92AF92BF92CF92DF92EF92FF920F9363
:103420001F93CF93DF93CDB7DEB768970FB6F894AD
:10343000DEBF0FBECDBF1B01109243040E94FA0EE7
:103440000E943F0F609141047091420486179707D4
:10345000B8F381E094E00E94310F20912104822F83
:1034600090E0B82FAA2780912204A80FB11DBA833B
:10347000A9838091250490E0982F88270091260445
:10348000080F192F111D80911D0490E0982F882797
:1034900020911E04820F911DF10191838083848D00
:1034A000882319F0C1010E948518E981FA81D101B0
:1034B0001396FC93EE9312975C968C91882319F0E7
:1034C000C1010E948518D10115961C930E93149783
:1034D0005C968C91882319F0C1010E948518B091E7
:1034E0001504EB2FF0E03E2F222780911604280FC1
:1034F000311D3A8329838091190490E0982F882701
:1035000000911A04080F192F111D8091110490E0E9
:10351000982F882720911204820F911DD1011796B0
:103520009C938E9316975C968C91882319F0C10119
:103530000E94851829813A81F10131872087848D85
:10354000882319F0C1010E948518D1011B961C9394
:103550000E931A975C968C91882319F0C1010E94F2
:103560008518A09005046A2D70E0762F6627A0903C
:103570000604A60EB72EB11C00910904602F70E05E
:10358000762F662700910A04060F172F111DB091A0
:103590000D046B2F70E0762F6627E0910E042E2F1E
:1035A000260F372F311D3E832D8360910104862F16
:1035B00090E0982F882760910204680F792F711D81
:1035C000072E000C880B990B0E94242A20E030E083
:1035D00040E858E30E94DF2A6B017C01C092E005BD
:1035E000D092E105E092E205F092E305B501BB0C53
:1035F000880B990B0E94242A20E030E040E858E331
:103600000E94DF2A2B013C014092E4055092E5051F
:103610006092E6057092E705B801110F880B990BCF
:103620000E94242A20E030E040E858E30E94DF2A8C
:1036300069837A838B839C836093E8057093E905A3
:103640008093EA059093EB05AD81BE81BD01BB0F70
:10365000880B990B0E94242A20E030E040E858E3D0
:103660000E94DF2A6D837E838F8398876093EC05A9
:103670007093ED058093EE059093EF059B01AC01EF
:10368000C301B2010E94DF2A4B015C0129813A810A
:103690004B815C81C701B6010E94DF2A9B01AC010E
:1036A000C501B4010E949B289B01AC010E949C288B
:1036B00069877A878B879C876093D4057093D5053B
:1036C0008093D6059093D705A3019201C701B60157
:1036D0000E94DF2A4B015C012D813E814F8158857C
:1036E00069817A818B819C810E94DF2A9B01AC01D8
:1036F000C501B4010E949C289B01AC010E949C283A
:103700006D877E878F87988B6093D8057093D905D6
:103710008093DA059093DB05A7019601C701B601F6
:103720000E94DF2A4B015C01A3019201C301B20197
:103730000E94DF2A9B01AC01C501B4010E949B28B5
:103740004B015C0129813A814B815C81CA01B9013D
:103750000E94DF2A9B01AC01C501B4010E949B2895
:103760004B015C012D813E814F815885CA01B90111
:103770000E94DF2A9B01AC01C501B4010E949C2874
:103780004B015C018092DC059092DD05A092DE0584
:10379000B092DF05A7019601C701B6010E949C28DF
:1037A000698B7A8B8B8B9C8BA3019201C301B20135
:1037B0000E949C286D8B7E8B8F8B988FA701960122
:1037C00069897A898B899C890E94DF2A6B017C0137
:1037D000A30192016D897E898F89988D0E94DF2ACD
:1037E0009B01AC01C701B6010E949C2820E030E09B
:1037F00040E85FE30E949B286B017C0129813A81AC
:103800004B815C816D897E898F89988D0E94DF2A2A
:103810002B013C012D813E814F81588569897A8930
:103820008B899C890E94DF2A9B01AC01C301B201F4
:103830000E949B28A70196010E941B296B017C0115
:10384000C092F503D092F603E092F703F092F803EA
:10385000A5019401C501B4010E94DF2A4B015C015E
:103860002D853E854F855889CA01B9010E94DF2AFE
:10387000A50194010E949C280E94522B9B01AC013F
:1038800069857A858B859C850E947A290E944B29BF
:103890006093F9037093FA038093FB039093FC0306
:1038A00029853A854B855C85CA01B9010E94DF2ACA
:1038B000A50194010E949C280E94522B9B01AC01FF
:1038C0006D857E858F8598890E947A290E944B2973
:1038D0006093FD037093FE038093FF0390930004B5
:1038E00020E030E044E353E4C701B6010E94DF2A40
:1038F0002BED3FE049E450E40E947A290E94EC2934
:10390000F10177836683848D882319F0C1010E94B9
:10391000851820E030E044E353E46091F9037091AE
:10392000FA038091FB039091FC030E94DF2A2BEDA8
:103930003FE049E450E40E947A290E94EC29D10139
:1039400019967C936E9318975C968C91882319F046
:10395000C1010E94851820E030E044E353E4609107
:10396000FD037091FE038091FF03909100040E947B
:10397000DF2A2BED3FE049E450E40E947A290E94BF
:10398000EC29F10173876287848D8823D9F0C10106
:1039900068960FB6F894DEBF0FBECDBFDF91CF9112
:1039A0001F910F91FF90EF90DF90CF90BF90AF905D
:1039B0009F908F907F906F905F904F903F902F904F
:1039C0000C94851868960FB6F894DEBF0FBECDBF75
:1039D000DF91CF911F910F91FF90EF90DF90CF90EB
:1039E000BF90AF909F908F907F906F905F904F901F
:1039F0003F902F900895CF92DF92EF92FF920F9316
:103A00001F93CF93DF938C01EB01FC0182810E9415
:103A1000520582E390E00E94870B0E94210A41E058
:103A200066E0F80182810E9449091092BB048093EC
:103A3000BA0485EB95E00E94180B8C0185EB95E0AC
:103A40000E94180BE12CF82EE02AF12A85EB95E074
:103A50000E94180B6C0185EB95E00E94180B20E08A
:103A6000C22AD82A85EB95E00E94180B8C0185EBC1
:103A700095E00E94180B20E0022B182BF982E882B7
:103A80008C8D882319F0CE010E948518DB82CA82B2
:103A90008C8D882319F0CE010E9485181D830C831C
:103AA0008C8D882359F0CE01DF91CF911F910F911A
:103AB000FF90EF90DF90CF900C948518DF91CF911D
:103AC0001F910F91FF90EF90DF90CF900895FF929C
:103AD0000F931F93CF93DF9388E0EAE6F1E0A0EC29
:103AE000B4E001900D928A95E1F700EC14E0D0E08B
:103AF000C0E0F801F1908F01CE010E944428F81631
:103B000021F06F2DCE010E944C282196C431D105A1
:103B100081F7DF91CF911F910F91FF9008951F9230
:103B20000F920FB60F9211242F933F938F939F9371
:103B3000AF93BF938091EB049091EC04A091ED04BE
:103B4000B091EE043091EA0423E0230F2D3758F5AD
:103B50000196A11DB11D2093EA048093EB0490937C
:103B6000EC04A093ED04B093EE048091EF049091E7
:103B7000F004A091F104B091F2040196A11DB11DD1
:103B80008093EF049093F004A093F104B093F204B7
:103B9000BF91AF919F918F913F912F910F900FBE49
:103BA0000F901F90189526E8230F0296A11DB11DB6
:103BB000D2CF1F920F920FB60F9211242F933F93E3
:103BC0004F935F936F937F938F939F93AF93BF9325
:103BD000EF93FF93E0911B01F0911C010995FF9178
:103BE000EF91BF91AF919F918F917F916F915F9175
:103BF0004F913F912F910F900FBE0F901F901895EE
:103C00001F920F920FB60F9211242F933F934F9351
:103C10005F936F937F938F939F93AF93BF93EF9334
:103C2000FF93E0911901F0911A010995FF91EF912D
:103C3000BF91AF919F918F917F916F915F914F91C4
:103C40003F912F910F900FBE0F901F9018951F92CC
:103C50000F920FB60F9211242F933F934F935F93C0
:103C60006F937F938F939F93AF93BF93EF93FF9344
:103C7000E0911701F09118010995FF91EF91BF9123
:103C8000AF919F918F917F916F915F914F913F91F4
:103C90002F910F900FBE0F901F9018951F920F92AB
:103CA0000FB60F9211242F933F934F935F936F930F
:103CB0007F938F939F93AF93BF93EF93FF93E09185
:103CC0001501F09116010995FF91EF91BF91AF9108
:103CD0009F918F917F916F915F914F913F912F9124
:103CE0000F900FBE0F901F9018951F920F920FB656
:103CF0000F9211242F933F934F935F936F937F9372
:103D00008F939F93AF93BF93EF93FF93E091130132
:103D1000F09114010995FF91EF91BF91AF919F919F
:103D20008F917F916F915F914F913F912F910F9064
:103D30000FBE0F901F9018951F920F920FB60F9203
:103D400011248F939F938091E1009091E100937FE4
:103D50009093E10083FF0FC01092E90091E09093EF
:103D6000EB001092EC0092E39093ED001092F404BB
:103D700098E09093F00082FF22C093E09093E900D6
:103D80009091F200992319F09AE39093E8009091B2
:103D90009904992341F0909199049150909399043A
:103DA000911101C05D9A9091F304992341F0909193
:103DB000F30491509093F304911101C0289A84FF69
:103DC00018C08091E2008E7E81608093E200809135
:103DD000E1008F7E8093E10080919A048E7E806165
:103DE00080939A049F918F910F900FBE0F901F9018
:103DF000189580FFF7CF8091E2008E7E80618093DE
:103E0000E2008091E1008E7E8093E10080919A042F
:103E10008E7E8160E5CF1F920F920FB60F92112414
:103E2000CF92DF92EF92FF920F931F932F933F93C6
:103E30004F935F936F937F938F939F93AF93BF93B2
:103E4000EF93FF93CF93DF93CDB7DEB76C97DEBFD1
:103E5000CDBF1092E9008091E80083FF25C068E0A3
:103E6000CE0145960E94F20782EF8093E8008D898B
:103E700087FF39C09091E80090FFFCCF982F907693
:103E800009F034C19E894F89588D2F89F88C911182
:103E900031C0803861F580919B048093F1001092CD
:103EA000F1008EEF8093E8006C960FB6F894DEBFB9
:103EB0000FBECDBFDF91CF91FF91EF91BF91AF9139
:103EC0009F918F917F916F915F914F913F912F9132
:103ED0001F910F91FF90EF90DF90CF900F900FBE4A
:103EE0000F901F9018959EEF9093E800C7CF109207
:103EF000F100D5CF913059F48111D3CF4130510524
:103F000081F680919B048D7F80939B04CACF933070
:103F100049F48111C6CF4130510519F680919B04B7
:103F20008260F2CF953041F48091E80080FFFCCFB1
:103F300020682093E300B5CF963009F0A9C00B8D1F
:103F40001C8D22E01092E9001092970410929604C2
:103F5000F2122EC010929504109294040E9413083D
:103F60001F8299E09983FA8291E09E8390EA988774
:103F70009AEF99872091960430919704275F3F4FDD
:103F80003C832B838D831092E9001092970410924A
:103F90009604109395040093940449E050E0BE0108
:103FA0006F5F7F4F80E00E9421070E94130879CF46
:103FB00010939504009394040E94FF07DC0112966D
:103FC0000D911C910115110509F451C1D801ED9114
:103FD000FC910480F581E02DBE016B5E7F4FC8012E
:103FE0000995009709F03EC1F80100851185EACFD7
:103FF000F3E0FF120EC08F89882309F440C082309D
:1040000061F440E860E186EB99E00E94EE068111E0
:1040100048CF81E28093EB0047CF813029F440E81C
:104020006BE08AEA99E0F1CF833099F70E94FF07AD
:10403000DC011296ED90FC908E010F5F1F4F68011E
:10404000E114F10479F0D701ED91FC910680F7813C
:10405000E02DB801C7010995080F111DF701E08493
:10406000F184EECFD8011C92F60101900020E9F70F
:104070003197BF016C197D0940E0C601C6CF64E9E4
:1040800079E0FB01449150E080E80E94210709CFCC
:10409000973009F4BECF983021F481E08093F1008D
:1040A00000CF993009F0FDCE837009F0B2CFE1E086
:1040B000F1E081E031E096E32191222371F08093D9
:1040C000E9003093EB00DF0111972C912093EC0075
:1040D0009093ED008F5F873079F78EE78093EA0049
:1040E0001092EA008F898093F404DBCE8B8D9C8D37
:1040F0001092E90010929704109296049093950400
:1041000080939404898D811192C08E899D89913A02
:1041100049F4813209F07DCF47E050E06BE071E077
:1041200080E0B3CF913209F074CF833269F48F8984
:10413000988DB0E0A0E08093070190930801A093D0
:104140000901B0930A01ADCE803269F48091E80094
:1041500082FFFCCF67E08BE091E00E94F2078BEFDB
:104160008093E8009ECE823209F09BCE8F898093A7
:104170001201EEEFFFE7859194918B3F9C4D51F139
:10418000E0E0F8E080910B0190910C01A0910D010D
:10419000B0910E01803B9440A105B105F1F48091EE
:1041A000120180FD1AC0EE3F8AE0F80789F587E723
:1041B00097E791838083809160008093980488E1E1
:1041C0009BE00FB6F894A895809360000FBE909383
:1041D000600067CEEEEFFAE0D5CF8081918187371E
:1041E000974709F05ECEA895809160008861809322
:1041F00060008091980480936000EE3F2AE0F2070F
:1042000089F08091FE0A9091FF0A9183808349CEC4
:10421000808191818737980751F29093FF0A8093AC
:10422000FE0AC5CF1092FF0A1092FE0A3ACE0E94F3
:10423000FF07DC0112960D911C910115110509F47F
:10424000E8CED801ED91FC910190F081E02DBE0106
:104250006B5E7F4FC8010995811123CEF80100855F
:104260001185EBCF181619060CF41BCED2CEF1E057
:10427000FF12BECE68E979E004CF1F920F920FB60D
:104280000F9211242F933F934F935F936F937F93DC
:104290008F939F93AF93BF93EF93FF938091B90058
:1042A000887F803609F44AC0F0F5883209F4A7C047
:1042B00018F5803109F49BC0B8F4882309F4F9C0DB
:1042C000883009F494C0FF91EF91BF91AF919F9115
:1042D0008F917F916F915F914F913F912F910F90AF
:1042E0000FBE0F901F901895883109F488C0803256
:1042F00051F780933D0514C0803409F49DC040F40B
:104300008033B9F38833F9F680933D0585ECB0C06E
:10431000803509F485C0883509F496C0883499F64B
:104320000E944214D0CF883909F48CC038F5883700
:1043300029F050F4883611F0803729F683E0809315
:104340005F051092870457C0883809F47BC0803914
:1043500019F0803809F0B7CF80918704803208F0D7
:1043600071C0E091870481E08E0F80938704809173
:10437000BB00F0E0E959FB4F80833DC0803B39F042
:10438000E0F4803A09F479C0883A09F09CCF84E0DF
:1043900080935F051092660410926504E091B60464
:1043A000F091B70409958091650481110FC081E0F7
:1043B000809365041092450409C0803C09F4A6CF9F
:1043C000883C09F4A3CF883B09F07DCFE0916604D7
:1043D00081E08E0F80936604F0E0EB5BFB4F808101
:1043E0008093BB00909166048091650429C0809100
:1043F0003A058093BB0085EC8093BC0064CF90911C
:104400003C0580913B05981758F5E0913C0581E00B
:104410008E0F80933C05F0E0E75EFA4F8081E9CF94
:10442000E0913C0581E08E0F80933C058091BB00BC
:10443000F0E0E75EFA4F808390913C0580913B0568
:104440009817C8F285E8D8CFE0913C0581E08E0F3F
:1044500080933C058091BB00F0E0E75EFA4F8083DB
:1044600080913E0581115CCF81E08093390584EA1B
:104470008093BC0010925F0526CF85EC8093BC0032
:1044800010925F0580918704803230F4E0918704B8
:10449000F0E0E959FB4F10826091870470E0E091F1
:1044A000B804F091B90487E694E009951092870466
:1044B0000ACF10923D0534CF21E042E06AE68091B8
:1044C000C1050C94A30FE5E6F5E01382128288EE95
:1044D00093E0A0E0B0E084839583A683B78327E4CC
:1044E00031E0318320832FEF3FEF35872487E5EBE1
:1044F000F5E01382128284839583A683B78389E5CE
:1045000091E091838083E0EEF5E080E090E0A0E828
:10451000BFE380839183A283B383148215821682C2
:1045200017821086118612861386148615861686C3
:104530001786E4EDF5E01082118212821382148254
:10454000158216821782108611861286138688E6D7
:104550008093C1058093F0050895789484B58260B6
:1045600084BD84B5816084BD85B5826085BD85B517
:10457000816085BD80916E00816080936E00109295
:104580008100809181008260809381008091810010
:1045900081608093810080918000816080938000A1
:1045A0008091910082608093910080919100816060
:1045B0008093910080919000816080939000809121
:1045C000C10084608093C1008091C10082608093AB
:1045D000C1008091C10081608093C1008091C300BF
:1045E00081608093C3008091C00082608093C0008E
:1045F0008091C20081608093C20080917A008460C3
:1046000080937A0080917A00826080937A00809112
:104610007A00816080937A0080917A00806880932C
:104620007A001092F40410929B0410929A048091E4
:10463000D70081608093D70080EA8093D80089B545
:10464000806189BD89B5826089BD09B400FEFDCF56
:1046500061E070E080E090E00E947F068091D800E9
:104660008F7C80618093D8008091E000807F809370
:10467000E0008091E1008E7E8093E1008DE08093E8
:10468000E200559A209A1092BB041092BA0410923C
:104690001605109215050E940A098DEB96E090937D
:1046A000B7048093B6048EEB96E09093B9048093A0
:1046B000B80400EC14E0D0E0C0E0CE010E94442831
:1046C000D8018D938D012196C431D105B1F748E011
:1046D00050E06AE671E080EC94E00E94BB2D892BEB
:1046E00049F0E0ECF4E084E1DF011D928A95E9F7FE
:1046F0000E94671D62E089E00E94290662E08AE06C
:104700000E94290661E081E10E942906C8E0D0E00C
:104710008C2F0E9452050E94210A811107C0C335C7
:10472000D105F9F054F4CD31D105D9F02196C8372F
:10473000D10571F790E080E01FC0CE018856910945
:104740000297A0F784E090E00E94D92B23E331E0A8
:10475000DC0111963C932E931396DC93CE93129723
:104760000BC084E090E00E94D92B2DE331E0FC01E6
:1047700031832083D383C2839093E9048093E80438
:10478000009709F4D8C2DC01ED91FC910190F08111
:10479000E02D099501E0029709F000E080E590E046
:1047A0000E94D92BEC01C02EE02E21E041E061E017
:1047B0000E945811D093E704C093E6048091E80466
:1047C0009091E904DC01ED91FC910280F381E02DF0
:1047D00040EC54E0BE0109958091E6049091E70415
:1047E000FC01148E0E9485186AE070E080E090E081
:1047F0000E947F06612C00E4702E88248A94982CF5
:1048000054018091D404882309F4E7C28091A8045C
:104810009091A904892B91F48BEA91E00E94C70D35
:104820000E94F70F21E030E03093A9042093A80400
:1048300068EE73E080E090E00E947F068091A8041B
:104840009091A904019709F032C18EEC91E00E9489
:10485000C70D8091A6049091A70497FD079613E0D9
:10486000959587951A95E1F7919581959109909382
:10487000B5048093B4048091A4049091A50497FD9D
:104880000796D3E095958795DA95E1F7919581950F
:1048900091099093B3048093B2048091A204909103
:1048A000A304D301A81BB90BCD01B7FD0796C3E044
:1048B00095958795CA95E1F79093B1048093B004DC
:1048C0008091A0049091A10497FD039695958795FA
:1048D000959587959195819591099093AF048093D3
:1048E000AE0480919E0490919F0497FD0396959548
:1048F0008795959587959195819591099093AD04AC
:104900008093AC0480919C0490919D0497FD039644
:104910009595879595958795919581959109909312
:10492000AB048093AA04E090B404F090B504A7010E
:1049300066E08091F0050E94CC0B0091B2041091CA
:10494000B304A80168E08091F0050E94CC0BC090F0
:10495000B004D090B104A6016AE08091F0050E94F5
:10496000CC0B2090AE043090AF04A10163E18091A4
:10497000F0050E94CC0B4090AC045090AD04A20115
:1049800065E18091F0050E94CC0BC091AA04D09102
:10499000AB04AE0167E18091F0050E94CC0B0E9450
:1049A000F70F8AEC91E00E94C70D8091A6049091C8
:1049B000A7049C0197FF04C022273327281B390B2B
:1049C000293031050CF4C9C197FD0796E3E09595B0
:1049D0008795EA95E1F7E81AF90AF092B504E092B2
:1049E000B40430E020E08091A4049091A504AC01CF
:1049F00097FF04C044275527481B590B49305105E0
:104A00000CF0AEC12F5F3F4F4091A2045091A30420
:104A1000C301841B950B5054181619060CF4AC01F5
:104A2000493051050CF0AAC12F5F3F4F8091A0047F
:104A30009091A104AC0197FF04C044275527481B5F
:104A4000590B423051050CF0A7C12F5F3F4F8091A9
:104A50009E0490919F04AC0197FF04C04427552702
:104A6000481B590B423051050CF0A1C12F5F3F4F3D
:104A700080919C0490919D04AC0197FF04C0442751
:104A80005527481B590B423051050CF09BC125306E
:104A9000310509F048CFE2E0F0E0F093A904E0939B
:104AA000A80468EE73E080E090E00E947F068091A9
:104AB000A8049091A904029709F090C20E94F70FF0
:104AC00086EE91E00E94C70D81EF91E00E94D50D26
:104AD0008091A6049091A7040E94D70D8FE092E0E8
:104AE0000E94D50D8091A4049091A5040E94D70D39
:104AF0008FE092E00E94D50D8091A2049091A304D2
:104B00000E94D70D8FE092E00E94D50D8091A00405
:104B10009091A1040E94D70D8FE092E00E94D50DE4
:104B200080919E0490919F040E94D70D8FE092E0A7
:104B30000E94D50D80919C0490919D040E94D70DF8
:104B400087E691E00E94BA0D81E192E00E94D50DC6
:104B50008091B4049091B5040E94D70D8FE092E04B
:104B60000E94D50D8091B2049091B3040E94D70D9C
:104B70008FE092E00E94D50D8091B0049091B10435
:104B80000E94D70D8FE092E00E94D50D8091AE0477
:104B90009091AF040E94D70D8FE092E00E94D50D56
:104BA0008091AC049091AD040E94D70D8FE092E00B
:104BB0000E94D50D8091AA049091AB040E94D70D5C
:104BC00087E691E00E94BA0D80E292E00E94C70D54
:104BD00089E592E00E94C70D86E992E00E94C70D28
:104BE0008091B4049091B5049093C9048093C80453
:104BF0008091B2049091B3049093CB048093CA0443
:104C00008091B0049091B1049093CD048093CC0432
:104C10008091AE049091AF049093CF048093CE0422
:104C20008091AC049091AD049093D1048093D00412
:104C30008091AA049091AB049093D3048093D20402
:104C40000E94671D1092D4048091D4048111C6C1C2
:104C50008091E8049091E904009759F06091E6048E
:104C60007091E704DC01ED91FC910480F581E02D69
:104C70000995C091E604D091E7048AE00E94D2052C
:104C80008C0181E00115110509F080E08093E404B6
:104C900089E00E94D20521E0009709F020E02093EE
:104CA000E5042D8D892B09F44CC1222309F4E0C1C0
:104CB000EA8DFB8D80818E7F80838C8D882319F017
:104CC000CE010E948518012B09F4D5C18D8D82304B
:104CD00058F0EA8DFB8D80818D7F80838C8D8823B9
:104CE00019F0CE010E9485180E94B106AB01BC01EB
:104CF0008091E0049091E104A091E204B091E3047A
:104D00008C509E4FAF4FBF4F84179507A607B7072C
:104D100008F05EC14093E0045093E1046093E20424
:104D20007093E3048091DF04882309F412C1109288
:104D3000DF0461E04AC180E590E00E94D92BEC01DC
:104D4000C12CE12C00E020E040E060E00E9458111E
:104D5000D093E704C093E6043FCD21E030E043CE9A
:104D600097FD079673E0959587957A95E1F7081B6F
:104D7000190B1093B3040093B20446CE97FD079627
:104D800063E0959587956A95E1F78C0D9D1D90934D
:104D9000B1048093B0044ACE97FD0196959587950E
:104DA000281A390A3092AF042092AE0450CE97FDF3
:104DB000019695958795481A590A5092AD044092EC
:104DC000AC0456CE97FD019695958795C81BD90BD7
:104DD000D093AB04C093AA04A6CD0E94B106AB0148
:104DE000BC018091E404882309F4A2C08091E50409
:104DF000882309F49DC08091BC049091BD04A091CA
:104E0000BE04B091BF04805E914BAF4FBF4F84177B
:104E10009507A607B70708F01BCFF1E0F093D4047D
:104E20001092BB041092BA04109216051092150548
:104E30000E940A092DEB36E03093B7042093B604A4
:104E40008EEB96E09093B9048093B80498E1909328
:104E5000B800AFEFBFEFB0937205A093710580EF7C
:104E600095E00E94D60F85E695E00E94C208892B46
:104E700031F085E695E00E948008892BA1F78BE24E
:104E800093E00E94C70D60ED77E080E090E00E9423
:104E90007F0687E493E00E94C70D68EB7BE080E02B
:104EA00090E00E947F0628EE33E041EF55E065E791
:104EB0008091F0050E940F0F8091F1058433A9F5D0
:104EC00083E791E00E94C70D68EE73E080E090E018
:104ED0000E947F0650E040E066E08091F0050E946D
:104EE000CC0B50E040E068E08091F0050E94CC0BD4
:104EF00050E040E06AE08091F0050E94CC0B50E069
:104F000040E063E18091F0050E94CC0B50E040E06E
:104F100065E18091F0050E94CC0B50E040E067E134
:104F20008091F0050E94CC0B8FCE81E991E0CACF31
:104F30004093BC045093BD046093BE047093BF04BF
:104F400083CE222309F494C0EA8DFB8D8081816099
:104F5000B3CE4091DB045091DC046091DD0470918C
:104F6000DE04473051056105710508F078C0FA018B
:104F7000E454F84D0C94BF2BC327F627FF270F28C6
:104F80001F28CA27CA279D8D992321F0EA8DFB8D02
:104F9000808181704091DB045091DC046091DD04DC
:104FA0007091DE044F5F5F4F6F4F7F4F4093DB0484
:104FB0005093DC046093DD047093DE04B1E0B093A1
:104FC000DF0460E0882309F4B4CE81E10E94FB0590
:104FD0008091E6049091E7040E948518E0E0F0E0FB
:104FE000EF2B09F40ECC0E9400000BCC9D8D92306B
:104FF00088F2EA8DFB8D808186958170CBCF2881E8
:10500000398181E04091D9045091DA044217530765
:1050100009F480E03093DA042093D904BBCF2A81CD
:105020003B8181E04091D7045091D8044217530747
:1050300009F480E03093D8042093D704ABCF2C81BF
:105040003D8181E04091D5045091D6044217530729
:1050500009F480E03093D6042093D5049BCF80924E
:10506000DB049092DC04A092DD04B092DE0492CFC7
:10507000012B09F039CE8D8D823008F435CEEA8DC2
:10508000FB8D8081826029CEF999FECF92BD81BDD2
:10509000F89A992780B50895262FF999FECF1FBA5F
:1050A00092BD81BD20BD0FB6F894FA9AF99A0FBE51
:1050B00001960895052E97FB1EF400940E94712816
:1050C00057FD07D00E94792807FC03D04EF40C94BA
:1050D000712850954095309521953F4F4F4F5F4F28
:1050E000089590958095709561957F4F8F4F9F4F54
:1050F0000895A1E21A2EAA1BBB1BFD010DC0AA1F19
:10510000BB1FEE1FFF1FA217B307E407F50720F030
:10511000A21BB30BE40BF50B661F771F881F991FAB
:105120001A9469F760957095809590959B01AC01F4
:10513000BD01CF0108955058BB27AA270E94B3286C
:105140000C949D2A0E948F2A38F00E94962A20F003
:1051500039F49F3F19F426F40C94652A0EF4E09577
:10516000E7FB0C945F2AE92F0E94AE2A58F3BA1786
:10517000620773078407950720F079F4A6F50C946D
:10518000D02A0EF4E0950B2EBA2FA02D0B01B901F9
:1051900090010C01CA01A0011124FF27591B99F0AD
:1051A000593F50F4503E68F11A16F040A22F232FB9
:1051B000342F4427585FF3CF469537952795A79509
:1051C000F0405395C9F77EF41F16BA0B620B730BB0
:1051D000840BBAF09150A1F0FF0FBB1F661F771F21
:1051E000881FC2F70EC0BA0F621F731F841F48F4D6
:1051F000879577956795B795F7959E3F08F0B0CF5F
:105200009395880F08F09927EE0F97958795089545
:105210000E948F2A60F080E891E009F49EEF0E94DE
:10522000962A28F040E851E071F45EEF0CC00C942F
:10523000652A0C94D02AE92FE0780E94AE2A40F328
:10524000092E052AB1F3261737074807590738F002
:105250000E2E07F8E02569F0E025E0640AC0EF6350
:1052600007F8009407FADB01B9019D01DC01CA01CE
:10527000AD01EF930E9491290E949D2A0E944B2923
:105280005F91552339F02BED3FE049E450FD49ECA7
:105290000C949C280895DF93DD27B92FBF7740E851
:1052A0005FE31616170648075B0718F4D92F0E940C
:1052B000D72A9F938F937F936F930E94922BECEA50
:1052C000F0E00E94682A0E949D2A2F913F914F9101
:1052D0005F910E94F22ADD2351F09058A2EA2AED54
:1052E0003FE049EC5FE3D0785D270E94B328DF916F
:1052F0000C949D2A0E948E290C949D2A0E94962A25
:1053000058F00E948F2A40F029F45F3F29F00C9456
:105310005F2A51110C94D12A0C94652A0E94AE2A5E
:1053200068F39923B1F3552391F3951B550BBB27D4
:10533000AA2762177307840738F09F5F5F4F220F19
:10534000331F441FAA1FA9F335D00E2E3AF0E0E810
:1053500032D091505040E695001CCAF72BD0FE2F5A
:1053600029D0660F771F881FBB1F261737074807EE
:10537000AB07B0E809F0BB0B802DBF01FF279358A6
:105380005F4F3AF09E3F510578F00C945F2A0C94E1
:10539000D12A5F3FE4F3983ED4F3869577956795DD
:1053A000B795F7959F5FC9F7880F911D96958795DB
:1053B00097F90895E1E0660F771F881FBB1F6217FA
:1053C00073078407BA0720F0621B730B840BBA0BB8
:1053D000EE1F88F7E09508950E94F3296894B111B3
:1053E0000C94D12A08950E94B62A88F09F5798F00D
:1053F000B92F9927B751B0F0E1F0660F771F881FDA
:10540000991F1AF0BA95C9F714C0B13091F00E94F3
:10541000D02AB1E008950C94D02A672F782F8827DE
:10542000B85F39F0B93FCCF3869577956795B3951A
:10543000D9F73EF490958095709561957F4F8F4F89
:105440009F4F0895E89409C097FB3EF4909580958E
:10545000709561957F4F8F4F9F4F9923A9F0F92F3A
:1054600096E9BB279395F695879577956795B795B8
:10547000F111F8CFFAF4BB0F11F460FF1BC06F5F9E
:105480007F4F8F4F9F4F16C0882311F096E911C0B0
:10549000772321F09EE8872F762F05C0662371F0D1
:1054A00096E8862F70E060E02AF09A95660F771FE5
:1054B000881FDAF7880F9695879597F9089597F9D9
:1054C0009F6780E870E060E008959FEF80EC0895AA
:1054D000DF93CF931F930F93FF92EF92DF927B01A5
:1054E0008C01689406C0DA2EEF010E94F22AFE01B8
:1054F000E894A5912591359145915591A6F3EF0139
:105500000E94B328FE019701A801DA9469F7DF90A1
:10551000EF90FF900F911F91CF91DF91089500249C
:105520000A941616170618060906089500240A9408
:1055300012161306140605060895092E0394000C8E
:1055400011F4882352F0BB0F40F4BF2B11F460FF1D
:1055500004C06F5F7F4F8F4F9F4F089557FD905846
:10556000440F551F59F05F3F71F04795880F97FB27
:10557000991F61F09F3F79F08795089512161306E1
:105580001406551FF2CF4695F1DF08C01616170610
:105590001806991FF1CF8695710561050894089545
:1055A000E894BB2766277727CB0197F908959B01DD
:1055B000AC0160E070E080E89FE30C947A290E94DF
:1055C000F22A0C949D2A0E948F2A38F00E94962A73
:1055D00020F0952311F00C945F2A0C94652A112475
:1055E0000C94D12A0E94AE2A70F3959FC1F3950FB7
:1055F00050E0551F629FF001729FBB27F00DB11D57
:10560000639FAA27F00DB11DAA1F649F6627B00DE6
:10561000A11D661F829F2227B00DA11D621F739FCF
:10562000B00DA11D621F839FA00D611D221F749FDD
:105630003327A00D611D231F849F600D211D822F24
:10564000762F6A2F11249F5750409AF0F1F088234B
:105650004AF0EE0FFF1FBB1F661F771F881F915078
:105660005040A9F79E3F510580F00C945F2A0C949E
:10567000D12A5F3FE4F3983ED4F3869577956795FA
:10568000B795F795E7959F5FC1F7FE2B880F911DA2
:105690009695879597F9089519F416F40C94652A50
:1056A0000C94962B0E94B62AB8F39923C9F3B6F34B
:1056B0009F57550B87FF0E94A42B0024A0E640EAC9
:1056C000900180585695979528F4805C660F771F57
:1056D000881F20F026173707480730F4621B730B2A
:1056E000840B202931294A2BA6951794079420254D
:1056F00031254A2758F7660F771F881F20F0261795
:105700003707480730F4620B730B840B200D311DF3
:10571000411DA09581F7B901842F9158880F969566
:10572000879508959B01AC010C94DF2A9F3F31F0CF
:10573000915020F4879577956795B795880F911DBF
:105740009695879597F9089591505040660F771F69
:10575000881FD2F7089597FB072E16F4009407D000
:1057600077FD09D00E94C52B07FC05D03EF490952B
:1057700081959F4F0895709561957F4F0895EE0F25
:10578000FF1F0590F491E02D0994AA1BBB1B51E16A
:1057900007C0AA1FBB1FA617B70710F0A61BB70BA1
:1057A000881F991F5A95A9F780959095BC01CD0146
:1057B00008950F931F93CF93DF938230910510F4D8
:1057C00082E090E0E0910106F091020630E020E0F6
:1057D000B0E0A0E0309799F42115310509F44AC0F2
:1057E000281B390B24303105D8F58A819B8161153E
:1057F000710589F1FB0193838283FE0111C0408111
:1058000051810281138148175907E0F04817590761
:1058100099F4109761F012960C93129713961C93BB
:105820003296CF01DF91CF911F910F910895009390
:10583000010610930206F4CF2115310551F04217ED
:10584000530738F0A901DB019A01BD01DF01F8011E
:10585000C1CFEF01F9CF9093020680930106CDCF1F
:10586000FE01E20FF31F8193919322503109398396
:105870002883D7CF2091FF0530910006232B41F4D8
:1058800020911F0130912001309300062093FF05E5
:1058900020911D0130911E012115310541F42DB7D4
:1058A0003EB74091210150912201241B350BE0911C
:1058B000FF05F0910006E217F307A0F42E1B3F0B43
:1058C0002817390778F0AC014E5F5F4F2417350772
:1058D00048F04E0F5F1F509300064093FF058193E1
:1058E00091939FCFF0E0E0E09CCFCF93DF930097C0
:1058F000E9F0FC01329713821282A0910106B09167
:105900000206ED0130E020E01097A1F42081318102
:10591000820F931F2091FF05309100062817390749
:1059200009F061C0F0930006E093FF05DF91CF918D
:105930000895EA01CE17DF07E8F54A815B819E01F1
:1059400041155105B1F7E901FB83EA83499159916A
:10595000C40FD51FEC17FD0761F480819181029679
:10596000840F951FE90199838883828193819B83AA
:105970008A83F0E0E0E012968D919C911397009756
:10598000B9F52D913C911197CD010296820F931F8D
:105990002091FF05309100062817390739F6309716
:1059A00051F51092020610920106B0930006A093E2
:1059B000FF05BCCFD383C28340815181840F951FE3
:1059C000C817D90761F44E5F5F4F88819981480FEE
:1059D000591F518340838A819B8193838283211540
:1059E000310509F0B0CFF0930206E09301069ECF97
:1059F000FD01DC01C0CF13821282D7CFB0E0A0E05E
:105A0000E4E0FDE20C94D32D8C01009751F4CB011E
:105A10000E94D92B8C01C801CDB7DEB7E0E10C9410
:105A2000EF2DFC01E60FF71F9C0122503109E21710
:105A3000F30708F49DC0D901CD91DC911197C617E9
:105A4000D70798F0C530D10530F3CE0104978617FB
:105A5000970708F3C61BD70B2297C193D1936D9379
:105A60007C93CF010E94752CD6CF5B01AC1ABD0A86
:105A70004C018C0E9D1EA0910106B0910206512C86
:105A8000412CF12CE12C109731F58091FF0590917C
:105A900000068815990509F05CC04616570608F0FF
:105AA00058C080911D0190911E01009741F48DB75F
:105AB0009EB74091210150912201841B950BE8175C
:105AC000F90708F055C0F0930006E093FF05F901CF
:105AD00071836083A0CF8D919C91119712966C90E9
