:100000000C9424050C94AC1E0C94851E0C945E1E5E
:100010000C94371E0C944C050C944C050C94101E3B
:100020000C944C050C944C050C94251B0C94941BBF
:100030000C944C050C944C050C944C050C944C05FC
:100040000C944C050C944C050C944C050C944C05EC
:100050000C944C050C944C050C944C050C94C61D4A
:100060000C944C050C944C050C944C050C944C05CC
:100070000C944C050C944C050C944C050C944C05BC
:100080000C944C050C944C050C944C050C944C05AC
:100090000C94D31E0C944C050C944C050C944C05FC
:1000A0000C944C050C944C050C944C05084AD73B19
:1000B0003BCE016E84BCBFFDC12F3D6C74319ABD37
:1000C00056833DDA3D00C77F11BED9E4BB4C3E915B
:1000D0006BAAAABE000000803F0001B202FFFF0130
:1000E00090040923A135016A02060001600800009E
:1000F00000000000000000600440000000016202F7
:10010000000000600400400000037B034CCD6C0342
:10011000AB0336567600680402CB47A202180400EF
:10012000058BC1010C0400000000037F060CC92CE4
:10013000979797038903264666006C0220000240C9
:100140000400000000024404000000000248040013
:10015000000000024C0400000000025004000000F7
:1001600000025404000000000258040000000002D5
:100170005C040000000002BC040000000001EC046C
:1001800000004000037F060CC92C979797040203D8
:100190000D355D040904872D353D00A301000000E5
:1001A0000001078601FE074105F120283038077E4F
:1001B00001300746019A074704F1283038076C04DC
:1001C000F12830380216020002FB00003E000B004E
:1001D00036000100020003000000650054FFEF003C
:1001E00000FA80000B1282000100020000000000F3
:1001F00000000000000000000000280000FFFF4594
:1002000081FFFFFA7200000000000003E800000018
:100210000100017FFFFFFE8001001B0000000000C5
:10022000000000000000000000003E03304000001D
:100230000002CAE3093E8000002000000000000028
:1002400000400000006000000041FF000000000BC3
:100250002A0000165500002182FD872650FD8000EF
:1002600000001F00000005800000000000000100E9
:100270000000020000000300004000000000000435
:100280006F0002653200005EC04000000000000008
:10029000000000000000000000FB8C6F5DFD5D08A9
:1002A000D9007C733B006C12CC3200139D3200D01D
:1002B000D632000800400001F4FFE6807902000019
:1002C000000000D0D600002710FB00000040000016
:1002D000000000000000000000000000010000001D
:1002E0000000000100010000000000FA36FFBC30F1
:1002F0008E0005FBF0FFD95BC8FFD09ABE0000104E
:10030000A9FFF41EB200CEBBF70000000100000000
:1003100004000200020200000CFFC2800000018005
:100320000000CF800040000000000000010000003D
:1003300000000006000000001400000000000000A3
:1003400000000000000000000000000000000000AD
:10035000000000000000000000000000000000009D
:1003600000000000000000000000000000033F68E3
:10037000B6793528BCC67ED16C80000000400000F4
:10038000000000B26A000000000000000000000051
:100390000000003FF00000003000000000000000FE
:1003A000000000000000000000000000000000004D
:1003B0000000000000000000000000254D002F702C
:1003C0006D000005AE000C02D000000000006500CA
:1003D00054FFEF0000000000000000010000440096
:1003E0000000000C0000000100000000000065009B
:1003F0000000540000FFEF000000000000000000BB
:1004000000000000000000000040000000000000AC
:10041000000000000000000000400000000000009C
:1004200000000000000000000000000001000000CB
:1004300002000000000000000000000000000000BA
:1004400000000000000000000000000000000000AC
:10045000000000000000000000001B000000000081
:10046000000000000000000000000000000000008C
:10047000000000000000000000000000000000007C
:10048000000000000040000000001B000000000011
:10049000000000000000000000000000000000005C
:1004A000000000000000000000000000000000004C
:1004B000000000000000000000000000000000003C
:1004C000000000000000000000D8DCBAA2F1DEB29B
:1004D000B8B4A88191F74A907F916AF3F9DBA8F943
:1004E000B0BAA080F2CE81F3C2F1C1F2C3F3CCA2C4
:1004F000B280F1C6D880BAA7DFDFDFF2A7C3CBC5D1
:10050000B6F087A2942448703C95406834589B7894
:10051000A2F183922D557DD8B1B4B8A1D09180F2CB
:1005200070F370F27C80A8F101B09887D943D88627
:10053000C988BAA1F20EB89780F1A9DFDFDFAADF80
:10054000DFDFF2AAC5CDC7A90CC92C97979797F101
:10055000A989264666B0B4BA80ACDEF2CAF1B28C84
:1005600002A9B69800890E161EB8A9B4992C547C1D
:10057000B08AA896365676F1B9AFB4B083C0B8A8A1
:100580009711B18F98B9AFF0240844106418F1A303
:1005900029557DAF83B593AFF0002850F1A3869F16
:1005A00061A6DADEDFD9FAA38696DB31A6D9F8DFB9
:1005B000BAA68FC2C5C7B28CC1B8A2DFDFDFA3DF86
:1005C000DFDFD8D8F1B8A8B286B4980D355DB8AAE7
:1005D00098B0872D353DB2B6BAAF8C96198F9FA7CC
:1005E0000E161EB49AB8AA872C547CB9A3DEDFDF9E
:1005F000A3B180F2C4CDC9F1B8A9B499830D355D1A
:1006000089B9A32D557DB593A30E161EA92C547C34
:10061000B8B4B0F19783A81184A50998A383F0DA40
:10062000240844106418D8F1A529557DA5859502A4
:100630001A2E3A565A4048F9F3A3D9F8F098832471
:1006400008441064189782A8F111F098A224084475
:10065000106418DAF3DED883A59401D9A302F1A2BD
:10066000C3C5C7D8F18492A24DDA2AD84869D92ADD
:10067000D86855DA32D85071D932D8705DDA3AD8A4
:100680005879D93AD87893A34DDA2AD84869D92A23
:10069000D86855DA32D85071D932D8705DDA3AD884
:1006A0005879D93AD878A88A9AF02850789EF38851
:1006B00018F19F1D98A8D908D8C89F129EF315A8B5
:1006C000DA1210D8F1AFC8978734B5B994A421F3E2
:1006D000D922D8F22DF3D92AD8F235F3D932D881DC
:1006E000A4606061D961D86C6869D969D874707187
:1006F000D971D8B1A384193D5DA3831A3E5E9310CE
:1007000030811011B8B0AF8F94F2DA3ED8B49AA805
:100710008729DAF8D8879A35DAF8D8879A3DDAF84F
:10072000D8B1B9A49885022E56A581000C14A397C0
:10073000B08AF12DD928D84DD948D86DD968D8B10B
:10074000840DDA0ED8A32983DA2C0ED8A38449832A
:10075000DA2C4C0ED8B8B0A88A9AF520AADADFD8DD
:10076000A840AAD0DADED8A860AADAD0DFD8F197FC
:1007700086A8319B069907AB9728889BF00C20141C
:1007800040B8B0B4A88C9CF0042851791D301438BE
:10079000B282ABD0982C505078789BF11AB0F08A86
:1007A0009CA82951798B2951798A2470598B20581A
:1007B000718A4469388B3940688A6448318B304982
:1007C00060A588200971584468113964493019F1CD
:1007D000AC002C547CF08CA804285078F188972623
:1007E000A85998AC8C02264666F0899CA8295179B4
:1007F000247059446938644831A98809205970AB7C
:1008000011384069A8193148608CA83C415C207CB3
:1008100000F187981986A86E767EA999882D557D56
:100820009EB9A38A228A6E8A568A5E9FB183062663
:1008300046660E2E4E6E9DB8AD002C547CF2B18CE7
:10084000B499B9A32D557D8191AC38AD3AB583915A
:10085000AC2DD928D84DD948D86DD968D88C9DAE43
:1008600029D904AED851D904AED879D904D881F3A6
:100870009DAD008DAE1981ADD901D8F2AEDA26D882
:100880008E912983A7D9ADADADADF32AD8D8F1B0FB
:10089000AC89913E5E76F3AC2E2EF1B18C5A9CACB5
:1008A0002C2828289CAC3018A8988128343C972400
:1008B000A728343C9C24F2B089AC912C4C6C8A9BC8
:1008C0002DD9D8D851D9D8D879D9D8D8F19E88A3DC
:1008D00031DAD8D8912DD928D84DD948D86DD968D2
:1008E000D8B18393353D8025DAD8D88569DAD8D850
:1008F000B49381A328343CF3AB8BF8A391B609B42D
:10090000D9ABDEFAB0879CB9A3DDF1A3A3A3A3956D
:10091000F1A3A3A39DF1A3A3A3A3F2A3B49080F298
:10092000A3A3A3A3A3A3A3A3A3A3B2A3A3A3A3A388
:10093000A3B087B599F1A3A3A398F1A3A3A3A39709
:10094000A3A3A3A3F39BA3A3DCB9A7F1262626D8D0
:10095000D8FF000000002300260029002C002F00F3
:100960000000000200090F0000030401000C000059
:10097000000000000000000000000000000000086F
:100980000B00020202000009040000010202000044
:100990000524001001052401010104240206052498
:1009A0000600010705810310004009040100020A46
:1009B0000000000705020240000007058302400016
:1009C000000403090412010002EF02014041233632
:1009D0008000010102030141726475696E6F204C51
:1009E0004C430048616E6462656C6C00000000005E
:1009F000250028002B002E003100000000002400FC
:100A000027002A002D003000040404040403040518
:100A1000020202020403020202020606060606069B
:100A20000404020202040404080201104080401081
:100A30002040804080080204018040201002011004
:100A4000801020404020F91F11241FBECFEFDAE0B4
:100A5000DEBFCDBF11E0A0E0B1E0E6E1FFE402C0FF
:100A600005900D92A836B107D9F723E0A8E6B1E0CA
:100A700001C01D92AC33B207E1F715E0C4E2D5E046
:100A800004C02197FE010E944025C332D107C9F757
:100A90000E9441200C9489270C940000CF93DF938F
:100AA00090E0FC01E95DF54F2491885F954FFC01D2
:100AB00084918823C1F090E0880F991FFC01E650D3
:100AC000F64FC591D491FC01E451F64FA591B49134
:100AD0009FB7F8943881822F809583238883EC9187
:100AE000E22BEC939FBFDF91CF910895FC018091A1
:100AF0003C02882311F13FB7F89482E08093E9002B
:100B00002091F200822F90E01816190614F481E06B
:100B100090E0882339F0289844E640933B024091C6
:100B2000F1004083222339F02091F200211103C00B
:100B30002BE62093E8003FBF08958FEF9FEF0895C5
:100B4000CF93DF931F92CDB7DEB76983DC01ED91C0
:100B5000FC910280F381E02D41E050E0BE016F5F27
:100B60007F4F09950F90DF91CF91089583E0809397
:100B7000E9008091F200882319F08AE38093E8006D
:100B80000895CF93DF931F92CDB7DEB7FC01848524
:100B9000958597FD08C02FEF3FEF358724870F908D
:100BA000DF91CF910895CE0101960E9476050197BD
:100BB00019F4898190E0F3CF8FEF9FEFF0CF0F937F
:100BC0001F93CF93DF931F92CDB7DEB78C01FC014B
:100BD0008485958597FF0BC0CE0101960E9476050E
:100BE000019771F4898190E0F80195878487F80175
:100BF000848595850F90DF91CF911F910F91089576
:100C00008FEF9FEFF1CFFC018485958597FD0BC099
:100C10009FB7F89482E08093E9008091F2009FBF33
:100C200090E0019608959FB7F89482E08093E900E0
:100C30008091F2009FBF90E008950895089540913B
:100C40002B0250912C022091290230912A02421746
:100C50005307B4F49091E8009570E1F39091E800A7
:100C600092FD19C08093F10080912B0290912C028B
:100C700001968F739927892B19F48EEF8093E800E2
:100C800080912B0290912C02019690932C028093DC
:100C90002B0281E0089580E00895EF92FF920F9378
:100CA0001F93CF93DF93F82E192FE62E042F81E0A8
:100CB000860F880F0E941F0683E00E941F06CF2D1B
:100CC000D12FEC0EFD2EF11CCE15DF05B9F007FF7C
:100CD00013C0FE0184910E941F06182F80E00E941D
:100CE0001F06812321968111EFCFDF91CF911F91B4
:100CF0000F91FF90EF9008958881EDCF81E0F5CFBF
:100D0000DF92EF92FF920F931F93CF93DF93D82E32
:100D10008A01EB017B01E40EF51ECE15DF0559F0CB
:100D2000D7FE12C0FE0184910E941F0621968111F8
:100D3000F4CF0FEF1FEFC801DF91CF911F910F91FB
:100D4000FF90EF90DF9008958881EECF2FB7F89451
:100D500087708093E9009091E800892F807295FF59
:100D600004C09091F20080E4891B2FBF089583E0B6
:100D70000E94A60690E00895615030F02091F100A5
:100D8000FC0120830196F8CF289884E680933B02EB
:100D900008958091210281110DC082E080931D028F
:100DA00084E080931E021092200210921F0281E0C4
:100DB000809321028DE192E008950F931F93CF93CA
:100DC000DF931F92CDB7DEB782E0898342E450E023
:100DD0006FE779E080E80E9480060E94C906DC0186
:100DE00012960D911C910115110589F0D801ED9114
:100DF000FC910280F381E02DBE016F5F7F4FC8013F
:100E0000099597FD04C0F80100851185ECCF898113
:100E10000F90DF91CF911F910F91089581508F30E6
:100E200008F047C0E82FF0E0E85EF84F0C9440254A
:100E30003507390727072D0731075907590759077C
:100E40003C07420746074A07500759075407809155
:100E500080008F77809380000895809180008F7D3F
:100E6000F9CF80918000877FF5CF84B58F7784BDDF
:100E7000089584B58F7DFBCF809190008F7780930C
:100E800090000895809190008F7DF9CF809190001F
:100E9000877FF5CF8091C0008F778093C000089541
:100EA0008091C0008F7DF9CF8091C200877F8093B1
:100EB000C2000895CF93DF93282F30E0F901E05A64
:100EC000F64F8491F901E95DF54FD491F901E85F9E
:100ED000F54FC491CC23A1F081110E940E07EC2F95
:100EE000F0E0EE0FFF1FEE5AF64FA591B491EC9192
:100EF000ED2381E090E009F480E0DF91CF91089547
:100F000080E090E0FACF1F93CF93DF93282F30E05B
:100F1000F901E05AF64F8491F901E95DF54FD4915A
:100F2000F901E85FF54FC491CC23A9F0162F811188
:100F30000E940E07EC2FF0E0EE0FFF1FE451F64F7A
:100F4000A591B4918FB7F894EC91111108C0D09588
:100F5000DE23DC938FBFDF91CF911F910895DE2BAD
:100F6000F8CF3FB7F8948091190290911A02A0919E
:100F70001B02B0911C0226B5A89B05C02F3F19F09B
:100F80000196A11DB11D3FBFBA2FA92F982F882709
:100F9000BC01CD01620F711D811D911D42E0660FE4
:100FA000771F881F991F4A95D1F708958F929F92B6
:100FB000AF92BF92CF92DF92EF92FF924B015C0112
:100FC0000E94B1076B017C010E94B1076C197D0979
:100FD0008E099F09683E734081059105A8F321E0C1
:100FE000821A9108A108B10888EEC80E83E0D81EC5
:100FF000E11CF11C81149104A104B10429F7FF90B4
:10100000EF90DF90CF90BF90AF909F908F9008951A
:101010007F928F929F92AF92BF92CF92DF92EF9288
:10102000FF920F931F93CF93DF93C82E8B017A010A
:1010300080913C02811110C08FEF9FEFDF91CF9123
:101040001F910F91FF90EF90DF90CF90BF90AF90E6
:101050009F908F907F90089580912F0280FF05C010
:101060008091E00082608093E000CE2DDF2DD12CB6
:101070008AEFB82E8C2D8770982E8C2D8072882E3A
:101080008C2D8074782E9AE3A92E209719F4DD20F8
:1010900009F452C08C2D0E94A60681110AC0BA9490
:1010A000BB2051F261E070E080E090E00E94D60742
:1010B000ECCF8C171D0611F00CF08C2F9FB7F89415
:1010C0009092E9002091E80025FD02C09FBFDDCF8E
:1010D000282F30E0C21BD30B882029F08150A0F0CC
:1010E0001092F100FBCFF801C7FC0AC0815050F00C
:1010F00041914093F100FACF44914093F100319631
:101100008150D0F7020F131FDD2021F0A092E800DC
:10111000D12CDCCF8091E80085FD07C0A092E800CB
:10112000DD24D394209791F2F3CF209779F677209E
:1011300069F2A092E800CACF5D9884E680932E02FF
:10114000C7017CCFCF93DF93EC0180911C018823F2
:1011500031F083E00E9408081816190634F081E087
:1011600090E09B838A8380E090E0DF91CF910895A7
:1011700008958091350290913602891B990B08954C
:101180002091F101260F3327331F21323105ECF472
:1011900020918302FC0190E080E0243069F082E03D
:1011A0000895A091F1012191AC014F525E4FA40F1F
:1011B000B52FB11D2C930196861798F38091F101FC
:1011C000680F6093F10180E0089581E00895109226
:1011D000830281E08093820210925D0261E082E0EE
:1011E0000E94830761E083E00E948307E9EBF0E05F
:1011F00080818E7F808380818D7F808388E480934F
:10120000B80085E48093BC000895CF93DF9391E00C
:101210009093D0018823B9F0C091B800D091BA0062
:101220008091BC008A7B8093BC0060E082E00E94D9
:10123000830760E083E00E9483070E94E708D09361
:10124000BA00C093B800DF91CF910895CF92DF929A
:10125000EF92FF920F931F93CF93DF93D091AC0245
:1012600081E0D13208F09CC0C091AB020E94B1076E
:101270006B017C018091830281116CC082E08093BC
:10128000830281E0809382028FEF8093810210922B
:101290008002D0937F02ABE8B2E0EFE5F2E080E0BD
:1012A000D8138DC010925E0280915E02CC0FC82BC5
:1012B000C0935E0280915D02813009F084C010927B
:1012C0005D020E94B1076B017C0180915E028093F8
:1012D000BB008091850290918602A0918702B09117
:1012E0008802892B8A2B8B2BA1F00E94B1070091D9
:1012F00085021091860220918702309188026C1934
:101300007D098E099F09061717072807390708F472
:1013100042C08091BC0083FDD8CF85EC8093BC0097
:101320000E94B1076B017C0180918302823009F435
:101330004CC0809181028F3F09F469C08091810285
:10134000803209F466C080918102803309F463C061
:1013500084E026C08091850290918602A091870248
:10136000B0918802892B8A2B8B2B09F483CF0E94A2
:10137000B107009185021091860220918702309179
:1013800088026C197D098E099F090617170728071F
:10139000390708F06FCF809184020E94050985E02B
:1013A00010928A021092AC0210928902DF91CF91C2
:1013B0001F910F91FF90EF90DF90CF9008959D9136
:1013C00091938F5F6DCF85EEA9CF8091850290912B
:1013D0008602A0918702B0918802892B8A2B8B2BE1
:1013E00009F4A2CF0E94B1070091850210918602F4
:1013F00020918702309188026C197D098E099F091E
:10140000061717072807390708F08ECFC4CF80E0EA
:10141000C7CF82E0C5CF83E0C3CF8F929F92AF92B8
:10142000BF92CF92DF92EF92FF920F931F93CF93D1
:10143000DF93D82FC62F142F613208F09CC00E9472
:10144000B1076B017C018091830281116FC081E043
:1014500080938302109382029FEF909381021092F7
:1014600080029C0F90937F0280935E0280915E02C7
:10147000DD0FD82BD0935E0280915D02813009F0A0
:101480007CC010925D020E94B1076B017C018091CB
:101490005E028093BB008091850290918602A091AC
:1014A0008702B0918802892B8A2B8B2BA1F00E9496
:1014B000B107009185021091860220918702309138
:1014C00088026C197D098E099F09061717072807DE
:1014D000390708F44CC08091BC0083FDD8CF85EC5F
:1014E0008093BC000E94B1076B017C018091830254
:1014F000813009F444C0809180028C1710F4C091AF
:101500008002EFE5F2E0ADE3B2E080E08C1359C079
:101510008C2FDF91CF911F910F91FF90EF90DF9073
:10152000CF90BF90AF909F908F900895809185024B
:1015300090918602A0918702B0918802892B8A2B14
:101540008B2B09F480CF0E94B10780908502909088
:101550008602A0908702B09088026C197D098E09DE
:101560009F0986169706A806B90608F06CCF8091E9
:1015700084020E940509C0E0CBCF85EEB1CF8091F7
:10158000850290918602A0918702B0918802892BF2
:101590008A2B8B2B09F4AACF0E94B10700918502F8
:1015A0001091860220918702309188026C197D0982
:1015B0008E099F09061717072807390708F096CFE5
:1015C000D6CF91919D938F5FA1CF0895E091360280
:1015D00080913502E81730F4F0E0E35CFD4F808144
:1015E00090E008958FEF9FEF0895909136028091DB
:1015F00035022FEF3FEF981748F4E92FF0E0E35C56
:10160000FD4F208130E09F5F90933602C90108951D
:10161000CF92DF92EF92FF920F931F93CF93DF93BE
:101620007C01CB018A0120918902222389F0EB0100
:101630006B01C40ED51ECC15DD0569F06991D7018B
:10164000ED91FC910190F081E02DC7010995F3CF58
:10165000642F0E94C008C801DF91CF911F910F91A4
:10166000FF90EF90DF90CF900895CF93DF931F927C
:10167000CDB7DEB76983209189022223F9F020914A
:10168000AC02203258F021E030E0FC0133832283A9
:1016900090E080E00F90DF91CF91089580918A02D1
:1016A000E82FF0E0E557FD4F998190838F5F80939D
:1016B0008A028093AC0281E090E0ECCF61E0CE0141
:1016C00001960E94C008F7CF682F8DEF92E00C942E
:1016D000350BFF920F931F93CF93DF93042FF22EBE
:1016E000132F91E0909389028093AB0210928A02AB
:1016F0001092AC028DEF92E00E94350BCF2DD12FCE
:101700000C0F1D2F111DC017D10731F069918DEFFE
:1017100092E00E94350BF7CF0E94260991E08111DB
:1017200090E0892FDF91CF911F910F91FF90089545
:10173000CF93DF931F92CDB7DEB749839E012F5F12
:101740003F4F41E00E94690B0F90DF91CF910895C8
:10175000482F6EE6809109030C94980B90E080E08E
:10176000089581E08093CF010895CF92DF92EF92A8
:10177000FF920F931F93CF93DF93E7016901F80165
:101780002017310714F06801F90190E080E066232A
:10179000A1F1CA014C155D050CF4C601BF018E17FD
:1017A0009F070CF4BC010217130734F4CF01861B0A
:1017B000970BBC016C0D7D1D0D2C000CEE08FF0875
:1017C000072E000C880B990B6C197D098E099F0957
:1017D0002AE0660F771F881F991F2A95D1F79F016E
:1017E000FF0F440B550B2C193D094E095F090E9450
:1017F000DB212883398382E090E0DF91CF911F9134
:101800000F91FF90EF90DF90CF900895EF92FF92AD
:101810001F93CF93DF937C01EB01FC01828111E0E8
:10182000109389028093AB0210928A021092AC024C
:101830008DE290E00E94640B88E090E00E94640BCF
:101840000E942609F7018281109389028093AB02DE
:1018500010928A021092AC0281E390E00E94640B25
:1018600090E080E00E94640B0E94260920E03FEF98
:101870003BA32AA38FEF90E09DA38CA33FA32EA3AD
:1018800099A788A73BA72AA79DA78CA7DF91CF91EF
:101890001F91FF90EF90089583E090E0089582E01B
:1018A00090E00895DC01FB0112962C91129784813F
:1018B00095812817190641F491818081813A31F48C
:1018C0009D7F81E0913009F080E008958132E1F759
:1018D0009B3029F482811F968C9381E008959A3081
:1018E00099F7828150968C93F8CFDC01FB0188E454
:1018F000808389E4818384E482831D969C911D9773
:101900009F709F5B93831D968D919C9124E096958B
:1019100087952A95E1F78F708F5B848385E0089522
:10192000EF92FF920F931F93CF93DF93FB012081E0
:10193000213889F52381223271F5DC0112964C9110
:10194000248135814217130631F58C01FC01C385D2
:10195000D485F12CE12C209791F04C815D816A8136
:101960007B818E81811180E80E9480068F3F9807DD
:1019700059F0E80EF91E0990D881C02DECCF81E016
:10198000D8011F968C93C701DF91CF911F910F91C2
:10199000FF90EF90089590E080E0F6CFCF93DF9333
:1019A000CDB7DEB769970FB6F894DEBF0FBECDBFD7
:1019B000FC01DB018C918F5F8C939E012D5F3F4F6B
:1019C0008DE0D9011D928A95E9F729E0298384E009
:1019D0008A8391E09D8383E08E832A8721E22B878F
:1019E0009C879D879F8722E2288B27E02B8B25E011
:1019F0002C8B8E8B20E430E0388F2F8B998F828157
:101A00008B8395858685998B8A8B838180688D8B66
:101A100049E150E0BE016F5F7F4F80E00E94800689
:101A200069960FB6F894DEBF0FBECDBFDF91CF91A0
:101A30000895CF93DF9380917901811167C081E090
:101A400080936C0180936D0122E731E030936F0148
:101A500020936E01109271011092700127E231E023
:101A60003093690120936801109274011092730100
:101A7000109276011092750180937701809378011E
:101A800081EC809372010E94C906FC0181819091D2
:101A90006C01482F490F5527551F483051059CF5BB
:101AA000A281B381109709F528E631E033832283C0
:101AB000208120936A0180936B0180916D01820FD8
:101AC000808320916E01A22FB0916F018A2F821B1B
:101AD0008917C8F481813D91C82FD0E0C65FDE4FE1
:101AE00038838F5F8183F2CFD90118962D913C9175
:101AF000199721153105C1F728E631E019963C9375
:101B00002E931897D5CF81E08093790188E691E0F4
:101B1000DF91CF9108958F929F92AF92BF92CF9213
:101B2000DF92EF92FF920F931F93CF93DF93CDB786
:101B3000DEB7C659D1090FB6F894DEBF0FBECDBFD0
:101B40005C01DC015B961C921E925A975E961C9279
:101B50005E9793961C921E9292978FEF93E09596C4
:101B60009C938E93949797961C921E929697999613
:101B70009C938E9398979B961C921E929A979D96F3
:101B80009C938E939C979F961C921E929E97D196A3
:101B90009C938E93D097D3961C921E92D297D596F3
:101BA0009C938E93D497D7961C921E92D697D996D3
:101BB0009C938E93D897DB961C921E92DA97DD96B3
:101BC0009C938E93DC97DF961C921E92DE97F50114
:101BD000E05CFF4F918380833296118210823296AF
:101BE0009183808332961182108232969183808312
:101BF000329611821082329691838083329683E0EE
:101C0000808382E0F501858F178E411101C080E04D
:101C1000862B94E0211101C090E0892B98E00111FE
:101C200001C090E0892B90E1E11001C090E0892B88
:101C300090E2C11001C090E0892BD50190968C9361
:101C4000909791961C921E2D1C0D100F120F140FC1
:101C5000160F75E0798381E08A8399E09B83A4E085
:101C6000AC83F1EAFD838E8335E83F83B3E0B88728
:101C700079879A8739E13B878C8739E23D87E2E0B3
:101C8000EE8735E13F87188A35E2398B8A8B55E735
:101C90005B8B8C8B35E93D8BEE8B0F2EF5E5FF2EA4
:101CA000F02DFF8A188E0F2EF5E6FF2EF02DF98EFF
:101CB0001A8E0F2EF1E8FF2EF02DFB8EEC8F5D8F2C
:101CC0008E8F3F8FE6E0E8A3F9A2BAA3112309F4AF
:101CD00027C17BA38CA39DA38EA386E18FA318A607
:101CE00019A686E28AA71BA6ACA75DA780E18EA7EE
:101CF0003FA718ABF9AB1AAA662309F40EC19BAB38
:101D000080E38CAB64E370E0442391F0E1E0F0E029
:101D1000EC0FFD1FE60FF71F89E08083E2E0F0E0A3
:101D2000EC0FFD1FE60FF71F81E380836E5F7F4F8F
:101D3000222391F0E1E0F0E0EC0FFD1FE60FF71F2A
:101D400089E08083E2E0F0E0EC0FFD1FE60FF71F73
:101D500082E380836E5F7F4F002391F0E1E0F0E04B
:101D6000EC0FFD1FE60FF71F89E08083E2E0F0E053
:101D7000EC0FFD1FE60FF71F83E380836E5F7F4F3D
:101D8000EE2091F0E1E0F0E0EC0FFD1FE60FF71F11
:101D900089E08083E2E0F0E0EC0FFD1FE60FF71F23
:101DA00084E380836E5F7F4FCC2091F0E1E0F0E030
:101DB000EC0FFD1FE60FF71F89E08083E2E0F0E003
:101DC000EC0FFD1FE60FF71F85E380836E5F7F4FEB
:101DD000E1E0F0E0EC0FFD1FE60FF71F81E88083E4
:101DE000E2E0F0E0EC0FFD1FE60FF71F82E08083DA
:101DF000CB0103966C0F7D1F20ECFB012383E1E0F8
:101E0000F0E0EC0FFD1FE80FF91F20EC20836C01C0
:101E1000FFEFCF1ADF0AC6010E945A254C01A60126
:101E2000BE016F5F7F4F0E94492787E090E00E94CC
:101E30005A257C01DC0111961C921E9213969C92ED
:101E40008E9212971596DC92CE92149716961C924B
:101E50000E94190DFC01A385B485109709F064C098
:101E6000F486E38685859685D70114962D913C915D
:101E7000820F931F96878587F501958D892F86950B
:101E800086958695977009F057C0868FF501068D67
:101E9000802F90E00E945A25D5015B969C938E93EB
:101EA0005A97F501E15BFF4F110F100F81E05F962C
:101EB0009C91911101C080E0180F1083F5011182EF
:101EC0001082138212821582148217821682118662
:101ED0001086138612861586148617861686118A32
:101EE000108A138A128A158A148A8FEF9FEF978BB4
:101EF000868B918F808F90E080E0D5015E962C914B
:101F00005E9728171906D9F0D4F05A96ED91FC91F6
:101F1000E80FF91F10820196F0CF62E370E0F4CE73
:101F200082E290E06CCFDC018D919C91119700973B
:101F3000D1F7ED92FC9296CF8F5F868FA7CFCA56CE
:101F4000DF4F0FB6F894DEBF0FBECDBFDF91CF914C
:101F50001F910F91FF90EF90DF90CF90BF90AF90C7
:101F60009F908F9008952F923F924F925F926F9221
:101F70007F928F929F92AF92BF92CF92DF92EF9219
:101F8000FF920F931F93CF93DF9300D000D0CDB774
:101F9000DEB7782E662E4C833A8329838FB7F89468
:101FA000C0901502D0901602E0901702F09018022F
:101FB0008FBF512C1B82442443942C81222E312C20
:101FC0004801B12CA12C8C81581608F05AC04092BF
:101FD00089027092AB0210928A021092AC02662DB6
:101FE0008DEF92E00E94350B0E94260940928902F3
:101FF00010928A021092AC02B10165197109613226
:10200000710514F060E270E0613208F060E241E0D6
:10201000872D0E940D0A109236028093350290910E
:10202000350280913602981731F10115110579F4C6
:102030008DEF92E00E94F50AE981FA819B81E90F18
:10204000F11D97FDFA9580839F5F9B83E8CF2FB7A3
:10205000F8948091150290911602A0911702B09108
:1020600018022FBF8C199D09AE09BF098815990563
:10207000AA05BB05E8F28C81813208F080E2580E97
:10208000A2CF0115110509F12FB7F894809115021F
:1020900090911602A0911702B09118022FBF8C19CF
:1020A0009D09AE09BF0930E020E080179107A20723
:1020B000B30758F02B81822F220F990B2C81281700
:1020C000190619F014F08FEF8B838B810F900F900E
:1020D0000F900F90DF91CF911F910F91FF90EF9094
:1020E000DF90CF90BF90AF909F908F907F906F9038
:1020F0005F904F903F902F9008950F931F93CF9331
:10210000DF93C9E0D3E008EE13E02AE033E041E0DA
:102110006AE388810E94B30F8981DF91CF911F917B
:102120000F9108952F923F924F925F926F927F92FC
:102130008F929F92AF92BF92CF92DF92EF92FF92D7
:102140000F931F93CF93DF933C015B01242E522EFC
:10215000302E4F716DE6809109030E94980B852DFA
:102160000E94A80B80E190E00E945A256C01002398
:1021700029F080E190E00E945A257C01D0E0C0E087
:10218000CA15DB0508F080C0CE014096A816B90636
:10219000E8F44A2C4C1A80E091E085199109481620
:1021A000190619F014F0452C4194332091F0D70111
:1021B00090E080E093012C0F3D1F841568F4F90135
:1021C000E80FF91FE491ED930196F7CF80E1482ED7
:1021D000E2CF7301EC0EFD1E9701442D6FE6809156
:1021E00009030E94690B842C912CC114D104B9F10C
:1021F000422D4F716DE6809109030E94980B852D49
:102200000E94A80B08EE13E09601442D6FE6809122
:1022100009030E94B30FA401B601C7010E943C2725
:10222000892BE9F0C6010E94F625332021F0C70171
:102230000E94F625312C832DDF91CF911F910F91B4
:10224000FF90EF90DF90CF90BF90AF909F908F90D6
:102250007F906F905F904F903F902F900895C80DA2
:10226000D91D540CCA15DB0508F08ACF511001C0E6
:102270002394422D4F716DE6809109030E94980BC3
:10228000852D0E94A80B7CCFC6010E94F625332025
:1022900021F0C7010E94F625CECF33243394CBCF53
:1022A0000F931F93462F08EE13E09C0164E7809183
:1022B00009030E94B30F1F910F9108950F931F936D
:1022C000CF93DF93C9E0D3E008EE13E02AE033E0D8
:1022D00042E062E788810E94B30F89819A81982742
:1022E00089279827DF91CF911F910F910895EF9241
:1022F000FF920F931F93CF93DF931F92CDB7DEB75B
:102300007A0189019E012F5F3F4F41E00E94B30F88
:10231000882339F029812E7730E035952795F7010C
:1023200020830F90DF91CF911F910F91FF90EF903D
:102330000895BF92CF92DF92EF92FF920F931F9377
:10234000CF93DF931F92CDB7DEB7F82EE62EC42EC3
:10235000B22ED02E08EE13E09E012F5F3F4F41E0DA
:102360000E94B30F882371F18C2D8B19990BAC014E
:102370004F5F5F4F81E090E002C0880F991FBA94D1
:10238000E2F70197042E01C0880F0A94EAF70D2D99
:1023900001C0000F4A95EAF7482F409599814923DB
:1023A0008023482B49836E2D8F2D0E94980B0F9010
:1023B000DF91CF911F910F91FF90EF90DF90CF9021
:1023C000BF90089580E0F3CFCF92DF92EF92FF921B
:1023D0000F931F93CF93DF931F92CDB7DEB7F82EE5
:1023E000E62EC42ED22E08EE13E09E012F5F3F4F43
:1023F00041E00E94B30F81E090E001C0880FCA94D1
:10240000EAF74981DD2081F0482B49836E2D8F2D1D
:102410000E94980B0F90DF91CF911F910F91FF9029
:10242000EF90DF90CF90089580954823EECF85ED13
:102430008093BC008091850290918602A0918702D2
:10244000B09188020796A11DB11D23E0B695A7950E
:10245000979587952A95D1F72091BC0024FD03C05C
:1024600010928302089540918502509186026091F6
:10247000870270918802452B462B472B69F3009702
:10248000A105B10541F025E32A95F1F70000019778
:10249000A109B109E1CF809184020C9405092F9222
:1024A0003F924F925F926F927F928F929F92AF92E4
:1024B000BF92CF92DF92EF92FF920F931F93CF9331
:1024C000DF93CDB7DEB7C259D1090FB6F894DEBF9E
:1024D0000FBECDBF6B0101E023E042E06BE68091CF
:1024E00009030E94991100E022E044E06BE1809131
:1024F00009030E94991122E044E06CE180910903F4
:102500000E94991120E046E06BE6809109030E9449
:10251000E41164EF71E080E090E00E94D60721E0D2
:1025200047E06BE6809109030E94E4116EE170E0E0
:1025300080E090E00E94D60720E046E06BE68091C4
:1025400009030E94E41140E76DE6809109030E94AF
:10255000980B86E00E94A80B08EE13E02AE033E017
:1025600041E06FE6809109030E94B30F40E06DE601
:10257000809109030E94980B9E012F5F3F4F41E01D
:1025800060E0809109030E94B30F8981817080937C
:102590000A0328EE33E04AE053E060E0809109034B
:1025A0000E94771150900A0328EE33E04AE053E08E
:1025B00061E0809109030E94771160900A0328EE80
:1025C00033E04AE053E062E0809109030E94771112
:1025D00070900A034FE765E2809109030E94980B0F
:1025E00020E045E06AE6809109030E94E41148E694
:1025F00065E2809109030E94980B21E041E06AE6C0
:10260000809109030E94E41164E170E080E090E0B1
:102610000E94D60701E020E040E069E877E089EC1D
:1026200091E00E949210882309F440C088E090E075
:102630000E945A257C0110E000E0F801E75FFE4FA0
:102640004490F801E65FFE4F3490580183E0A80EF5
:10265000B11CF801E55FFE4FE491EE2309F47EC062
:102660008E2E912CE33028F0B401C7010E947F2602
:102670007C01D70190E080E0045F1E4FF801E80F75
:10268000F91FE491ED93019688159905B8F300E0E0
:10269000232D442DB401C7010E94921084010A0D1C
:1026A0001B1D81116AC0C7010E94F62521E047E089
:1026B0006AE6809109030E94E41181EB9BE090930C
:1026C000010180930001809169008360809369001B
:1026D000E89A0E947D1080910B0390910C039093D7
:1026E000CE018093CD0120E030ECF60133A322A38C
:1026F0008FEF9FE395A384A337A326A391A780A779
:1027000033A722A795A784A72CE43FEF37A726A7D6
:1027100084EB90E091AB80AB33AB22AB95AB84AB59
:1027200037AB26AB91AF80AFCE56DF4F0FB6F894E4
:10273000DEBF0FBECDBFDF91CF911F910F91FF90F4
:10274000EF90DF90CF90BF90AF909F908F907F9051
:102750006F905F904F903F902F9008950C5F1F4FA8
:10276000F501E75FFE4FE49180910903E13009F044
:102770009ACF42E368E30E94980B003C110508F4ED
:102780005CCFC7010E94F62503E023E042E06BE640
:10279000809109030E94991142E168E38091090345
:1027A0000E94980B44E069E1809109030E94980B14
:1027B00001E023E045E06AE1809109030E9499115C
:1027C00003E023E042E06AE1809109030E9499114D
:1027D00022E044E06BE1809109030E94991143E0FB
:1027E00060E7809109030E94980B40E061E78091C7
:1027F00009030E94980B20E040E060E0809109030B
:102800000E94E411052D26E046E060E08091090376
:102810000E949911062D26E046E061E080910903AF
:102820000E949911072D26E046E062E0809109039D
:102830000E949911F12CE12CF701E652FF4FE4912F
:10284000A1E8B0E0AC0FBD1FAE0DB11DEC9381E06F
:102850008E0D9FEFE91AF90AE3E0EE1568F7CD5700
:10286000DF4F6881C358D04070E09B012E5F3F4F1F
:102870008217130609F304F300E0CE57DF4F2881D7
:10288000C258D040CF57DF4F4881C158D04081E86F
:1028900090E08C0F9D1F03960E94921080E0F7013C
:1028A000E652FF4FE491A1E8B0E0AC0FBD1FA80FC6
:1028B000B11DEC938F5FFFEFEF1AFF0A282F30E076
:1028C000843068F3CD57DF4F6881C358D04070E043
:1028D000AB014E5F5F4F421753070CF700E0CE5736
:1028E000DF4F2881C258D040CF57DF4F4881C158B1
:1028F000D04081E890E08C0F9D1F03960E949210BB
:102900000E94F21F0E945E11682FCE0101960E9464
:10291000501142E06FE1809109030E94980B4CE94D
:1029200061E2809109030E94980B40E560E280918A
:1029300009030E94980B40E062E2809109030E9423
:10294000980B0E94F21F21E046E06AE6809109039D
:102950000E94E41121E047E06AE6809109030E94A9
:10296000E41121E043E06AE6809109030E94E4114A
:1029700080E0F701E652FF4FE491A1E8B0E0AC0F30
:10298000BD1FA80FB11DEC938F5F9FEFE91AF90AE5
:10299000282F30E0843068F3CD57DF4F6881C3586B
:1029A000D04070E0AB014E5F5F4F421753070CF70A
:1029B00000E0CE57DF4F2881C258D040CF57DF4FBD
:1029C0004881C158D04081E890E08C0F9D1F03964C
:1029D0000E94921080E0F701E652FF4FE491A1E8D7
:1029E000B0E0AC0FBD1FA80FB11DEC938F5FEFEFF0
:1029F000EE1AFE0A282F30E0843068F3CD57DF4FFF
:102A00006881C358D04070E0AB014E5F5F4F421702
:102A100053070CF700E0CE57DF4F2881C258D04053
:102A2000CF57DF4F4881C158D04081E890E08C0FEC
:102A30009D1F03960E94921080E0F701E652FF4F1F
:102A4000E491A1E8B0E0AC0FBD1FA80FB11DEC935D
:102A50008F5FFFEFEF1AFF0A282F30E0843068F312
:102A6000CD57DF4F6881C358D04070E0AB014E5F57
:102A70005F4F421753070CF700E0CE57DF4F288116
:102A8000C258D040CF57DF4F4881C158D04081E86D
:102A900090E08C0F9D1F03960E9492100E945E1181
:102AA00083309105D8F3682FCE0101960E94501112
:102AB0000E947D1080E0F701E652FF4FE491A1E80B
:102AC000B0E0AC0FBD1FA80FB11DEC938F5FEFEF0F
:102AD000EE1AFE0A282F30E0843068F3CD57DF4F1E
:102AE0009881C358D040CE56DF4F9883C259D0400A
:102AF000892E912CA4014E5F5F4F42175307DCF6DD
:102B0000CE57DF4F3880C258D040CF57DF4FF881C3
:102B1000C158D040CF56DF4FF883C159D0404F2F16
:102B20004F716DE6809109030E94980B832D0E94DE
:102B3000A80BB12CA12C412C5524539421E8622ED2
:102B4000712C6C0E7D1E83E0680E711CA814B904F4
:102B500008F043C0C5014096CE56DF4F2880C259C9
:102B6000D0402A188816990610F080E1282EC2015C
:102B7000831991092816190619F014F0232C2194B1
:102B800093012A0D3B1D08EE13E0422D6FE6809164
:102B900009030E94B30FA20CB11C320CA814B90493
:102BA000A8F631100BC0CF56DF4F9881C159D040E5
:102BB0009F5FCF56DF4F9883C159D040CF56DF4F2C
:102BC0004881C159D0404F716DE6809109030E9440
:102BD000980B832D0E94A80BB9CF0E945E11833001
:102BE0009105D8F3682FCE0101960E9450110E94E2
:102BF0007D10F701E652FF4F80E09491A1E8B0E02C
:102C0000AC0FBD1FA80FB11D9C938F5F282F30E024
:102C1000843060F0CD57DF4F6881C358D04070E0FA
:102C2000AB014E5F5F4F4217530714F03196E5CF6B
:102C300000E0CE57DF4F2881C258D040CF57DF4F3A
:102C40004881C158D04081E890E08C0F9D1F0396C9
:102C50000E94921020E047E06AE6809109030E94FA
:102C6000E4118AE290E090930C0380930B030E949E
:102C7000F21F0E947D101ACD4F925F926F927F9249
:102C80008F929F92AF92BF92CF92DF92EF92FF927C
:102C90000F931F93CF93DF93CDB7DEB76C014DB683
:102CA0005EB63C012FE4620E711CF30180812DB7EA
:102CB0003EB7281B31090FB6F8943EBF0FBE2DBF9B
:102CC0008DB79EB701964C01F601A68CB12CDC01A4
:102CD00090E080E0F6018A159B054CF4228D338D3F
:102CE000F901E80FF91F20812D930196F3CF878D0D
:102CF000882341F18689978928E097FD09C068E615
:102D000071E00E942C256DE270E00E942C25262F98
:102D1000F601808D918D68E097FD08C068E671E04E
:102D20000E942C256DE270E00E942C25F401EA0D32
:102D3000FB1D30E1639FB0011124262B2083C501C8
:102D400001965C017401EA0CFB1CF60104A115A1BB
:102D500022A133A14081518160A16170C6010E940E
:102D6000B50BA80EB91E7401EA0CFB1CF60100A5F8
:102D700011A526A137A14281538160A1669561709A
:102D8000C6010E94B50BA80EB91E7401EA0CFB1C0B
:102D9000F60104A515A522A533A54481558160A19E
:102DA00062FB662760F9C6010E94B50BA80EB91E2A
:102DB0007401EA0CFB1CF60100A911A926A537A590
:102DC0004681578160A163FB662760F9C6010E94B6
:102DD000B50BA80EB91E7401EA0CFB1CF60104A980
:102DE00015A922A933A94085518560A1629561701A
:102DF000C6010E94B50BA80EB91E7401EA0CFB1C9B
:102E0000F60100AD11AD26A937A94285538560A111
:102E100065FB662760F9C6010E94B50BA80EB91EB6
:102E20007401EA0CFB1CF60104AD15AD22AD33AD07
:102E30004685578561A16170C6010E94B50BA80E39
:102E4000B91E7401EA0CFB1CF601E05CFF4F008127
:102E50001181F60126AD37AD4485558561A1669592
:102E60006170C6010E94B50BA80EB91E7401EA0C70
:102E7000FB1CF601EC5BFF4F008111813297208132
:102E80003181F6014089518961A162FB662760F9B1
:102E9000C6010E94B50BA80EB91E7401EA0CFB1CFA
:102EA000F601E85BFF4F008111813297208131816B
:102EB000F6014289538961A163FB662760F9C60167
:102EC0000E94B50B8A0D9B1D7401E80EF91EF601D8
:102ED000E45BFF4F00811181329720813181F6013F
:102EE0004489558961A162956170C6010E94B50B44
:102EF0000E94190D5C01F3014081F601E25BFF4F76
:102F0000808150E07A01FFEFEF1AFF0A2DB73EB73C
:102F10002E193F090FB6F8943EBF0FBE2DBF0DB757
:102F20001EB70F5F1F4FEDB7FEB78183B401C80115
:102F300001960E944927F5018381A701B8018064A9
:102F40000E9408080FB6F8945EBE0FBE4DBEDF911A
:102F5000CF911F910F91FF90EF90DF90CF90BF9096
:102F6000AF909F908F907F906F905F904F9008955B
:102F70002F923F924F925F926F927F928F929F9289
:102F8000AF92BF92CF92DF92EF92FF920F931F9377
:102F9000CF93DF93CDB7DEB768970FB6F894DEBF57
:102FA0000FBECDBF1B011092CF010E947D100E9469
:102FB0005E116091CD017091CE0186179707B8F32D
:102FC0008DE891E00E9450112091AD01822F90E098
:102FD000B82FAA278091AE01A80FB11DBA83A9838B
:102FE0008091B10190E0982F88270091B201080FDD
:102FF000192F111D8091A90190E0982F8827209109
:10300000AA01820F911DF10191838083848D882311
:1030100019F0C1010E943C16E981FA81D101139691
:10302000FC93EE9312975C968C91882319F0C10162
:103030000E943C16D10115961C930E9314975C9632
:103040008C91882319F0C1010E943C16B091A10116
:10305000EB2FF0E03E2F22278091A201280F311D97
:103060003A8329838091A50190E0982F88270091C9
:10307000A601080F192F111D80919D0190E0982F36
:10308000882720919E01820F911DD10117969C9354
:103090008E9316975C968C91882319F0C1010E943B
:1030A0003C1629813A81F10131872087848D88235C
:1030B00019F0C1010E943C16D1011B961C930E937E
:1030C0001A975C968C91882319F0C1010E943C16D6
:1030D000A09091016A2D70E0762F6627A090920152
:1030E000A60EB72EB11C00919501602F70E0762FCF
:1030F000662700919601060F172F111DB0919901B7
:103100006B2F70E0762F6627E0919A012E2F260F05
:10311000372F311D3E832D8360918D01862F90E0E6
:10312000982F882760918E01680F792F711D072EC7
:10313000000C880B990B0E94A52320E030E040E8AA
:1031400058E30E9460246B017C01C0922803D09256
:103150002903E0922A03F0922B03B501BB0C880BE4
:10316000990B0E94A52320E030E040E858E30E943C
:1031700060242B013C0140922C0350922D0360925D
:103180002E0370922F03B801110F880B990B0E9428
:10319000A52320E030E040E858E30E9460246983E2
:1031A0007A838B839C836093300370933103809385
:1031B000320390933303AD81BE81BD01BB0F880BF9
:1031C000990B0E94A52320E030E040E858E30E94DC
:1031D00060246D837E838F8398876093340370931C
:1031E000350380933603909337039B01AC01C301F1
:1031F000B2010E9460244B015C0129813A814B811C
:103200005C81C701B6010E9460249B01AC01C5012D
:10321000B4010E941C229B01AC010E941D226987FF
:103220007A878B879C8760931C0370931D03809320
:103230001E0390931F03A3019201C701B6010E94D0
:1032400060244B015C012D813E814F81588569814D
:103250007A818B819C810E9460249B01AC01C50115
:10326000B4010E941D229B01AC010E941D226D87AA
:103270007E878F87988B60932003709321038093C0
:10328000220390932303A7019601C701B6010E9470
:1032900060244B015C01A3019201C301B2010E94B1
:1032A00060249B01AC01C501B4010E941C224B01AA
:1032B0005C0129813A814B815C81CA01B9010E947C
:1032C00060249B01AC01C501B4010E941C224B018A
:1032D0005C012D813E814F815885CA01B9010E9450
:1032E00060249B01AC01C501B4010E941D224B0169
:1032F0005C018092240390922503A0922603B09251
:103300002703A7019601C701B6010E941D22698B00
:103310007A8B8B8B9C8BA3019201C301B2010E941B
:103320001D226D8B7E8B8F8B988FA70196016989EB
:103330007A898B899C890E9460246B017C01A3019E
:1033400092016D897E898F89988D0E9460249B01EE
:10335000AC01C701B6010E941D2220E030E040E828
:103360005FE30E941C226B017C0129813A814B8121
:103370005C816D897E898F89988D0E9460242B01E4
:103380003C012D813E814F81588569897A898B89DD
:103390009C890E9460249B01AC01C301B2010E9480
:1033A0001C22A70196010E949C226B017C01C09205
:1033B0008101D0928201E0928301F0928401A50103
:1033C0009401C501B4010E9460244B015C012D856C
:1033D0003E854F855889CA01B9010E946024A50124
:1033E00094010E941D220E94D3249B01AC01698597
:1033F0007A858B859C850E94FB220E94CC2260935B
:1034000085017093860180938701909388012985B7
:103410003A854B855C85CA01B9010E946024A501EB
:1034200094010E941D220E94D3249B01AC016D8552
:103430007E858F8598890E94FB220E94CC22609312
:10344000890170938A0180938B0190938C0120E015
:1034500030E044E353E4C701B6010E9460242BED41
:103460003FE049E450E40E94FB220E946D23F101F9
:1034700077836683848D882319F0C1010E943C16EE
:1034800020E030E044E353E46091850170918601CF
:1034900080918701909188010E9460242BED3FE08C
:1034A00049E450E40E94FB220E946D23D101199649
:1034B0007C936E9318975C968C91882319F0C101C8
:1034C0000E943C1620E030E044E353E4609189011F
:1034D00070918A0180918B0190918C010E946024EF
:1034E0002BED3FE049E450E40E94FB220E946D2353
:1034F000F10173876287848D8823D9F0C1016896B2
:103500000FB6F894DEBF0FBECDBFDF91CF911F91F4
:103510000F91FF90EF90DF90CF90BF90AF909F9072
:103520008F907F906F905F904F903F902F900C9472
:103530003C1668960FB6F894DEBF0FBECDBFDF9184
:10354000CF911F910F91FF90EF90DF90CF90BF90A0
:10355000AF909F908F907F906F905F904F903F9033
:103560002F900895CF92DF92EF92FF920F931F93C7
:10357000CF93DF938C01EB01FC01828191E090936A
:1035800089028093AB0210928A021092AC0282E30D
:1035900090E00E94640B0E94260941E066E0F80179
:1035A00082810E940D0A10923602809335028DEFBF
:1035B00092E00E94F50A8C018DEF92E00E94F50ADC
:1035C000E12CF82EE02AF12A8DEF92E00E94F50A14
:1035D0006C018DEF92E00E94F50A20E0C22AD82A01
:1035E0008DEF92E00E94F50A8C018DEF92E00E942F
:1035F000F50A20E0022B182BF982E8828C8D8823B3
:1036000019F0CE010E943C16DB82CA828C8D882381
:1036100019F0CE010E943C161D830C838C8D8823EB
:1036200059F0CE01DF91CF911F910F91FF90EF9054
:10363000DF90CF900C943C16DF91CF911F910F91AA
:10364000FF90EF90DF90CF9008951F920F920FB6EA
:103650000F9211248F939F938091E1009091E1004C
:10366000937F9093E10083FF0FC01092E90091E0F7
:103670009093EB001092EC0092E39093ED00109287
:103680003C0298E09093F00082FF22C093E0909378
:10369000E9009091F200992319F09AE39093E800E1
:1036A00090912E02992341F090912E029150909387
:1036B0002E02911101C05D9A90913B02992341F035
:1036C00090913B02915090933B02911101C0289A36
:1036D00084FF18C08091E2008E7E81608093E200BA
:1036E0008091E1008F7E8093E10080912F028E7E99
:1036F000806180932F029F918F910F900FBE0F904A
:103700001F90189580FFF7CF8091E2008E7E806138
:103710008093E2008091E1008E7E8093E1008091B1
:103720002F028E7E8160E5CF1F920F920FB60F920F
:103730001124CF92DF92EF92FF920F931F932F935A
:103740003F934F935F936F937F938F939F93AF9329
:10375000BF93EF93FF93CF93DF93CDB7DEB76C9713
:10376000DEBFCDBF1092E9008091E80083FF25C045
:1037700068E0CE0145960E94BC0682EF8093E80087
:103780008D8987FF39C09091E80090FFFCCF982F7A
:10379000907609F034C19E894F89588D2F89F88C15
:1037A000911131C0803861F5809130028093F10031
:1037B0001092F1008EEF8093E8006C960FB6F894AB
:1037C000DEBF0FBECDBFDF91CF91FF91EF91BF91D3
:1037D000AF919F918F917F916F915F914F913F91A9
:1037E0002F911F910F91FF90EF90DF90CF900F904E
:1037F0000FBE0F901F9018959EEF9093E800C7CFD3
:103800001092F100D5CF913059F48111D3CF4130CE
:10381000510581F6809130028D7F80933002CACFAE
:10382000933049F48111C6CF4130510519F680918A
:1038300030028260F2CF953041F48091E80080FF41
:10384000FCCF20682093E300B5CF963009F0A9C0E3
:103850000B8D1C8D22E01092E90010922C02109228
:103860002B02F2122EC010922A02109229020E94FC
:10387000DD061F8299E09983FA8291E09E8390EAA7
:1038800098879AEF998720912B0230912C02275F1D
:103890003F4F3C832B838D831092E90010922C02C2
:1038A00010922B0210932A020093290249E050E063
:1038B000BE016F5F7F4F80E00E9480060E94DD06A0
:1038C00079CF10932A02009329020E94C906DC01D5
:1038D00012960D911C910115110509F451C1D801E1
:1038E000ED91FC910480F581E02DBE016B5E7F4F70
:1038F000C8010995009709F03EC1F80100851185BE
:10390000EACFF3E0FF120EC08F89882309F440C08C
:10391000823061F440E868E083EE99E00E944D0651
:10392000811148CF81E28093EB0047CF813029F4A9
:1039300040E86BE087ED99E0F1CF833099F70E9482
:10394000C906DC011296ED90FC908E010F5F1F4FAF
:103950006801E114F10479F0D701ED91FC91068042
:10396000F781E02DB801C7010995080F111DF70176
:10397000E084F184EECFD8011C92F6010190002082
:10398000E9F73197BF016C197D0940E0C601C6CF48
:1039900061EC79E0FB01449150E080E80E948006F0
:1039A00009CF973009F4BECF983021F481E080939D
:1039B000F10000CF993009F0FDCE837009F0B2CF4D
:1039C000EBE0F1E081E031E096E32191222371F018
:1039D0008093E9003093EB00DF0111972C91209345
:1039E000EC009093ED008F5F873079F78EE780933E
:1039F000EA001092EA008F8980933C02DBCE8B8D27
:103A00009C8D1092E90010922C0210922B02909340
:103A10002A0280932902898D811192C08E899D8905
:103A2000913A49F4813209F07DCF47E050E065E1F9
:103A300071E080E0B3CF913209F074CF833269F442
:103A40008F89988DB0E0A0E08093110190931201CE
:103A5000A0931301B0931401ADCE803269F480912C
:103A6000E80082FFFCCF67E085E191E00E94BC06A0
:103A70008BEF8093E8009ECE823209F09BCE8F8937
:103A800080931C01EEEFFFE7859194918B3F9C4D55
:103A900051F1E0E0F8E08091150190911601A091BC
:103AA0001701B0911801803B9440A105B105F1F4D4
:103AB00080911C0180FD1AC0EE3F8AE0F80789F56D
:103AC00087E797E7918380838091600080932D0240
:103AD00088E19BE00FB6F894A895809360000FBE34
:103AE0009093600067CEEEEFFAE0D5CF80819181B0
:103AF0008737974709F05ECEA8958091600088616E
:103B00008093600080912D0280936000EE3F2AE058
:103B1000F20789F08091FE0A9091FF0A91838083D9
:103B200049CE808191818737980751F29093FF0A9F
:103B30008093FE0AC5CF1092FF0A1092FE0A3ACE79
:103B40000E94C906DC0112960D911C910115110508
:103B500009F4E8CED801ED91FC910190F081E02DBF
:103B6000BE016B5E7F4FC8010995811123CEF8011C
:103B700000851185EBCF181619060CF41BCED2CE9A
:103B8000F1E0FF12BECE65EC79E004CF1F920F92F8
:103B90000FB60F9211242F933F938F939F93AF9360
:103BA000BF938091150290911602A0911702B091D7
:103BB00018023091140223E0230F2D3758F5019697
:103BC000A11DB11D2093140280931502909316023B
:103BD000A0931702B09318028091190290911A02D3
:103BE000A0911B02B0911C020196A11DB11D8093F2
:103BF000190290931A02A0931B02B0931C02BF916A
:103C0000AF919F918F913F912F910F900FBE0F9089
:103C10001F90189526E8230F0296A11DB11DD2CF43
:103C20001F920F920FB60F9211242F933F934F9331
:103C30005F936F937F938F939F93AF93BF93EF9314
:103C4000FF93E0910801F09109010995FF91EF912F
:103C5000BF91AF919F918F917F916F915F914F91A4
:103C60003F912F910F900FBE0F901F9018951F92AC
:103C70000F920FB60F9211242F933F934F935F93A0
:103C80006F937F938F939F93AF93BF93EF93FF9324
:103C9000E0910601F09107010995FF91EF91BF9125
:103CA000AF919F918F917F916F915F914F913F91D4
:103CB0002F910F900FBE0F901F9018951F920F928B
:103CC0000FB60F9211242F933F934F935F936F93EF
:103CD0007F938F939F93AF93BF93EF93FF93E09165
:103CE0000401F09105010995FF91EF91BF91AF910A
:103CF0009F918F917F916F915F914F913F912F9104
:103D00000F900FBE0F901F9018951F920F920FB635
:103D10000F9211242F933F934F935F936F937F9351
:103D20008F939F93AF93BF93EF93FF93E091020123
:103D3000F09103010995FF91EF91BF91AF919F9190
:103D40008F917F916F915F914F913F912F910F9044
:103D50000FBE0F901F9018951F920F920FB60F92E3
:103D600011242F933F934F935F936F937F938F9380
:103D70009F93AF93BF93EF93FF93E0910001F09176
:103D800001010995FF91EF91BF91AF919F918F91A3
:103D90007F916F915F914F913F912F910F900FBE47
:103DA0000F901F9018951F920F920FB60F9211242B
:103DB0002F933F934F935F936F937F938F939F9333
:103DC000AF93BF93EF93FF938091B900887F8036C4
:103DD00009F44AC0F0F5883209F4A7C018F580311B
:103DE00009F49BC0B8F4882309F4F9C0883009F4B9
:103DF00094C0FF91EF91BF91AF919F918F917F916F
:103E00006F915F914F913F912F910F900FBE0F9047
:103E10001F901895883109F488C0803251F780933B
:103E2000810214C0803409F49DC040F48033B9F39A
:103E30008833F9F68093810285ECB0C0803509F4AF
:103E400085C0883509F496C0883499F60E94171207
:103E5000D0CF883909F48CC038F5883729F050F470
:103E6000883611F0803729F683E080938302109220
:103E7000130257C0883809F47BC0803919F08038A4
:103E800009F0B7CF80911302803208F071C0E09141
:103E9000130281E08E0F809313028091BB00F0E04B
:103EA000ED50FE4F80833DC0803B39F0E0F4803A16
:103EB00009F479C0883A09F09CCF84E080938302AA
:103EC0001092F2011092F101E0913302F09134026C
:103ED00009958091F10181110FC081E08093F1017A
:103EE0001092D10109C0803C09F4A6CF883C09F4A6
:103EF000A3CF883B09F07DCFE091F20181E08E0FE6
:103F00008093F201F0E0EF52FE4F80818093BB007E
:103F10009091F2018091F10129C080915E0280931D
:103F2000BB0085EC8093BC0064CF909180028091AF
:103F30007F02981758F5E091800281E08E0F809300
:103F40008002F0E0E15AFD4F8081E9CFE0918002EC
:103F500081E08E0F809380028091BB00F0E0E15AF7
:103F6000FD4F80839091800280917F029817C8F264
:103F700085E8D8CFE091800281E08E0F80938002A7
:103F80008091BB00F0E0E15AFD4F80838091820276
:103F900081115CCF81E080935D0284EA8093BC0054
:103FA0001092830226CF85EC8093BC00109283028E
:103FB00080911302803230F4E0911302F0E0ED5072
:103FC000FE4F10826091130270E0E0913102F09197
:103FD000320283EF91E00995109213020ACF1092FA
:103FE000810234CF21E042E06AE6809109030C941B
:103FF000E411EDEAF2E01382128288EE93E0A0E091
:10400000B0E084839583A683B78327E431E03183CE
:1040100020832FEF3FEF35872487EDEFF2E0138207
:10402000128284839583A683B78389E591E0918387
:104030008083E8E2F3E080E090E0A0E8BFE38083E3
:104040009183A283B383148215821682178210860D
:104050001186128613861486158616861786ECE15D
:10406000F3E010821182128213821482158216826A
:104070001782108611861286138688E680930903BC
:104080000895789484B5826084BD84B5816084BDD0
:1040900085B5826085BD85B5816085BD80916E00E6
:1040A000816080936E001092810080918100826017
:1040B0008093810080918100816080938100809154
:1040C0008000816080938000809191008260809365
:1040D0009100809191008160809391008091900087
:1040E0008160809390008091C10084608093C100C2
:1040F0008091C10082608093C1008091C100816085
:104100008093C1008091C30081608093C30080913F
:10411000C00082608093C0008091C2008160809363
:10412000C20080917A00846080937A0080917A0046
:10413000826080937A0080917A00816080937A0017
:1041400080917A00806880937A0010923C021092ED
:10415000300210922F028091D70081608093D700A7
:1041600080EA8093D80089B5806189BD89B5826075
:1041700089BD09B400FEFDCF61E070E080E090E011
:104180000E94D6078091D8008F7C80618093D800F0
:104190008091E000807F8093E0008091E1008E7E3E
:1041A0008093E1008DE08093E200559A209A10926E
:1041B0003602109235020E94E7088DE196E0909356
:1041C0003402809333028EE196E090933202809322
:1041D000310289E00E944E058AE00E944E05C8E047
:1041E000D0E011E010938902C093AB0210928A02D2
:1041F0001092AC020E942609811107C0C335D10577
:10420000E1F054F4CD31D105C1F02196C837D10584
:1042100049F790E080E01FC0CE01885691090297CF
:10422000A0F784E090E00E945A2523E331E0FC01EE
:1042300031832083D383C2830EC084E090E00E9448
:104240005A252DE331E0DC0111963C932E93139611
:10425000DC93CE93129790933A02809339020097A1
:1042600009F486C0DC01ED91FC910190F081E02D14
:10427000099501E0029709F000E080E590E00E94D6
:104280005A25EC01C02EE02E21E041E061E00E94C1
:104290008B0DD0933802C0933702809139029091F0
:1042A0003A02DC01ED91FC910280F381E02DBE0128
:1042B00009958091370290913802FC01148E0E947A
:1042C0003C166AE070E080E090E00E94D60700E0D3
:1042D00010E08091390290913A02009759F0609174
:1042E000370270913802DC01ED91FC910480F58178
:1042F000E02D0995C0913702D09138028AE00E94E2
:104300005A076C0189E00E945A077C018D8DCD28E7
:1043100009F440C0882309F444C0EA8DFB8D8081F4
:104320008E7F80838C8D882319F0CE010E943C16ED
:10433000EF28C9F18D8D823058F0EA8DFB8D808198
:104340008D7F80838C8D882319F0CE010E943C16CE
:10435000CE010E943C1665E070E080E090E00E9493
:10436000D6070115110509F4B4CF0E940000B1CFA2
:1043700080E590E00E945A25EC01C12CE12C00E080
:1043800020E040E060E00E948B0DD0933802C093A3
:1043900037028FCF882329F0EA8DFB8D80818160E1
:1043A000C0CFEF28A9F68D8D823090F2EA8DFB8D7B
:1043B00080818260C6CF052E97FB1EF400940E9478
:1043C000F22157FD07D00E94FA2107FC03D04EF4DA
:1043D0000C94F22150954095309521953F4F4F4FC9
:1043E0005F4F089590958095709561957F4F8F4FA1
:1043F0009F4F0895A1E21A2EAA1BBB1BFD010DC001
:10440000AA1FBB1FEE1FFF1FA217B307E407F50784
:1044100020F0A21BB30BE40BF50B661F771F881F60
:10442000991F1A9469F760957095809590959B01F6
:10443000AC01BD01CF0108955058BB27AA270E94A7
:1044400034220C941E240E94102438F00E94172459
:1044500020F039F49F3F19F426F40C94E6230EF46F
:10446000E095E7FB0C94E023E92F0E942F2458F3FA
:10447000BA17620773078407950720F079F4A6F549
:104480000C9451240EF4E0950B2EBA2FA02D0B01A5
:10449000B90190010C01CA01A0011124FF27591B89
:1044A00099F0593F50F4503E68F11A16F040A22F8F
:1044B000232F342F4427585FF3CF46953795279500
:1044C000A795F0405395C9F77EF41F16BA0B620BFF
:1044D000730B840BBAF09150A1F0FF0FBB1F661F46
:1044E000771F881FC2F70EC0BA0F621F731F841F89
:1044F00048F4879577956795B795F7959E3F08F0AF
:10450000B0CF9395880F08F09927EE0F9795879570
:1045100008950E94102460F080E891E009F49EEF75
:104520000E94172428F040E851E071F45EEF0CC0BF
:104530000C94E6230C945124E92FE0780E942F2458
:1045400040F3092E052AB1F3261737074807590704
:1045500038F00E2E07F8E02569F0E025E0640AC087
:10456000EF6307F8009407FADB01B9019D01DC0154
:10457000CA01AD01EF930E9412230E941E240E94E3
:10458000CC225F91552339F02BED3FE049E450FDFB
:1045900049EC0C941D220895DF93DD27B92FBF77D6
:1045A00040E85FE31616170648075B0718F4D92F93
:1045B0000E9458249F938F937F936F930E9413259B
:1045C000ECEAF0E00E94E9230E941E242F913F9123
:1045D0004F915F910E947324DD2351F09058A2EA1D
:1045E0002AED3FE049EC5FE3D0785D270E9434225A
:1045F000DF910C941E240E940F230C941E240E9411
:10460000172458F00E94102440F029F45F3F29F04D
:104610000C94E02351110C9452240C94E6230E9434
:104620002F2468F39923B1F3552391F3951B550B70
:10463000BB27AA2762177307840738F09F5F5F4F75
:10464000220F331F441FAA1FA9F335D00E2E3AF0B4
:10465000E0E832D091505040E695001CCAF72BD0CC
:10466000FE2F29D0660F771F881FBB1F261737071D
:104670004807AB07B0E809F0BB0B802DBF01FF274F
:1046800093585F4F3AF09E3F510578F00C94E02329
:104690000C9452245F3FE4F3983ED4F386957795CB
:1046A0006795B795F7959F5FC9F7880F911D969508
:1046B000879597F90895E1E0660F771F881FBB1F64
:1046C000621773078407BA0720F0621B730B840B11
:1046D000BA0BEE1F88F7E09508950E947423689442
:1046E000B1110C94522408950E94372488F09F57EA
:1046F00098F0B92F9927B751B0F0E1F0660F771F06
:10470000881F991F1AF0BA95C9F714C0B13091F0FB
:104710000E945124B1E008950C945124672F782F02
:104720008827B85F39F0B93FCCF3869577956795C0
:10473000B395D9F73EF490958095709561957F4F2C
:104740008F4F9F4F0895E89409C097FB3EF49095D2
:104750008095709561957F4F8F4F9F4F9923A9F05A
:10476000F92F96E9BB279395F695879577956795E9
:10477000B795F111F8CFFAF4BB0F11F460FF1BC02D
:104780006F5F7F4F8F4F9F4F16C0882311F096E9C0
:1047900011C0772321F09EE8872F762F05C066236E
:1047A00071F096E8862F70E060E02AF09A95660F27
:1047B000771F881FDAF7880F9695879597F90895E0
:1047C00097F99F6780E870E060E008959FEF80ECC4
:1047D0000895DF93CF931F930F93FF92EF92DF9291
:1047E0007B018C01689406C0DA2EEF010E947324CD
:1047F000FE01E894A5912591359145915591A6F337
:10480000EF010E943422FE019701A801DA9469F7B2
:10481000DF90EF90FF900F911F91CF91DF9108955E
:1048200000240A941616170618060906089500248F
:104830000A9412161306140605060895092E039409
:10484000000C11F4882352F0BB0F40F4BF2B11F47D
:1048500060FF04C06F5F7F4F8F4F9F4F089557FDDC
:104860009058440F551F59F05F3F71F04795880FDE
:1048700097FB991F61F09F3F79F087950895121675
:1048800013061406551FF2CF4695F1DF08C0161621
:1048900017061806991FF1CF8695710561050894D2
:1048A0000895E894BB2766277727CB0197F90895E9
:1048B0009B01AC0160E070E080E89FE30C94FB2278
:1048C0000E9473240C941E240E94102438F00E942D
:1048D000172420F0952311F00C94E0230C94E62388
:1048E00011240C9452240E942F2470F3959FC1F33D
:1048F000950F50E0551F629FF001729FBB27F00D8E
:10490000B11D639FAA27F00DB11DAA1F649F6627E2
:10491000B00DA11D661F829F2227B00DA11D621F31
:10492000739FB00DA11D621F839FA00D611D221FEB
:10493000749F3327A00D611D231F849F600D211DCF
:10494000822F762F6A2F11249F5750409AF0F1F052
:1049500088234AF0EE0FFF1FBB1F661F771F881FBB
:1049600091505040A9F79E3F510580F00C94E023F0
:104970000C9452245F3FE4F3983ED4F386957795E8
:104980006795B795F795E7959F5FC1F7FE2B880F61
:10499000911D9695879597F9089519F416F40C943E
:1049A000E6230C9417250E943724B8F39923C9F302
:1049B000B6F39F57550B87FF0E9425250024A0E6DC
:1049C00040EA900180585695979528F4805C660FD0
:1049D000771F881F20F026173707480730F4621B1F
:1049E000730B840B202931294A2BA6951794079421
:1049F000202531254A2758F7660F771F881F20F09A
:104A000026173707480730F4620B730B840B200D11
:104A1000311D411DA09581F7B901842F9158880F50
:104A20009695879508959B01AC010C9460249F3F57
:104A300031F0915020F4879577956795B795880F59
:104A4000911D9695879597F9089591505040660F5E
:104A5000771F881FD2F7089597FB072E16F400944E
:104A600007D077FD09D00E94462507FC05D03EF40B
:104A7000909581959F4F0895709561957F4F08950A
:104A8000EE0FFF1F0590F491E02D0994AA1BBB1BAC
:104A900051E107C0AA1FBB1FA617B70710F0A61B3E
:104AA000B70B881F991F5A95A9F780959095BC015F
:104AB000CD0108950F931F93CF93DF93823091051B
:104AC00010F482E090E0E0913A03F0913B0330E093
:104AD00020E0B0E0A0E0309799F42115310509F409
:104AE0004AC0281B390B24303105D8F58A819B81B7
:104AF0006115710589F1FB0193838283FE0111C069
:104B0000408151810281138148175907E0F048170D
:104B1000590799F4109761F012960C931297139617
:104B20001C933296CF01DF91CF911F910F91089581
:104B300000933A0310933B03F4CF2115310551F054
:104B40004217530738F0A901DB019A01BD01DF01CB
:104B5000F801C1CFEF01F9CF90933B0380933A0363
:104B6000CDCFFE01E20FF31F8193919322503109C3
:104B700039832883D7CF2091380330913903232BF1
:104B800041F420911F01309120013093390320938B
:104B9000380320911D0130911E012115310541F48A
:104BA0002DB73EB74091210150912201241B350BB6
:104BB000E0913803F0913903E217F307A0F42E1BBC
:104BC0003F0B2817390778F0AC014E5F5F4F241771
:104BD000350748F04E0F5F1F509339034093380359
:104BE000819391939FCFF0E0E0E09CCFCF93DF9350
:104BF0000097E9F0FC01329713821282A0913A03E8
:104C0000B0913B03ED0130E020E01097A1F420814A
:104C10003181820F931F2091380330913903281777
:104C2000390709F061C0F0933903E0933803DF914D
:104C3000CF910895EA01CE17DF07E8F54A815B813D
:104C40009E0141155105B1F7E901FB83EA834991C2
:104C50005991C40FD51FEC17FD0761F48081918134
:104C60000296840F951FE90199838883828193813D
:104C70009B838A83F0E0E0E012968D919C911397DC
:104C80000097B9F52D913C911197CD010296820FB5
:104C9000931F20913803309139032817390739F6CB
:104CA000309751F510923B0310923A03B0933903B9
:104CB000A0933803BCCFD383C28340815181840F3A
:104CC000951FC817D90761F44E5F5F4F888199819E
:104CD000480F591F518340838A819B81938382832C
:104CE0002115310509F0B0CFF0933B03E0933A036F
:104CF0009ECFFD01DC01C0CF13821282D7CFB0E07E
:104D0000A0E0E5E8F6E20C9454278C01009751F4FA
:104D1000CB010E945A258C01C801CDB7DEB7E0E176
:104D20000C947027FC01E60FF71F9C0122503109FB
:104D3000E217F30708F49DC0D901CD91DC911197DA
:104D4000C617D70798F0C530D10530F3CE010497C8
:104D50008617970708F3C61BD70B2297C193D193E9
:104D60006D937C93CF010E94F625D6CF5B01AC1AE0
:104D7000BD0A4C018C0E9D1EA0913A03B0913B03DD
:104D8000512C412CF12CE12C109731F580913803F6
:104D9000909139038815990509F05CC046165706AD
:104DA00008F058C080911D0190911E01009741F4B8
:104DB0008DB79EB74091210150912201841B950B24
:104DC000E817F90708F055C0F0933903E09338036A
:104DD000F90171836083A0CF8D919C9111971296F8
:104DE0006C90129713967C901397A815B90559F5F6
:104DF0006C0142E0C40ED11CCA14DB0420F1AC01EA
:104E00004A195B09DA011296159780F06282738263
:104E100051834083D9016D937C93E114F10471F0C7
:104E2000D7011396FC93EE93129776CF22968C0FB0
:104E30009D1FF90191838083F301EFCFF0933B0332
:104E4000E0933A0369CF4816590608F42C017D0116
:104E5000D3019ACFCB010E945A257C01009749F0DB
:104E6000AE01B8010E944927C8010E94F6258701BA
:104E700053CF10E000E050CFFB01DC0104C08D9166
:104E80000190801921F441505040C8F7881B990BBC
:104E90000895FB01DC0102C001900D924150504089
:104EA000D8F708952F923F924F925F926F927F9220
:104EB0008F929F92AF92BF92CF92DF92EF92FF922A
:104EC0000F931F93CF93DF93CDB7DEB7CA1BDB0BD6
:104ED0000FB6F894DEBF0FBECDBF09942A8839887B
:104EE00048885F846E847D848C849B84AA84B98482
:104EF000C884DF80EE80FD800C811B81AA81B9818E
:104F0000CE0FD11D0FB6F894DEBF0FBECDBFED01A1
:064F10000895F894FFCFA4
:104F1600B808B808B808B808B80800C18081000009
:104F260000FFFFFFFF00E100000000000000003C62
:104F360003800000000000520CCE0C900C750C0093
:104F46000000004F0C4F12B817000000004C0C0672
:104F56000CB21A00000000A005A208B706B60503A9
:104F660006C105DF0500000000350B080BAE0BE59A
:084F76000AB908F50AE60A0079
:00000001FF
